:020000022000DC
:1060000000000420B5620200DD620200DF620200CF
:10601000E1620200E3620200E562020000000000AB
:10602000000000000000000000000000E762020025
:10603000E962020000000000EB620200ED62020073
:10604000EF620200EF620200817A0200657C0200CA
:10605000E17A0200EF620200EF620200EF620200EA
:10606000EF620200EF620200EF620200EF620200E4
:10607000EF620200EF620200EF620200EF620200D4
:10608000EF620200EF620200EF620200EF620200C4
:10609000EF620200EF620200EF620200EF620200B4
:1060A000EF620200EF620200EF620200EF620200A4
:1060B000EF620200EF62020000000000000000003A
:1060C000EF620200EF620200EF620200EF62020084
:1060D000EF620200EF620200EF620200EF62020074
:1060E000EF620200EF620200EF62020000000000B7
:1060F00000000000EF62020000000000EF620200FA
:10610000000000000000000000000000000000008F
:10611000000000000000000000000000000000007F
:10612000000000000000000000000000000000006F
:10613000000000000000000000000000000000005F
:10614000000000000000000000000000000000004F
:10615000000000000000000000000000000000003F
:10616000000000000000000000000000000000002F
:10617000000000000000000000000000000000001F
:10618000000000000000000000000000000000000F
:1061900000000000000000000000000000000000FF
:1061A00000000000000000000000000000000000EF
:1061B00000000000000000000000000000000000DF
:1061C00000000000000000000000000000000000CF
:1061D00000000000000000000000000000000000BF
:1061E00000000000000000000000000000000000AF
:1061F000000000000000000000000000000000009F
:1062000010B5054C237833B9044B13B10448AFF3F0
:1062100000800123237010BDD8240020000000005E
:106220008C90020008B5034B1BB103490348AFF340
:10623000008008BD00000000DC2400208C900200DB
:10624000154B002B08BF134B9D46A3F5803A002148
:106250008B460F461348144A121A02F094FD0F4B56
:10626000002B00D098470E4B002B00D09847002001
:10627000002104000D000D48002802D00C48AFF3A7
:10628000008002F031FD2000290002F023FC02F022
:1062900017FD00BF000008000000042000000000FF
:1062A00000000000D8240020182B0020000000006F
:1062B000000000000649074A074B9B1A03DD043B18
:1062C000C858D050FBDC02F019FCFFF7B9FF000002
:1062D000E4900200E0220020D8240020FEE7FEE740
:1062E000FEE7FEE7FEE7FEE7FEE7FEE7FEE7FEE786
:1062F000F0B595B0002415460F4608461E4601F03D
:10630000D1F9384623460895082205A91A9D099611
:106310000D950A948DF82C400C9401F01DFA9DF80F
:1063200014308DF81140DDE9061003F00302012A54
:10633000CDE9020127D0022A04D0384601F0B6F98F
:1063400015B0F0BDBDF81650C3F3C2038DF8103080
:10635000AD090826082D2C4628BF082433462246BE
:106360000EA9384601F0F8F92D1B214608AB02AA08
:106370000EA8264400F0A6FB002DEBD1384601F014
:1063800095F915B0F0BDBDF81460059DC6F38316F0
:10639000C3F3C204B2000EA9384608238DF810409A
:1063A000C5F3952501F0D8F908AB324628460EA969
:1063B000009302AB00F0E0FA384601F077F915B02F
:1063C000F0BD00BF704700BF00B583B0044B009321
:1063D000044A4023FFF78CFF03B05DF804FB00BFC5
:1063E000E9630200F824002038B50E480E4D03780A
:1063F0000E4CEB5C0025D2B2257053B90C3002F084
:106400007FF858B90A4B1B7813B12378002BFCD0C6
:1064100038BD043002F0ECFA0028F3D000F002FCA2
:10642000F0E700BFE0220020142B002038250020D8
:10643000F424002070B51348134A0378D35C88B065
:10644000DBB90C3001F0DEFF104D0FCD6C460FC4F0
:1064500095E80F0008AD062645F8206D84E80F008A
:1064600029460022074801F0C7FA08B100F0DAFB1C
:10647000074B00221A7008B070BD043002F038FAE1
:10648000E2E700BFE0220020142B0020DC8D020098
:10649000F4240020F0B5324C85B004F5836000F0A0
:1064A0003DFC04F2144000F039FCD4E9013703EA62
:1064B0000702D01C04EB800114F8200010F0040047
:1064C00044D003F1020C0E7806F00306012E654657
:1064D00035D0022E02F1030621D004EB86010028FC
:1064E000F1D104EB82020133D26801923B4004EB0C
:1064F000830302F00302012ADE6829D0022A23D195
:10650000BDF806309B090333360C05EB930515489F
:1065100000F010FC00B16560304605B0F0BD4B885E
:106520000CEB931307EA0302D11C03F1020C14F8DD
:106530002100654604EB810100F00400CFE70B88E1
:10654000C3F383136344EDE70026E0E79D1CC8E72F
:10655000BDF80430C3F38313360C1D44D7E700BFE6
:106560000C260020202A002021B9124B03EBC0008A
:1065700000687047104A0F49521AD20815D030B43B
:106580000E4D2B88834212D0002303E035F82340C0
:10659000844205D001339A42F8D1002030BC7047C4
:1065A00001EBC300006830BC7047104670470846D6
:1065B000F8E700BF90900200B8900200D8240020B5
:1065C000094B013903EBC00003290BD8DFE801F0C8
:1065D000020806040220704740797047007970472E
:1065E0000420704700207047909002002DE9F84386
:1065F000DFF8D890074600208846D9F8084000F018
:1066000059FBD9E90132D9F80060134401339B1BCF
:10661000012B56D809F21C450121284600F066FBE3
:10662000FFF738FF0146284600F060FBD9E9013248
:10663000D9F80010134401335B1A012BECD90A403E
:10664000033205230231002049F82230C9F8001036
:1066500000F038FB00211C4800F03EFB80F31000E6
:10666000731C234009EB830300043440033440EAE5
:106670001740D86019F8243067F3C50309F82430AF
:1066800039F824306FF3891329F8243059F824207D
:1066900068F39F221346012161F301036FF3820324
:1066A00049F8242009F8243099F820341BB906E071
:1066B00000F00EF818B1D9E900329A42F8D1BDE8DD
:1066C000F8833146BBE700BF282A00200C260020B3
:1066D0002DE9F047914C002384B0C4F81834BFF37F
:1066E0004F8FD4E9015605EA0602D31C04EB83015F
:1066F00014F82330580719D527680B7803F00303E3
:10670000012B43D0022B03D14B88023505EB9315A7
:1067100006EA0502D4F81804D31C04EB830128B957
:10672000AF4239D914F823305B07E6D404EB820278
:106730006B1CD2680192334004EB830302F0030226
:10674000DB680293022A05F1020700F08980012A22
:1067500026D0D4F810543DB12B6828469B68984742
:10676000EB681D68002DF7D16D486E4B6E49C01A5D
:10677000C008000440F00200FFF738FFD4E9003001
:10678000C01A18BF012004B0BDE8F0870B8802359D
:10679000C3F383131D44BBE7676004B0BDE8F08713
:1067A000BDF804206148C2F38313062B28BF0623DB
:1067B00063F3891202339900ADF8042000F030FF32
:1067C00080460028C5D000F06DFF0023082201A9F3
:1067D000404600F08DFFBDF8043013F4707F00F0E8
:1067E0009B806FF0010AAAEB050A082506EA07015B
:1067F00003312B46042204EB8101404600F078FF70
:10680000BDF8043007F101090AEB0902C3F3831351
:1068100093424F4605F10405E8D8D4F81834002B0C
:1068200064D1D4F8105465B1EB685A7928464146D2
:10683000002A57D02B681B689847EB681D68002D0D
:10684000F2D1404600F032FF002000F033FAD4F8D5
:1068500018340BB9C4F80490002000F033FA8DE727
:10686000BDF8063031484FEA93194D46502D28BFE8
:10687000502565F38F1305F10801ADF8063000F0DF
:10688000CFFE804600283FF464AF26EA070A0AF1EB
:10689000010A00F007FF4FEA8A0A0023082201A933
:1068A000404600F025FF55452BD9EBB2BAF1000F59
:1068B00020D006EA0701A3EB0A03033104EB8101B0
:1068C000DDB252460823404600F012FF2A460AF184
:1068D00008031749404600F00BFF09F1030907EBD5
:1068E00099099AE71D68002D9ED1AAE7404600F05D
:1068F000DDFE43E72A4608230D49404600F0F8FE36
:10690000EBE706EA0701033104EB81012A4608237D
:10691000404600F0EDFEE0E7B9467EE70C26002099
:10692000B0900200909002001C8E0200C8900200FD
:1069300018260020044BD3E900239A4201D0FFF728
:10694000C7BE0020704700BF0C26002038B5094B99
:10695000D3F81044012583F820544CB1E3685D71ED
:10696000236820465B689847E3681C68002CF5D1D3
:1069700038BD00BF0C2600202DE9F04784B01D462D
:106980000C9C002394F80C802373EB8881460E4600
:106990001746002B40D1297A05290ED06B7AA8889A
:1069A00073BB404B53F821A00021FFF7DDFD524699
:1069B00003463D49204600F00DFA062F09D8DFE8CE
:1069C00007F0046A4249525D33004946204600F010
:1069D00001FA2B7A052B05D06B7A5BB93349204637
:1069E00000F0F8F9204600F0E9F984F80C8004B0D2
:1069F000BDE8F0872E4A2F49204600F0EBF9EDE77D
:106A0000FFF7DEFD2C4B2B4953F82020204600F0E9
:106A1000E1F9297AA888C4E7254A00922749284A3B
:106A2000204600F0D7F9B6E7D6E90410D6E90023EE
:106A30000390D6E902070291CDE9000749462046B6
:106A400000F0C8F9C5E74946D6E90023204600F022
:106A5000C1F9BEE7B168D6E9002320460091494656
:106A600000F0B8F9B5E7D6E90201D6E900230191B3
:106A700000904946204600F0ADF9AAE7D6E9037137
:106A8000B068D6E900230291CDE9000749462046C7
:106A900000F0A0F99DE732684946204600F09AF9D7
:106AA00097E700BFA88E0200988E0200A48E020015
:106AB0008C8E0200948E0200348E0200748E0200CE
:106AC0006C8E0200082900D970472DE9F04F1D4651
:106AD000904600232A7B2B7385B0B8F806300392CA
:106AE00007460E46002B7BD198F80810052911D0D7
:106AF00098F80930B8F80400002B63D13C4B53F8E8
:106B000021400021FFF730FD22460346394928463F
:106B100000F060F9DFF8FCB0DFF8FC90002405E03D
:106B20003A5D013400F056F9082C09D0A6424946D6
:106B30002846F5D85946013400F04CF9082CF5D117
:106B40002D49DFF8D8B0DFF8D890284600F042F998
:106B500000240CE017F804A0BAF17E0F23D92E22EE
:106B600049462846013400F035F9082C08D0A642E1
:106B7000F0D859462846013400F02CF9082CF6D1FB
:106B800098F80830052B02D098F80930A3B91B49B2
:106B9000284600F01FF9284600F010F9039B2B73DC
:106BA00005B0BDE8F08F02F0C3F850445246437878
:106BB00013F0970FD3D0D3E7114A1249284600F0BB
:106BC00009F9E4E7FFF7FCFC0F4B0E4953F82020CE
:106BD000284600F0FFF898F80810B8F804008DE790
:106BE000074A009209490A4A284600F0F3F87BE771
:106BF000A88E0200988E0200648E0200A48E02000D
:106C00008C8E0200948E0200348E0200748E02007C
:106C10006C8E0200608E0200588E0200A08E020070
:106C2000688E020000B585B000230390194601AAC2
:106C300044F20100CDE9013300F004F805B05DF83D
:106C400004FB00BF10B572B6FFF780FEFFF772FEBF
:106C50000028FBD1104B114C1149E41AE40824041C
:106C600044F00100FFF7C2FC0E4B1B68DB0700D5A8
:106C700000BE44F002000C49FFF7B8FCBFF34F8F91
:106C80000A490B4BCA6802F4E0621343CB60BFF3BE
:106C90004F8F00BFFDE700BF90900200B090020050
:106CA000148F0200F0ED00E0208F020000ED00E004
:106CB0000400FA0572B6024A136801331360704784
:106CC000302A0020034A1368013B136003B962B6FF
:106CD000704700BF302A002050E8002F0B4640E8E4
:106CE000003C9CF0000FF7D11046704750E8003F81
:106CF00003EB010240E8002C9CF0000FF6D1104697
:106D0000704700BF50E8003FA3EB010240E8002CB1
:106D10009CF0000FF6D11046704700BF012350E8E9
:106D2000002F42EA030C40E800C191F0000FF6D1B9
:106D300060467047002350E800CF0CEA030240E8A9
:106D4000002191F0000FF6D16046704738B5044637
:106D50000020FFF7AFFFD4E900311A688A4215D945
:106D6000511E19602168A3680868258A12F8012C51
:106D7000E4681B1A0879DBB2984205FB024400D292
:106D80000B710020FFF79EFF204638BD0024F8E776
:106D900038B5054600200C46FFF78CFF2A681368BB
:106DA000591C1160E9682A8A641AB4FBF2F41C7059
:106DB0000020BDE83840FFF785BF00BF826842B1C0
:106DC00010B5044643690168006998470023A36031
:106DD00010BD70470EB400B582B0039929B102AA64
:106DE00004AB42F8043D00F0A9F802B05DF804EBF2
:106DF00003B070472DE9F04F924683B051450F46DE
:106E000005461E46DDE90CB2C0F092800B464FF0FD
:106E10000108B3FBFAF39A4508F10108F9D9B04526
:106E200038BFB04612F00109A96802D1BBF1000FCA
:106E300054D1012402E0013E0AFB04F4012EFAD8E9
:106E4000B7FBF4F08245F7D93B4E02E0A968B7FBE7
:106E5000F4F0335C2A680A2B04FB107702EB010E76
:106E600001F1010029D0A8608EF80030D5E9013188
:106E7000994202D32846FFF7A1FFB4FBFAF4002C95
:106E8000E4D1B9F1000F15D0BBF1000F12D0C3450A
:106E900010D92024AB682A68591CA960D454D5E9BC
:106EA00001329A420BF1FF3B14D2BBF1000F01D02B
:106EB000C345EFD103B0BDE8F08FA8604FF00D00DF
:106EC0005054D5E9011088421DD2296801EB000E0B
:106ED0000130C8E72846FFF771FFE6E7930722D4A1
:106EE0002024C345A5D92B684A1CAA605C54D5E967
:106EF000013199420BF1FF3B10D2BBF1000F98D04A
:106F0000C345F0D195E728460193FFF757FFAA68DC
:106F10002968019B501C01EB020EA4E72846FFF7ED
:106F20004DFFA968E9E7002E0CBF30242024D8E7E4
:106F30004FF0010873E700BF308F0200002900F016
:106F4000B9822DE9F04F054687B091460C460E7880
:106F5000DFF8C8A64FF00D0B13E0AB6828680A2EC7
:106F600003F1010200EB030100F04B82AA600E70F6
:106F7000D5E901329A4280F01B812678002E00F07C
:106F80001E810134002E00F01A81252EE5D1234602
:106F9000002713F8012B2D2A00F0E380302A00F09F
:106FA000E4802B2A00F0D4802A2A00F00D81A2F17F
:106FB0003006F1B2092903D97DE2A1F1300603467A
:106FC000184606EB860110F8012BA2F13004092CBB
:106FD00002EB4101F1D92E2A00F002814FF00008A6
:106FE000013301E013F8012B02F0FB0168291C4674
:106FF000F8D0253A532AC0D801A353F822F000BF95
:10700000EB7302007B6F02007B6F02007B6F02005C
:107010007B6F02007B6F02007B6F02007B6F0200C0
:107020007B6F02007B6F02007B6F02007B6F0200B0
:107030007B6F02007B6F02007B6F02007B6F0200A0
:107040007B6F02007B6F02007B6F02007B6F020090
:107050007B6F02007B6F02007B6F02007B6F020080
:107060007B6F02007B6F02007B6F02007B6F020070
:107070007B6F02007B6F02007B6F02007B6F020060
:107080007B6F02007B6F02007B6F02007B6F020050
:107090007B6F02007B6F02007B6F02007B6F020040
:1070A0007B6F02007B6F02007B6F02007B6F020030
:1070B0007B6F02007B6F02007B6F02007B6F020020
:1070C0007B6F02007B6F02007B6F0200CF730200B8
:1070D0007B6F02007B6F02007B6F02007B6F020000
:1070E0007B6F02007B6F02007B6F02007B6F0200F0
:1070F0007B6F02007B6F0200737102005573020008
:107100007B6F02007B6F02007B6F02007B6F0200CF
:10711000557302007B6F02007B6F02007B6F0200E1
:107120007B6F02007B6F02007B6F0200BD7202006A
:107130007B6F02007B6F0200357202007B6F0200E2
:10714000197202007B6F02007B6F0200CF73020096
:1071500047F004071C46234613F8012B2D2A7FF421
:107160001DAF47F001071C46F5E747F002071C4634
:10717000F1E7D9F800301A1DC9F800201E78AB6875
:107180000A2E0CD12A68591CA96002F803B0D5E96F
:107190000123934203D32846FFF710FEAB682A6809
:1071A000591CA960D654D5E901329A42FFF4E5AEE4
:1071B0002846FFF703FE2678002E7FF4E2AE2B7BF5
:1071C00023BB07B0BDE8F08FD9F80020111DC9F826
:1071D0000010166862782E2A04F102007FF4FEAED9
:1071E0005A78A2F13003092B00F2BD814FF000085C
:1071F00008EB880802EB480810F8012FA2F13003D1
:10720000092BA8F13008F3D90346E9E6284607B070
:10721000BDE8F04FFFF7D2BDD9F800301A1DC9F80C
:10722000002019680197434600960A222846FFF776
:10723000E1FDA2E6D9F800301A1DC9F80020D3F804
:107240000080FB0700F1E880B8F1000F00F0A18199
:10725000404601F0A0FD0746BE4215D9A6B1202147
:1072600000E08EB1AA682B68501CA8609954D5E93B
:1072700001329A4206F1FF3604D328460391FFF704
:107280009DFD0399BE42ECD108F1FF3818F8016F5B
:10729000002E3FF472AEAB6828680A2E03F101029B
:1072A00000EB030100F09081AA600E70D5E9013275
:1072B0009A42EBD32846FFF781FDE7E7D9F8002093
:1072C000131DC9F80030AB6829681768581C3022B4
:1072D000A860CA54D5E90123934280F0E6802A6869
:1072E000581C7821A860D154D5E90123934280F03D
:1072F000D7800F2F03D93A4612090F2AFCD84FF036
:1073000080560DE0AA6081F80080D5E901329A42EA
:1073100002D32846FFF752FD36093FF42EAEAB6884
:10732000B7FBF6F21AF802802868B8F10A0F06FBDC
:10733000127700EB030103F10102E3D1AA6000F828
:1073400003B0D5E901329A4280F049812B6899183F
:107350000132D7E7D9F800301A1DC9F800201968A2
:1073600081EAE173A3EBE173092B40F30E81AA4894
:107370000122A0FB03C3DB08092B02F10102F8DCA8
:107380004245134638BF4346039307F00203002EDD
:1073900040F09580002B00F0B780B8F1000F00F0AE
:1073A000F680F80740F1B0800029C0F2FF807A072C
:1073B00000F1C88007F00303022B00F0A780CDE99D
:1073C000006743460A222846FFF714FDD5E5D9F8A1
:1073D00000301A1DC9F8002019680197434600962D
:1073E00010222846FFF706FDC7E5AB682A68581C3F
:1073F0002521A860D154D5E901329A42FFF4BDADF0
:10740000D6E6AA6000F803B0D5E901329A423FD22D
:10741000296811440132A9E54146A1EB080311F89E
:10742000017BD7B1AB68D5F800C00A2F03F1010288
:107430000CEB030000F0AF80AA600770D5E90132C1
:107440009A42EAD328460391FFF7B8FC0399A1EBCF
:10745000080311F8017B002FE4D19E427FF68DAD29
:10746000202702E0002E3FF488ADA9682A68481C56
:10747000A8605754D5E90121914206F1FF3604D3A3
:1074800028460393FFF79AFC039BB342EAD174E5C5
:107490002846FFF793FCAB6829685A1C194465E538
:1074A0002846FFF78BFCAB6823E72846FFF786FCEE
:1074B000AB6814E770471846002623468BE5002981
:1074C00020DB7A071ED41BB1B8F1000F3FF46CAF7C
:1074D000F8073FF569AFBEB1039BB342BFF464AF99
:1074E0002023AA68501CA86028688354D5E90102AB
:1074F000824206F1FF3640D236B1039AB242F0D151
:10750000164651E7013EDEE700264DE7B8F1000FD1
:107510007FF455AF002E6AD0039BB342BFF44FAF48
:107520003023AA68501CA86028688354D5E901025A
:10753000824206F1FF3618D2002E58D0039AB2428A
:10754000EFD13CE7AA68531CAB602B682B20985402
:10755000D5E901329A42FFF42DAF28460491FFF796
:107560002DFC049926E7034638E52846CDE90413A7
:10757000FFF724FCDDE90413DEE72846CDE9041318
:10758000FFF71CFCDDE90413B6E70122F8E64646E6
:107590000AE7474660E6AA600CF803B0D5E9013275
:1075A0009A4226D22B689818013245E7AA68531CE4
:1075B000AB602B682D209854D5E901329A42C1F175
:1075C0000001FFF4F7AEC8E7AA6000F803B0D5E900
:1075D00001329A4217D229681144013264E62846E2
:1075E000FFF7ECFBA9682B684A1C19448AE60026C1
:1075F000E5E628460391FFF7E1FBA8682B680399AD
:10760000421C184418E72846FFF7D8FBAB682968E6
:107610005A1C194448E600BFCDCCCCCC308F0200B8
:107620002DE9F041058ACE1C043D2E440746B6FBE9
:10763000F5F6FFF78BFB78B3F6B24FF48073013E9B
:107640000446C5800760838027D08046002509E076
:107650006379AE4203F101036371C8F8000007606B
:1076600080461AD03846FFF771FB01350028EFD16C
:107670006679721E14D02346013082421B68FBD10A
:107680001F684EB1002523682146013538461C4647
:10769000FFF77EFBAE42F6D100242046BDE8F08124
:1076A0002768EFE704300121FFF720BBF8B501217F
:1076B00004460430FFF726FBC0B200B1F8BD66797E
:1076C000721E12D02346013082421B68FBD11F6814
:1076D000002EF3D0002523682146013538461C468C
:1076E000FFF756FBAE42F6D1F8BD2768F2E700BFC0
:1076F0002DE9F843C788467907FB06F6043E02EBFE
:10770000030C0446664503F1040015468846B0FBA9
:10771000F7F238BFF51A07FB120012B1013A2468DC
:10772000FCD13E1AAE4228BF2E469DB14FF0000953
:107730000430AD1B2044324608EB090101F018FB70
:10774000AF42B14424683E464FF0000028BF2E46A9
:10775000002DEDD1BDE8F8832DE9F843C7884679BF
:10776000154607FB06F6043E05EB030C1A1D66459D
:1077700004468846B2FBF7F038BFF51A07FB102124
:1077800010B101382468FCD17E1AAE4228BF2E46C3
:107790009DB14FF0000904312144AD1B324608EB86
:1077A000090001F0E5FAAF42B14424683E464FF0CB
:1077B000000128BF2E46002DEDD1BDE8F88300BFA3
:1077C00030B585B0057804798DF800508DF8044007
:1077D000457984688DF805508DF80640C568084ADB
:1077E000084B8DF80750D0E9044053F8213052F887
:1077F0002110CDE902406846984705B030BD00BF72
:10780000342A00203C2A00202DE9F04F80460778DA
:107810005A4C5B4D487B45F8273083B08B469146E8
:1078200044F8272068B9574AB9F1000F3B4659463A
:1078300008F1040008BF002203B0BDE8F04F00F0DB
:10784000CDBA0A68504EDFF844A14FF0A04302F5CC
:10785000E07240F20C6043F822004A6802F5E072E0
:10786000012443F8220008681F2884BF00F01F008D
:1078700003F5407301228240C3F808254B681F2B93
:107880008ABF424A4FF0A04203F01F0304FA03F3F9
:10789000C2F808350B684FF0A04503F5E07340F2DD
:1078A0000D6245F823204B6803F5E073264345F845
:1078B00023204FF48070B04701950025DBF80400C9
:1078C0001F288ABF53464FF0A04300F01F0CD3F887
:1078D000103598BF844623FA0CF3DB074FF0A04223
:1078E00048D4DBF800301F2B84BF524603F01F033F
:1078F00004FA03F3C2F80C354FF48070B047DBF89C
:10790000003003F01F021F2B04FA02F204FA03F105
:107910004FF4807024D9CAF808250135B047092DE5
:10792000CCD1DBF804001F288ABF184A4FF0A042D0
:1079300000F01F00012303FA00F0C2F80C054FF419
:107940008070B047DBF804201F2A86BF02F01F02B8
:107950000E484FF0A04001239340C0F8083562E77D
:10796000019B4FF48070C3F808150135B047092D0D
:10797000A4D1D6E7002DD6D155E700BF3C2A002080
:10798000342A0020C1770200408F0200000300501B
:1079900030B585B0047845688DF80040D0E90240E4
:1079A000064A074B039053F8213001958DF80840A3
:1079B00052F821106846984705B030BD442A00208F
:1079C0004C2A002030B585B0047845688DF8004019
:1079D000D0E90240064A074B039053F82130019545
:1079E0008DF8084052F821106846984705B030BD20
:1079F000442A00204C2A00202DE9F043DFF874804F
:107A000006784B7F08F806300D46074696460FCDA0
:107A100089B06C460FC495E80F003D78DFF85890A8
:107A2000DFF858C018F8055049F826E084E80F0040
:107A30004CF82600049665B1BEF1000F0B4A69466A
:107A400007F1040008BF002200F04EFE09B0BDE8B7
:107A5000F083BEF1000F064A694607F10C0008BF2B
:107A6000002200F0DDFB09B0BDE8F083917902004F
:107A7000C5790200142B00204C2A0020442A002043
:107A8000014B1B68184700BF542A002038B50C4B27
:107A9000984201D0002038BD00200D46FFF70AF9BA
:107AA000084B1C7924B10020FFF70CF9112038BDD8
:107AB000012220461D601A71FFF704F9204638BDE7
:107AC00000200040542A0020034B984203D1034B6E
:107AD00000221A601A71704700200040542A0020CA
:107AE000F0B54FF040238DB0D3F82421BAB1002275
:107AF000C3F82421D3F824210592059AD3F8042150
:107B00006AB9564A0221D06BC3F80803D163D26B1D
:107B1000C3F8042301221A625A610DB0F0BD4FF080
:107B200040244E4DD4F80431002B30D00023C4F84B
:107B3000043105F140070FCF07AED4F804C13F6808
:107B4000CDF810C00FC695F86230049A376095F8EA
:107B50006420002B36D095F84030012B75D0D4F836
:107B60004C150891022B73D1D4F83C3509934FF092
:107B700040230021C3F86011D3F8600102900298FD
:107B8000C3F85C11D3F85C310393039B27E0C4F87E
:107B90004831D4F8482195F840300192019A002BE1
:107BA0003AD105F140070FCF07AE0FC695F8642014
:107BB0003B683360E2B92A4BC4F80022EA63C4F898
:107BC000083315E0C4F86031D4F8601102910299CD
:107BD000C4F85C31D4F85C310393039B42B94FF095
:107BE000402300211E48C3F80012E963C3F80803CC
:107BF0004FF04021D1F8C434C1F8C43499071DD5E1
:107C000001238DF818300AB985F86320D5E90D31C4
:107C100006A898470DB0F0BD4FF4007140F2022263
:107C20000F4BC4F80012EA63C4F80833EB6BC4F8D6
:107C300004330123A36023620DB0F0BD13F00403ED
:107C400018BF02238DF81830DDE7D4F83C350893CF
:107C50004FF04023D3F84C3588E700BF5C2A002062
:107C600002029C01F0B55A4BD3F824218DB0BAB171
:107C70000022C3F82421D3F824210592059AD3F8D1
:107C800004216AB9534A02219068C3F8080391603D
:107C90009268C3F8042301221A625A610DB0F0BD44
:107CA0004B4C4C4DD4F80431002B2ED00023C4F89B
:107CB000043105F10C070FCF07AED4F804C13F68BB
:107CC000CDF810C00FC695F82E30049A376095F89D
:107CD0003020002B33D02B7B012B71D0D4F84C15E6
:107CE0000891022B6FD1D4F83C15394B0991002132
:107CF000C3F86011D3F8600102900298C3F85C11D8
:107D0000D3F85C310393039B26E0C4F84831D4F8E0
:107D100048212B7B0192019A002B38D105F10C07E9
:107D20000FCF07AE0FC695F830203B683360DAB945
:107D3000294BC4F80022AA60C4F8083314E0C4F840
:107D40006031D4F8601102910299C4F85C31D4F822
:107D50005C310393039B3AB91D4B1F480021C3F8C4
:107D60000012A960C3F808031949D1F8C434C1F856
:107D7000C43499071DD501238DF818300AB985F848
:107D80002F20D5E9003106A898470DB0F0BD4FF47B
:107D9000007140F20222104BC4F80012AA60C4F82D
:107DA0000833AB68C4F804330123A36023620DB029
:107DB000F0BD13F0040318BF02238DF81830DDE77F
:107DC000D4F83C350893024BD3F84C158DE700BF2F
:107DD000003000405C2A002002029C012DE9F84F8F
:107DE0000779DFF80881342505FB07F508EB050660
:107DF00096F82D40002C65D19946384B0C468246AA
:107E000053F8271000689346FFF740FE00285CD126
:107E100048F805B0B060C6F8049086F82F0086F8E0
:107E20003000637B86F8323023681F2B86BF03F057
:107E30001F032B4A4FF0A04203F5E07340F20C61A0
:107E400042F8231063681F2B86BF03F01F03244AE8
:107E50004FF0A04203F5E07340F20C6142F82310AA
:107E6000D4E90021DAF80030C3F80825C3F80C156E
:107E7000A268C3F82425BBF1000F1BD0DAF800106C
:107E8000237B090B4AB25B01002ADBB220DB02F143
:107E9000604202F5614282F80033DAF80030114C9A
:107EA0001B0B5AB2520903F01F03012101FA03F31D
:107EB00044F82230342303FB0783012283F82D206A
:107EC000BDE8F88F0820BDE8F88F1120BDE8F88FD5
:107ED000054A01F00F010A441376DEE74C8F0200D9
:107EE0000003005000E100E0FCEC00E05C2A002010
:107EF000037906490268342000FB0313022006219F
:107F000083F82D00C2F80015704700BF5C2A0020DE
:107F10002DE9F04F02F060448BB09646B4F1005F5B
:107F20004FF00002CDF81A20CDF81620CDF81E2013
:107F3000CDF82220ADF8262057D10279DFF820B104
:107F4000046801924FF0340808FB02F89A460BEBE4
:107F5000080C424BC4F808339CF82F3003F0FF059F
:107F6000002B46D14FF001098DF81510CDF818A05F
:107F7000CDF820E08DF8149005AF0E460FCF8CF8A9
:107F80002F90C4F88865C4F80451D4F804610296AF
:107F90000CF10C060FC6029BC4F82451D4F824310E
:107FA0000393396803988CF8305040F202234FF461
:107FB0008052C4F850553160C4F84055C4F834E5D7
:107FC000C4F838A5C4F80022CCF80830C4F82090D2
:107FD000C4F800905BF808309BB1DCF80830C4F8B6
:107FE000043328460BB0BDE8F08F10200BB0BDE87D
:107FF000F08FDCF80830C4F8043311200BB0BDE872
:10800000F08F4A4602E0D4F82411E1B9D4F80431E3
:10801000002BF8D0019A342303FB02BBD4F8C434FC
:10802000C4F8C43400228BF82F20ABB113F0020F38
:1080300048F2012048F2022208BF032013F0040F87
:1080400018BF1046CEE7C4F82431D4F82431049385
:10805000049B22626261D9E71846C3E702029C01D1
:108060005C2A002030B56C4AD2F8043399058BB0F5
:1080700066D5D2F82431002B62D00023C2F8243117
:10808000D2F8243103934FF40171644B0398C2F882
:10809000081393F8291009B9012151605E490222A1
:1080A0008DF81820D1F88024C1F880249869D96807
:1080B00009920022CDE90710C3E90622D3E9001492
:1080C00006A8A047544AD2F81C31BBB1534B186ADA
:1080D0005969884269D350480022C0F81C21D0F861
:1080E0001C010190019849B198688DF818200891F9
:1080F0005A610790D3E9001206A89047464AD2F881
:108100004431DBB10021454BC2F84411D2F844019F
:1081100093F829100090009809B1012111609A6923
:1081200062B10022586AD9689A610122CDE907102C
:108130008DF8182006A8D3E9001290470BB030BD87
:10814000354AD2F804335B07BCD5D2F80831002B8E
:10815000B8D0324B996900293CD00021C2F80811EF
:10816000D2F8081104910499D868596AD2F81825F0
:1081700042545A6A996901325A625A6A8A42A1D1B2
:10818000DA691968002A2ED0D8685D6A1C699A617C
:10819000079000220120DC60DA615A628DF8180035
:1081A00008955B6806A898478CE793F8280000F0CC
:1081B000FF0400288FD1C2F81C41D2F81C11029193
:1081C00002999C68186A196A205C01311962C2F828
:1081D0001C0593E7C2F80811D2F80801059005982C
:1081E000D2F81825C9E793F8292012B90A4A0120C4
:1081F0005060094A4FF40170C2F80803586ADA68FF
:1082000008900024012007928DF818005A689C619C
:1082100006A8904756E700BF00200040C42A00206F
:108220002DE9F041714F06792C2505FB067582B0CA
:1082300095F82A30002B40F09A800D4604466C4990
:1082400000689046FFF722FC002840F08C802B68E5
:10825000591C19D01F2B4FF001028ABF65494FF0FE
:10826000A04103F01F0302FA03F3C1F808352B689D
:108270001F2B86BF03F01F035E4A4FF0A04203F599
:10828000E073032142F823106B685A1C0BD01F2B9C
:1082900086BF03F01F03574A4FF0A04203F5E07377
:1082A000002142F823102368AA69C3F82425297DF8
:1082B0006B7D22680B43C2F86C35D5E90012236848
:1082C000C3F81425C3F80C152B7D012B53D02C2398
:1082D00003FB06F3FA18C2F804802A69FA50B8F1D1
:1082E000000F2DD022682B7F434D0021C2F81C11B6
:1082F000D2F81C2100922268DDF800C0C2F84411B7
:10830000D2F84411226801910199C2F804532168FE
:10831000090B4AB25B01002ADBB261DB02F1604269
:1083200002F5614282F800332368344D1B0B5AB2C8
:10833000520903F01F03012101FA03F345F822302B
:108340002C23246803FB0673002204250121C4F8B2
:10835000005583F82A10C3E9062283F829205A61C0
:1083600002B0BDE8F081112002B0BDE8F081082024
:1083700002B0BDE8F081AB68591C0BD01F2B86BF43
:1083800003F01F031B4A4FF0A04203F5E0730021E6
:1083900042F82310EB685A1C1BD01F2B4FF0010230
:1083A0008ABF14494FF0A04103F01F0302FA03F300
:1083B000C1F80835EB681F2B88BF03F01F0303F5D6
:1083C000E0738CBF0B4A4FF0A042032142F8231008
:1083D000EB682268A968C2F80835C2F8101576E77C
:1083E000074A01F00F010A4413769DE7C42A0020D2
:1083F00065800200000300508000020000E100E000
:10840000FCEC00E0F8B53A4F047902682C2303FB3A
:10841000047300215B68C2F8001583B10368354A14
:10842000C3F808230368344D1B0B5AB2520920329B
:1084300003F01F03012101FA03F345F8223003681A
:108440004FF0FF3CD3F80C65D3F81455D3F808254A
:10845000D3F81015C3F814C5C3F80CC503686645F6
:10846000C3F808C5C3F810C50CD01F2E86BF06F090
:108470001F06224B4FF0A04306F5E0764FF0020CAA
:1084800043F826C06E1C0BD01F2D86BF05F01F05BC
:108490001A4B4FF0A04305F5E075022643F825601E
:1084A0004D1C0BD01F2986BF01F01F01134B4FF04D
:1084B000A04301F5E071022543F82150531C0BD075
:1084C0001F2A86BF02F01F020C494FF0A04102F59F
:1084D000E072022341F822300068FFF7F5FA2C23FE
:1084E00003FB0474002384F82A306360F8BD00BFE6
:1084F000C42A00208402020000E100E000030050D2
:10850000F0B5314E05792C2303FB056385B05C691A
:10851000002C53D11C62996083F828405A6102688C
:10852000C2F81C41D2F81C11026802910121029F7D
:1085300091600268D3F808C0C2F81C41D2F81C113F
:1085400001910199D3F820E0196A5F681CF80EE0E8
:1085500001311962C2F81CE517B1204605B0F0BD23
:108560001A6A5C690168944203D819E093F82820DC
:108570003ABBD1F81C21002AF8D0C1F81C71D1F8FF
:108580001C210392039AD3F820E01A6A1CF80EE02B
:1085900001321A62C1F81CE51A6AA242E9D30168E5
:1085A000D1F81C31002BFBD00123CB6000202C2301
:1085B00003FB056500236B6105B0F0BD112005B01C
:1085C000F0BD0F20F3E700BFC42A0020F0B5444BF4
:1085D000D3F8242189B0002A52D00021C3F82411F5
:1085E000D3F82421029202228DF81020029AD3F8A7
:1085F00080043C4AC3F880040790D3F83C05D36854
:108600000690C2E9061105931168536804A89847BB
:10861000334BD3F84421BAB10021324AC3F8441194
:10862000D3F8444190690194019C68B1D3F83C357A
:10863000D06806930123C2E9061105908DF8103029
:1086400004A8D2E900139847254BD3F82021AAB1FA
:108650000021C3F82011D3F82001224A009000988D
:10866000506958B1D3F84C05936806908DF81010F6
:108670005161059304A8D2E90013984709B0F0BDF1
:10868000D3F810110029C3D0C3F81021D3F810116A
:108690001448039103998169D3F83C458C42B7D1C2
:1086A000C569C768D0E900168DB1D3F800C28561ED
:1086B0002CF02005C261C3F800520369C360012297
:1086C000CDE905748DF8102004A8B047A0E7012378
:1086D0008561CDE905748DF8103004A8B04797E79F
:1086E00000200040F02A00202DE9F04307797A4E5F
:1086F0004FEAC70808EB070306EB830385B093F83E
:108700002030002B40F0A8800D46044673490068D5
:108710009146FFF7BBF9002840F09A802B68591C5E
:1087200019D01F2B4FF001028ABF6D494FF0A041B5
:1087300003F01F0302FA03F3C1F808352B681F2B5F
:1087400086BF03F01F03664A4FF0A04203F5E073B3
:10875000032142F823106B685A1C0BD01F2B86BFD5
:1087600003F01F035E4A4FF0A04203F5E0730021BF
:1087700042F823102368AA69C3F82425297D6A7D5D
:1087800023680A43C3F86C25D5E900312268C2F892
:108790000C35C2F814152B7D012B61D008EB0702B4
:1087A0009200B318C3F804902B69B350B9F1000FCD
:1087B0003DD021682B7F4B4D0022C1F81021D1F80C
:1087C000101100912168DDF800C0C1F82021D1F816
:1087D000201101912168DDF804C0C1F82421D1F8ED
:1087E000241102912168DDF808C0C1F84421D1F8B4
:1087F0004411226803910399C2F804532168090BBC
:108800004AB25B01002ADBB25FDB02F1604202F593
:10881000614282F800332368334D1B0B5AB2520970
:1088200003F01F03012101FA03F345F82230474406
:10883000226806EB8706002301240821C2F80015F0
:1088400086F82040C6E90633736105B0BDE8F083C1
:10885000112005B0BDE8F083082005B0BDE8F08325
:10886000AB68591C0BD01F2B86BF03F01F031C4A9B
:108870004FF0A04203F5E073002142F82310EB68AB
:108880005A1C1BD01F2B4FF001028ABF14494FF016
:10889000A04103F01F0302FA03F3C1F80835EB68A7
:1088A0001F2B88BF03F01F0303F5E0738CBF0C4A36
:1088B0004FF0A042032142F82310EB682268A96818
:1088C000C2F80835C2F8101568E7084A01F00F0130
:1088D0000A4413769FE700BFF02A0020CD850200EE
:1088E000000300501003020000E100E0FCEC00E097
:1088F000F8B507793A4C0268FE00F31904EB8303DC
:1089000000215B68C2F8001583B10368354AC3F8DB
:1089100008230368344D1B0B5AB25209203203F06E
:108920001F03012101FA03F345F8223003684FF0D9
:10893000FF3ED3F80CC5D3F81455D3F80825D3F867
:108940001015C3F80CE5C3F814E50368F445C3F843
:1089500008E5C3F810E50DD0BCF11F0F86BF0CF081
:108960001F0C224B4FF0A0430CF5E07C4FF0020EA1
:1089700043F82CE06B1C0CD01F2D86BF05F01F05A3
:108980001A4B4FF0A04305F5E0754FF0020C43F889
:1089900025C04D1C0BD01F2986BF01F01F01134BB2
:1089A0004FF0A04301F5E071022543F82150531C1C
:1089B0000BD01F2A86BF02F01F020C494FF0A041C6
:1089C00002F5E072022341F822303E4404EB8604B3
:1089D0000068FFF779F8002384F820306360F8BD61
:1089E000F02A00201003020000E100E00003005024
:1089F00001F06043B3F1005F2CD1F0B40579244E4F
:108A0000EF007C1906EB840482B0636923BB6261CA
:108A1000A1600268C2F82031D2F820C10268CDF806
:108A200004C0DDF804C0C2F85831D2F858210092D1
:108A30000268DDF800C0D4F814C0C2F84415C2F8CA
:108A400048C502680121916062684AB1184602B0C7
:108A5000F0BC704710207047112002B0F0BC704786
:108A6000036800E08AB9D3F82011D3F8582100290F
:108A7000F8D0002A14BF0F2000207B1906EB8303D7
:108A800000225A6102B0F0BC70470F20F5E700BF2A
:108A9000F02A002070B584B00021152003910B4608
:108AA0000A4614264FF0CC75022401906946074807
:108AB000009602958DF80C40FEF7A6FE08B1FEF771
:108AC000B1F80348FFF714FA04B070BD6C8F0200D0
:108AD000708F020030B583B0FFF7DCFF064D012434
:108AE0002146013401230DF107022846E4B2FFF7C5
:108AF0000FFA802CF4D1FEE7708F020010B44FF013
:108B000080414FF080520020C1F80C015E4BC1F84B
:108B10001001C1F83805D2F80414C3F82015D2F8B2
:108B20000814C3F82415D2F80C14C3F82815D2F889
:108B30001014C3F82C15D2F81414C3F83015D2F859
:108B40001814C3F83415D2F81C14C3F84015D2F821
:108B50002014C3F84415D2F82414C3F84815D2F8E9
:108B60002814C3F84C15D2F82C14C3F85015D2F8B9
:108B70003014C3F85415D2F83414C3F86015D2F881
:108B80003814C3F86415D2F83C04C3F86805D2F869
:108B900040043E49C3F86C050968D2F84424C3F880
:108BA0007025082924D04FF08043D3F80024D20741
:108BB00044BF6FF00102C3F80024354AD2F8883070
:108BC00043F47003C2F88830BFF34F8FBFF36F8F49
:108BD0004FF01023D3F80022002A23DBD3F804320D
:108BE000002B1FDB2B4B2C4A1A605DF8044B70479F
:108BF0002A4B1B68002BD6D129482A4A2A4C0460EC
:108C00002A492B4BFB20C2F818050A681B68294823
:108C100022F00F0203F00F0313434FF400720B60B6
:108C20000260C0E7244B0122C3F80425D3F80024D6
:108C3000002AFBD04FF0102312221F49C3F8002254
:108C4000D1F80034002BFBD04FF0102212211A4B28
:108C5000C2F80412D3F80024002AFBD000221649DF
:108C6000C3F80425D1F80034002BFBD0BFF34F8F9D
:108C70000749124BCA6802F4E0621343CB60BFF3AA
:108C80004F8F00BFFDE700BF00C000403001001063
:108C900000ED00E0FC2200200090D0033401001021
:108CA0008C56004000F0004048810300E40E004074
:108CB000580200104096024000E001400400FA050E
:108CC00008B5074B044613B10021AFF30080054BF4
:108CD0001868836A03B19847204600F071F800BF16
:108CE000000000007C8F020070B50D4E0D4CA41BDF
:108CF000A4100025A54209D10B4E0C4C00F062F8DF
:108D0000A41BA4100025A54205D170BD56F825303E
:108D100098470135EEE756F8253098470135F2E7D8
:108D2000D0240020D0240020D0240020D4240020EF
:108D3000044B054A1B681B6A002B08BF1346D3F877
:108D4000EC007047002300206423002082B001B9AA
:108D500001A942B14BB113780B601278101C18BFF7
:108D6000012002B070471046FBE76FF00100F8E702
:108D700010B5431E0A44914200D110BD11F8014BB9
:108D800003F8014FF7E702440346934200D17047CE
:108D900003F8011BF9E7034613F8012B002AFBD166
:108DA000181A0138704749B1FF2A85BF8A2303602A
:108DB0000A704FF0FF3098BF012070470846704797
:108DC000FEE700BFF8B500BFF8BC08BC9E46704780
:108DD000F8B500BFF8BC08BC9E467047FFFFFFFF18
:108DE000FFFFFFFFFFFFFFFFFFFFFFFF000000008F
:108DF000000000000000D60106010000C963020067
:108E000035640200C5630200756172745F6C6F6740
:108E10005F6261636B656E64000000004261636BBA
:108E2000656E647320666C7573686564000000008D
:108E3000617070008C8E0200BC8E02006C8E02008D
:108E4000C48E0200CC8E0200D48E0200DC8E0200A2
:108E5000E48E0200EC8E0200202530327800000003
:108E6000202020007C000000256300001B5B313BBC
:108E700033316D0025734C6F67732064726F7070AF
:108E80006564202825642925730D0A001B5B306D5D
:108E900000000000257300003C25733E2025733A36
:108EA000200000000D0A000000000000F48E020007
:108EB000FC8E0200048F02000C8F02001B5B313B12
:108EC00033306D001B5B313B33326D001B5B313B3C
:108ED00033336D001B5B313B33346D001B5B313B27
:108EE00033356D001B5B313B33366D001B5B313B13
:108EF00033376D006572726F720000007761726EB9
:108F0000696E6700696E666F0000000064656275D7
:108F100067000000466174616C206572726F7200B8
:108F200053797374656D2072657365740000000079
:108F3000303132333435363738394142434445468F
:108F40000338FDD87047000050525300657C020082
:108F5000E17A02005457494D000000005541525437
:108F60000000000055415254450000000000000080
:108F70000030004000000000010000000423002039
:108F80004300504F534958002E000020202020203D
:108F900020202020282828282820202020202020A9
:108FA0002020202020202020202020881010101099
:108FB00010101010101010101010100404040404ED
:108FC0000404040404101010101010104141414119
:108FD0004141010101010101010101010101010101
:108FE0000101010101011010101010104242424213
:108FF00042420202020202020202020202020202D1
:1090000002020202020210101010200000000000F4
:109010000000000000000000000000000000000050
:109020000000000000000000000000000000000040
:109030000000000000000000000000000000000030
:109040000000000000000000000000000000000020
:109050000000000000000000000000000000000010
:109060000000000000000000000000000000000000
:1090700000000000000000000000000000000000F0
:1090800000000000000000000000000000000000E0
:10909000488F020000000000548F02000000000012
:1090A0005C8F020000000000648F020000000000DE
:0890B000308E020000000303F2
:1090B800FC8D020000000000088E0200F42200204F
:1090C8003C250020042600200C26002044250020F2
:0490D800180000007C
:0890DC0064D1FF7F01000000D8
:1090E40000000000002000400000000000200040BC
:1090F4000000000000000000FF0000000090D0030A
:109104000423002000000000000000000000000014
:10911400000000000000000000000000000000004B
:10912400000000000000000000000000000000003B
:10913400000000000000000000000000000000002B
:10914400000000000000000000000000000000001B
:10915400000000000000000000000000000000000B
:1091640000000000430000000000000000000000B8
:1091740000000000000000000000000000000000EB
:109184000000000043000000000000000000000098
:1091940000000000000000000000000000000000CB
:1091A4000000000043000000000000000000000078
:1091B40000000000000000000000000000000000AB
:1091C4000000000043000000000000000000000058
:1091D400000000000000000000000000000000008B
:1091E4000000000043000000000000000000000038
:1091F400000000000000000000000000000000006B
:109204000000000043000000000000000000000017
:10921400000000000000000000000000000000004A
:1092240000000000430000000000000000000000F7
:10923400000000000000000000000000000000002A
:1092440000000000A78D02004D8D02000000000008
:109254008A8F0200888F0200898F0200898F0200A2
:10926400898F0200898F0200898F0200898F020092
:10927400898F0200898F0200898F0200FFFFFFFFA0
:10928400FFFFFFFFFFFFFFFFFFFF0000010041534F
:1092940043494900000000000000000000000000F5
:1092A4000000000000000000000000000000415326
:1092B40043494900000000000000000000000000D5
:1092C400000000000000000000000000000000009A
:0892D4002562020001620200A4
:04000003200062B5C2
:00000001FF
