:1000000000000420B5020000DD020000255B0000B6
:10001000E1020000E3020000E50200000000000031
:10002000000000000000000000000000E7020000E7
:10003000E902000000000000EB020000ED020000F9
:1000400065B20000EF020000B1B30000EF02000053
:10005000EF020000EF02000081AB0000EF020000A1
:10006000EF020000EF020000EF020000EF020000CC
:10007000EF020000EF020000EF020000EF020000BC
:10008000EF020000ED1D0000EF020000EF02000093
:100090008D1E0000EF020000EF020000EF020000E2
:1000A000EF020000EF020000EF020000EF0200008C
:1000B000EF020000EF02000000000000000000005E
:1000C000EF020000EF020000EF020000EF0200006C
:1000D000EF020000EF020000EF02000025DF000049
:1000E000EF020000EF020000EF020000000000003D
:1000F00000000000EF02000000000000EF0200001E
:1001000000000000000000000000000000000000EF
:1001100000000000000000000000000000000000DF
:1001200000000000000000000000000000000000CF
:1001300000000000000000000000000000000000BF
:1001400000000000000000000000000000000000AF
:10015000000000000000000000000000000000009F
:10016000000000000000000000000000000000008F
:10017000000000000000000000000000000000007F
:10018000000000000000000000000000000000006F
:10019000000000000000000000000000000000005F
:1001A000000000000000000000000000000000004F
:1001B000000000000000000000000000000000003F
:1001C000000000000000000000000000000000002F
:1001D000000000000000000000000000000000001F
:1001E000000000000000000000000000000000000F
:1001F00000000000000000000000000000000000FF
:1002000010B5054C237833B9044B13B10448AFF350
:1002100000800123237010BD0803002000000000AF
:10022000C82E010008B5034B1BB103490348AFF3C7
:10023000008008BD000000000C030020C82E010053
:10024000154B002B08BF134B9D46A3F5803A0021A8
:100250008B460F461348144A121A0FF099FA0F4BA7
:10026000002B00D098470E4B002B00D09847002061
:10027000002104000D000D48002802D00C48AFF307
:1002800000800FF019FA200029000EF079FF0FF01E
:10029000FFF900BF0000080000000420000000007B
:1002A00000000000080300200C15002000000000E2
:1002B000000000000649074A074B9B1A03DD043B78
:1002C000C858D050FBDC0FF001F9FFF7B9FF000070
:1002D000583001000000002008030020FEE7FEE780
:1002E000FEE7FEE7FEE7FEE7FEE7FEE7FEE7FEE7E6
:1002F000F0B595B0002415460F4608461E4609F095
:1003000079FD384623460895082205A91A9D0996C5
:100310000D950A948DF82C400C9409F0E5FD9DF89C
:1003200014308DF81140DDE9061003F00302012AB4
:10033000CDE9020127D0022A04D0384609F05EFD3B
:1003400015B0F0BDBDF81650C3F3C2038DF81030E0
:10035000AD090826082D2C4628BF0824334622461E
:100360000EA9384609F0C0FD2D1B214608AB02AA94
:100370000EA8264401F0A6FB002DEBD1384609F06B
:100380003DFD15B0F0BDBDF81460059DC6F38316A4
:10039000C3F3C204B2000EA9384608238DF81040FA
:1003A000C5F3952509F0A0FD08AB324628460EA9F5
:1003B000009302AB01F0E0FA384609F01FFD15B0DA
:1003C000F0BD00BF704700BF00B583B0044B009381
:1003D000044A4023FFF78CFF03B05DF804FB00BF25
:1003E000E90300002803002038B50F480F4D0378BB
:1003F0000F4CEB5C0025D2B2257053B90C300BF0DA
:1004000041FB58B90B4B1B7813B12378002BFCD060
:1004100038BD04300BF050FF0028F3D0064A5321BA
:1004200001F060FCEEE700BF000000202C1400206B
:1004300068030020240300205404010070B5144810
:10044000144A0378D35C88B0EBB90C300BF072FA25
:10045000114D0FCD6C460FC495E80F0008AD062670
:1004600045F8206D84E80F002946002208480AF06C
:1004700061FA18B1094A432101F034FC084B00220B
:100480001A7008B070BD04300BF06CFEE0E700BFDE
:10049000000000202C140020280401005404010056
:1004A00024030020064B8B6004284FF00003CB6030
:1004B0004B609CBF034B53F820300B60704700BF6C
:1004C000EC06010010070100C368DB6800225A71C6
:1004D000704700BFC368DB6801225A71704700BFD4
:1004E00030B40E4B0E4D0F4CED1A00222D09C1E910
:1004F0000242C1E900220BD003EB0515DC68247928
:10050000FF2C02D0904205D001321033AB42F5D11E
:1005100030BC70479B680B6030BC7047B82F01003F
:10052000D82F0100240701000129034604D0816867
:10053000D1F84811890704D500221846114608F061
:10054000D7BB00B5D2E90031054A83B0CDE900211F
:10055000044A022106F0DAFF03B05DF804FB00BF95
:100560006C050100600501008368D3F848319B07E2
:1005700033D42DE9F0471B4C1B4E361B360982B095
:1005800028D00746DFF868A0DFF86890DFF86880B9
:1005900004EB06160CE06D79CDF804C0002D0CBFFD
:1005A00055464D460095103406F0B0FFA64211D0D6
:1005B000D4E902E595F804C0BCF1FF0F734642464A
:1005C0004FF008013846E6D1084A103406F09EFF85
:1005D000A642EDD102B0BDE8F0870022114608F036
:1005E00087BB00BFB82F0100D82F0100980501007C
:1005F0008C05010084050100B80501008368D3F86B
:1006000048319B0703D4044A022106F07FBF002231
:10061000114608F06DBB00BFDC0501008368D3F80C
:1006200048319B0703D4044A022106F06FBF002221
:10063000114608F05DBB00BFDC050100F0B5344C8D
:1006400085B004F5836005F03DFC04F2144005F02C
:1006500039FCD4E9013703EA0702D01C04EB80011E
:1006600014F8200010F0040042D003F1020C0E78C0
:1006700006F00306012E654635D0022E02F1030670
:1006800021D004EB86010028F1D104EB8202013372
:10069000D26801923B4004EB830302F00302012A7B
:1006A000DE682ED0022A25D1BDF806309B0903331F
:1006B000360C05EB9305174805F010FC00B165609A
:1006C000304605B0F0BD4B880CEB931307EA0302EC
:1006D000D11C03F1020C14F82100654604EB8101E2
:1006E00000F00400CFE70B88C3F383136344EDE706
:1006F0009D1CCAE708494FF4BF7005F0EFFA0026C9
:10070000D9E7BDF80430C3F38313360C1D44D2E798
:100710003C04002050080020F00501002DE9F041C4
:100720000F4C104D52F8046C2D1B2D0907460FD0AD
:1007300004EB051502E01034AC4209D0A168304644
:100740000FF05AF80028F6D1E3685871BDE8F0813F
:1007500033463846044A0221BDE8F04106F0D6BED1
:10076000B82F0100D82F0100480501002DE9F04104
:10077000104C114D52F8046C2D1B2D09074610D05A
:1007800004EB051502E01034AC420AD0A1683046F3
:100790000FF032F80028F6D1E36801225A71BDE863
:1007A000F08133463846054A0221BDE8F04106F0A3
:1007B000ADBE00BFB82F0100D82F010048050100D1
:1007C00070B4104A104E114C921B0023D208C1E99C
:1007D00002434B600CD00E4D2C88A04204D10CE09B
:1007E00035F82340A04206D001339A42F8D10022C6
:1007F0000A6070BC704706EBC30632680A6070BCC2
:10080000704700BFB82F0100202F0100EC06010047
:10081000500200202DE9F04FCB683E4EDFF82091CA
:100820005B79A6EB090685B08B46F6088046002B5F
:100830006BD0394A394B0821404606F067FE384AEA
:100840000821404606F062FE76B3364DDFF8F4A08C
:10085000B70000240023EA5AA2423AD004339F4250
:10086000F9D15146002335F82320A24241D001336B
:100870009E42F8D100208446D646002335F8232036
:10088000A24223D001339E42F8D1002384450ED8E2
:10089000254A0292CDE9001E0134244A082140462F
:1008A00006F034FEA642D5D105B0BDE8F08F204A4F
:1008B0000292CDE9001E01341C4A0821404606F090
:1008C00025FEB442C6D105B0BDE8F08F59F83330EB
:1008D000DCE7DBF80C2017491279595802EB420289
:1008E000072393400B40D340DBB2134A52F8231046
:1008F000B8E709EBC30393F806C00F4B6046032823
:1009000028BF032053F820E0B7E70C4A022106F085
:10091000FDFD8EE7B82F01005C06010050060100C6
:100920007C06010050020020D8050100BC06010031
:10093000D40601009C020020FC0601003C060100D8
:10094000202F01003406010013460A46C168FFF754
:1009500061BF00BF2DE9F047124C134D52F8046CF3
:100960002D1B2D09804615D01746894604EB051529
:1009700002E01034A5420DD0A16830460EF03CFFD5
:100980000028F6D13B464A4621464046BDE8F0479E
:10099000FFF740BF33464046044A0221BDE8F04716
:1009A00006F0B4BDB82F0100D82F010048050100A2
:1009B0002DE9F04F8E4B8F4C52F8049CA3EB0408AA
:1009C0005FEA181885B0064611D017460D4604EBAD
:1009D000081802E01034A04509D0A16848460EF07E
:1009E0000BFF0028F6D15DB905B0BDE8F08F824A53
:1009F0004B463046022105B0BDE8F04F06F086BDFB
:100A0000E3687E49386893F8049007220EF00EFFE1
:100A1000002866D1012D00F0DE80DFF80C8204464C
:100A20000A2258F8041B78680EF000FF58B1013410
:100A3000052CF5D17B68724A3046022105B0BDE82D
:100A4000F04F06F063BDE3B2022D019340F0BF808A
:100A50006C4C6D4BA3EB04085FEAD8082746C3D063
:100A600009EB490307229A400292019ADFF8A4A1F8
:100A70000194DFF8A4914FEA880802FA03FB0025ED
:100A8000144609E0019B53F8153006F03FFD04358C
:100A9000A84507F10807A7D0BB79A3424A464FF003
:100AA00002013046EED355F80A20029982EA0B0380
:100AB0000B405340C3F3C202C3F382118A4238BFD2
:100AC0000A4603F007018A4238BF0A464F4945F8F3
:100AD0000A30C3F342206918824238BF02464A8076
:100AE000D5E708224A4938680EF0A0FE00287AD1DE
:100AF000012D0190ACD0012303F18043013B09EBB0
:100B00004909A7F1040A07EB830707233D4C3E4A36
:100B100003FA09F30293019BA2EB04084FEAD808F9
:100B200003FA09F3B3460AEB850A46460393A04647
:100B300057F8044F002E43D0C146002504E001358C
:100B4000AE4209F108093AD02022214658F8350072
:100B50000EF06CFE0028F2D1AE4230D099F806209B
:100B6000019B9A4223D32B4C039B54F825200298D7
:100B70002649534003405340C3F3C202C3F38210DB
:100B8000824238BF024603F00700824238BF024665
:100B9000C3F3422001EB8501824238BF024644F88C
:100BA00025304A80BA45C3D105B0BDE8F08FD9F8E9
:100BB0000030194A0221584606F0A8FCF2E73C68CA
:100BC000164A23460221584606F0A0FCEAE77FF6C3
:100BD0000BAF022390E7124A3046022105B0BDE870
:100BE000F04F06F093BC3B680E4A304625E700BF45
:100BF000D82F0100B82F010048050100B004010002
:100C000028050100202F0100B82F0100500200200C
:100C1000D00401009C020020F00401001405010032
:100C2000B8040100D8040100FC06010001B97047B6
:100C30002DE9F04FC368DB6885B0894617468346C7
:100C40007A4910681D7907220EF0F0FD00286ED158
:100C5000B9F1010F00F0DE80754E04460A2256F805
:100C6000041B78680EF0E2FD58B10134052CF5D173
:100C70007B68704A5846022105B0BDE8F04F06F087
:100C800045BCE3B2B9F1020F019340F0C0806A4C59
:100C90006A4F3F1BFF08264646D0019B029405EB96
:100CA00045051A46AA404FF0070A0AFA05FADFF886
:100CB0009891DFF898810192BF0000251C4609E059
:100CC000029B53F81530043506F020FCAF4206F1C4
:100CD000080629D0B379A34242464FF00201584694
:100CE000EED355F80920019B534003EA0A03534011
:100CF000C3F3C202C3F382118A4238BF0A4603F02B
:100D000007018A4238BF0A464D4945F80930C3F306
:100D100042206918824205F1040538BF0246AF42FD
:100D20004A8006F10806D5D105B0BDE8F08F08224B
:100D3000444938680EF07AFD002873D1B9F1010FEB
:100D40000190A4D0012303F18043013B05EB45054D
:100D50003A1F07EB83070723AB40374C374E02930C
:100D6000019B361BAB4002EB8909F6080393A046B2
:100D700057F8044F002E43D0C246002504E0013549
:100D8000AE420AF1080A3AD02022214658F835002E
:100D90000EF04CFD0028F2D1AE4230D09AF8062079
:100DA000019B9A4223D3284C039B54F82520029898
:100DB0002349534003405340C3F3C202C3F382109C
:100DC000824238BF024603F00700824238BF024623
:100DD000C3F3422001EB8501824238BF024644F84A
:100DE00025304A80B945C3D105B0BDE8F08FDAF8A7
:100DF0000030164A0221584606F088FBF2E73C68AC
:100E0000134A23460221584606F080FBEAE78BD9B5
:100E1000022398E70F4A5846022105B0BDE8F04F7B
:100E200006F074BB3B680C4A24E700BFB004010025
:100E3000FC06010028050100202F0100B82F010049
:100E400050020020D00401009C020020F0040100A8
:100E500014050100B8040100D80401002DE9F84F81
:100E6000234B24480022FF21C3F818249960C3E9CA
:100E70000022C3F8142483F8202408F05DFF814683
:100E800010B14846BDE8F88FDFF87C801A4F1B4848
:100E9000A7EB080709F042FAFF08F2D0DFF860B0CC
:100EA0004D460026344608EBC50AA5424FF0140211
:100EB00008D058F83410DAF800000EF0B7FC00281B
:100EC000C8BF01360134A742EFD12BF825600135A8
:100ED000BD42E6D10A4B0B490BEB850500225A8037
:100EE00004339D4241F8042BF9D14846BDE8F88F00
:100EF0003C04002018300100B82F0100E00601007A
:100F0000500200209C020020202F010021B9124B2A
:100F100003EBC00000687047104A0F49521AD2080C
:100F200015D030B40E4D2B88834212D0002303E03D
:100F300035F82340844205D001339A42F8D100208D
:100F400030BC704701EBC300006830BC70471046EE
:100F500070470846F8E700BF202F0100B82F0100B6
:100F600050020020094B013903EBC00003290BD8C4
:100F7000DFE801F00208060402207047407970475C
:100F8000007970470420704700207047202F01002F
:100F90002DE9F047DFF8FC90074600208846D9F895
:100FA000084004F06DFDD9E90132D9F8006013441E
:100FB00001339B1B012B62D809F21C4501212846F5
:100FC00004F04EFFFFF73AFB0146284604F048FFC5
:100FD000D9E90132D9F80010134401335B1A012B0F
:100FE000ECD90A40033205230231002049F82230AF
:100FF000C9F8001004F05EFD0021224804F00EFF45
:1010000080F3100A204B214A3D0C9B1AB5EBD30FFD
:101010002FD2731C234009EB83033440033445EA89
:101020000A45DD6019F8243067F3C50309F8243058
:1010300039F824306FF3891329F8243059F8242023
:1010400068F39F221346012161F301036FF38203CA
:1010500049F8242009F8243099F820341BB906E017
:1010600000F01AF818B1D9E900329A42F8D1BDE877
:10107000F087074940F2A31004F030FEC9E731467B
:10108000AFE700BF58080020B82F0100202F010053
:10109000F00501003C0400202DE9F04F9E4C002398
:1010A00085B0C4F81834BFF34F8FD4E9015605EA70
:1010B0000602D31C04EB830114F82330580719D51A
:1010C00027680B7803F00303012B3DD0022B03D1DB
:1010D0004B88023505EB931506EA0502D4F818048F
:1010E000D31C04EB830128B9AF423ED914F8233056
:1010F0005B07E6D404EB82026B1CD268019233409A
:1011000004EB830302F00302DB680293022A05F179
:10111000020800F0A380012A2BD0D4F810543DB16E
:101120002B6828469B689847EB681D68002DF7D10F
:101130007A4B5B88012B0DD8D4E90030C01A18BF58
:10114000012005B0BDE8F08F0B880235C3F383138F
:101150001D44C1E7724B73487349C01AC0080004AC
:1011600040F00200FFF714FFE6E7676005B0BDE856
:10117000F08FBDF804706D48C7F38313062B28BFAA
:101180000623991C63F389178900ADF8047008F0F1
:10119000D5FDC7F3C20781460028BED008F02AFE5D
:1011A0000023082201A9484608F04AFEBDF8043091
:1011B00013F4707F00F0AE806FF0010BABEB050B0A
:1011C000082506EA080103312B46042204EB8101BD
:1011D000484608F035FEBDF8043008F1010A0BEB73
:1011E0000A02C3F383139342D04605F10405E8D8FD
:1011F000D4F81834002B77D1D4F81054FDB1DFF8AF
:1012000034810726EB685A79B2B11A79BDF8080023
:1012100002EB420158F8200006FA01F2052F02EA1B
:10122000000208BF0327CA40BA4205D32B684946CB
:101230001B6828469847EB681D68002DE2D1484698
:1012400008F0DCFD002004F01BFCD4F818340BB9C6
:10125000C4F804A0002004F02DFC6DE7BDF80630B2
:1012600032489DF804704FEA931A5546502D28BF16
:10127000502565F38F1305F10801ADF8063008F02D
:101280005DFDC7F3C207814600283FF446AF26EA5A
:10129000080B0BF1010B08F0ADFD4FEA8B0B00239F
:1012A000082201A9484608F0CBFD5D4527D9EBB2DD
:1012B000BBF1000F1CD006EA0801A3EB0B030331BE
:1012C00004EB8101DDB25A460823484608F0B8FD18
:1012D0002A460BF108031649484608F0B1FD0AF109
:1012E000030A08EB9A0A83E7484608F087FD23E7DC
:1012F0002A4608230E49484608F0A2FDEFE706EA11
:101300000801033104EB81012A460823484608F00E
:1013100097FDE4E7C2466BE73C040020680200202A
:10132000202F0100502F01006C080100183001002F
:10133000480400209C0200202DE9F047DFF808A1B6
:101340000746002091468846DAF8084004F098FBEA
:10135000DAE90132DAF80060134401339B1B022BF7
:1013600068D80AF21C450121284604F079FDFFF7F0
:1013700065F90146284604F073FDDAE90132DAF82E
:101380000010134401335B1A022BECD90A400332DC
:101390000331452300204AF82230CAF8001004F037
:1013A00089FBB31C23400AEB830300212248C3F8C6
:1013B0000C9004F033FD80F31009204B204A3D0CC3
:1013C0009B1AB5EBD30F2FD2731C23400AEB830378
:1013D0003440033445EA0945DD601AF8243067F3E8
:1013E000C5030AF824303AF82430012161F3891347
:1013F0002AF824305AF8242068F39F22134661F318
:1014000001036FF382034AF824200AF824309AF883
:1014100020341BB906E0FFF73FFE18B1DAE90032CD
:101420009A42F8D1BDE8F087064940F2A31004F0D3
:1014300055FCC9E73146A9E758080020B82F01003C
:10144000202F0100F00501003C0400202DE9F84F99
:10145000404C8046002093469A468946A56804F091
:101460000FFBD4E90132276813440133DB1B032B44
:101470006ED804F21C460121304604F0F1FCFFF75F
:10148000DDF80146304604F0EBFCD4E90132216876
:10149000134401335B1A032BEDD90A4003320431A4
:1014A0008523002044F82230216004F003FBBA1C9D
:1014B000FB1C2A402B4004EB820204EB8303002137
:1014C0002548C2F80CB0C3F80CA004F0A7FC80F3C8
:1014D000100A224B224A4FEA18469B1AB6EBD30F4A
:1014E00030D27B1C2B4004EB83033D40033546EA9E
:1014F0000A46DE6014F8253068F3C50304F8253089
:1015000034F82530022262F3891324F8253054F888
:10151000252069F39F221346012161F301036FF334
:10152000820344F8252004F8253094F820341BB9B0
:1015300006E0FFF7B1FD18B1D4E900329A42F8D1C4
:10154000BDE8F88F074940F2A31004F0C7FBC8E7D5
:101550003946A2E73C04002058080020B82F0100BB
:10156000202F0100F00501002DE9F84F434C804683
:10157000002093469A46A568894604F081FAD4E98A
:101580000132276813440133DB1B042B74D804F2A7
:101590001C460121304604F063FCFFF74FF801467A
:1015A000304604F05DFCD4E9013221681344013374
:1015B0005B1A042BEDD90A4003320531C523002004
:1015C00044F82230216004F075FAB91CFA1C294055
:1015D0003B1D2A4004EB810004EB82022B4004EB0C
:1015E0008303C0F80CB00021C2F80CA024480A9A6A
:1015F000DA6004F013FC80F3100A224B224A4FEA0F
:1016000018469B1AB6EBD30F30D27B1C2B4004EB51
:1016100083033D40033546EA0A46DE6014F8253070
:1016200068F3C50304F8253034F82530032262F34B
:10163000891324F8253054F8252069F39F22134696
:10164000012161F301036FF3820344F8252004F8BC
:10165000253094F820341BB906E0FFF71DFD18B1C2
:10166000D4E900329A42F8D1BDE8F88F074940F238
:10167000A31004F033FBC8E739469CE73C04002084
:1016800058080020B82F0100202F0100F0050100AC
:101690002DE9F04F85B04B4C0E9EA5680296CDE922
:1016A00000238046994600200F9B039392468B4669
:1016B00004F0E6F9D4E90132276813440133DB1B57
:1016C000052B7CD804F21C460121304604F0C8FBEF
:1016D000FEF7B4FF0146304604F0C2FBD4E9013204
:1016E0002168134401335B1A052BEDD90A400332FC
:1016F000063140F20513002044F82230FE1C216020
:1017000004F0D8F9B91C3A1D29402E4004EB8101A0
:1017100004EB86067B1D2A4004EB82022B40C1F8B5
:101720000CA004EB8303C6F80C900E9ED66000213B
:101730000F9A2548DA6004F071FB80F31009234BFF
:10174000234A4FEA18469B1AB6EBD30F31D27B1CC3
:101750002B4004EB83033D40033546EA0946DE6037
:1017600014F8253068F3C50304F8253034F8253023
:10177000042262F3891324F8253054F825206BF3F2
:101780009F221346012161F301036FF3820344F8A2
:10179000252004F8253094F820341BB906E0FFF723
:1017A0007BFC18B1D4E900329A42F8D105B0BDE80B
:1017B000F08F084940F2A31004F090FAC7E73946C9
:1017C00094E700BF3C04002058080020B82F010017
:1017D000202F0100F00501002DE9F04F87B0504C9B
:1017E000109EA5680396CDE901239946119B0493A9
:1017F0008046129B0593002092468B4604F040F9E8
:10180000D4E90132276813440133DB1B062B00F2B5
:10181000848004F21C460121304604F021FBFEF7CF
:101820000DFF0146304604F01BFBD4E9013221686C
:10183000134401335B1A062BEDD90A4003320731FA
:1018400040F24513002044F82230216004F032F9C0
:10185000B91CF81C3A1D7B1D294028402A4004EB86
:1018600082022B4004EB810104EB8000BE1D04EBDF
:10187000830C2E40109BC1F80CA004EB8606C0F828
:101880000C90D360119BCCF80C300021129B2548A2
:10189000F36004F0C3FA80F31009234B234A4FEAA4
:1018A00018469B1AB6EBD30F31D27B1C2B4004EBAE
:1018B00083033D40033546EA0946DE6014F82530CF
:1018C00068F3C50304F8253034F82530052262F3A7
:1018D000891324F8253054F825206BF39F221346F2
:1018E000012161F301036FF3820344F8252004F81A
:1018F000253094F820341BB906E0FFF7CDFB18B172
:10190000D4E900329A42F8D107B0BDE8F08F084917
:1019100040F2A31004F0E2F9C7E739468DE700BFB3
:101920003C04002058080020B82F0100202F01009F
:10193000F0050100044BD3E900239A4201D0FFF7E0
:10194000ABBB0020704700BF3C04002038B5094BFA
:10195000D3F81044012583F820544CB1E3685D713D
:10196000236820465B689847E3681C68002CF5D123
:1019700038BD00BF3C0400202DE9F04784B01D466F
:101980000C9C002394F80C802373EB8881460E4650
:101990001746002B40D1297A05290ED06B7AA888EA
:1019A00073BB404B53F821A00021FFF7AFFA52461A
:1019B00003463D49204607F04BFD062F09D8DFE8D6
:1019C00007F0046A4249525D33004946204607F059
:1019D0003FFD2B7A052B05D06B7A5BB93349204646
:1019E00007F036FD204607F01FFD84F80C8004B098
:1019F000BDE8F0872E4A2F49204607F029FDEDE784
:101A0000FFF7B0FA2C4B2B4953F82020204607F063
:101A10001FFD297AA888C4E7254A00922749284A49
:101A2000204607F015FDB6E7D6E90410D6E90023F5
:101A30000390D6E902070291CDE900074946204606
:101A400007F006FDC5E74946D6E90023204607F022
:101A5000FFFCBEE7B168D6E9002320460091494665
:101A600007F0F6FCB5E7D6E90201D6E900230191BB
:101A700000904946204607F0EBFCAAE7D6E903713F
:101A8000B068D6E900230291CDE900074946204617
:101A900007F0DEFC9DE732684946204607F0D8FC97
:101AA00097E700BF6C0B0100600B0100B40501005B
:101AB000540B01005C0B0100FC0A01003C0B01000F
:101AC000340B0100082900D970472DE9F04F1D465D
:101AD000904600232A7B2B7385B0B8F8063003921A
:101AE00007460E46002B7BD198F80810052911D027
:101AF00098F80930B8F80400002B63D13C4B53F838
:101B000021400021FFF702FA2246034639492846C0
:101B100007F09EFCDFF8FCB0DFF8FC90002405E045
:101B20003A5D013407F094FC082C09D0A6424946DE
:101B30002846F5D85946013407F08AFC082CF5D11F
:101B40002D49DFF8D8B0DFF8D890284607F080FCA0
:101B500000240CE017F804A0BAF17E0F23D92E223E
:101B600049462846013407F073FC082C08D0A642E9
:101B7000F0D859462846013407F06AFC082CF6D103
:101B800098F80830052B02D098F80930A3B91B4902
:101B9000284607F05DFC284607F046FC039B2B73A4
:101BA00005B0BDE8F08F0DF0AFFD504452464378CC
:101BB00013F0970FD3D0D3E7114A1249284607F004
:101BC00047FCE4E7FFF7CEF90F4B0E4953F820200E
:101BD000284607F03DFC98F80810B8F804008DE797
:101BE000074A009209490A4A284607F031FC7BE778
:101BF0006C0B0100600B01002C0B0100B40501000F
:101C0000540B01005C0B0100FC0A01003C0B0100BD
:101C1000340B0100280B0100200B0100680B0100B0
:101C2000300B0100C20730B40ED483070AD54FF041
:101C3000A0430C22C3F82C27C3F83027C3F8602731
:101C4000C3F8642730BC70474FF0A0430322C3F8A9
:101C500034274FF40055C3F838274FF48044C3F8B5
:101C60003C274FF40041C3F840274FF48032C3F8BB
:101C70000855C3F80845C3F80815C3F80825D4E784
:101C800030B482B001248DF80740154B9DF8075001
:101C9000186044F20104A04259609A6014D044F2E2
:101CA0000201884208D072B69DF80730002BFBD1A4
:101CB00062B602B030BC7047DA60DA6812889A61A6
:101CC000DA685268DA61EEE71A611A6992685A6155
:101CD0001A6912689A611A695268DA61E3E700BF0B
:101CE000F808002000B583B002900091019244F200
:101CF000010071466A4600F003F803B000BD00BF62
:101D00002DE9F043044685B00E46154672B6FFF73E
:101D10001DFEFFF70FFE0028FBD12C4F44F20102FD
:101D200094427B8821D044F2020294420ED0002BD0
:101D30003FD1274B1B68DB0700D500BE2A46314642
:101D4000204605B0BDE8F043FFF79ABF002BF0D066
:101D5000204F21482B886A682049C01BC008000416
:101D600040F00100FFF772FBE3E7002BE1D0D5F86C
:101D70000890194B174A4846A3EB020808F050FC9C
:101D80002B681749CDE901364FEAD8084FEA0848D1
:101D90006B68009348F0010803464A464046FFF747
:101DA0001BFD7B88002BC4D040460E49FFF7F0F89E
:101DB000BFE7084B08480C49C01AC008000440F0AF
:101DC00001003246FFF7B8FAB3E700BF680200200F
:101DD000F0ED00E0202F0100502F0100B80B0100B2
:101DE000D40B0100FC0B0100100C0100F8B5204AD7
:101DF000204B0024C2F84041C2F84441C2F8484197
:101E0000C2F84C41C2F80041C2F804411B6833B328
:101E10001949D2F804550A68AD1A1A6825F07F45A9
:101E2000AA4227460DD8197CDE69AD1A144419B1AF
:101E30001F74D3E9052090471EB133461A68AA42A1
:101E4000F1D90E490E4A0B7812789A4208D00D4902
:101E50000D4A41F823404FF48013C2F80031F8BD19
:101E6000531CDBB2022B08BF00230B70EFE700BF4F
:101E700000100140380A0020340A0020310A0020F6
:101E8000300A0020280A002000E100E02DE9F04F90
:101E90008C4A8D4913780978DFF85082994285B0D1
:101EA000D8F800A000F07B810133DBB2022B08BF21
:101EB000002386481370864A076852F823107B185F
:101EC00023F07F4300240360534626462046A44661
:101ED000ABB11A688A4200F26581DC68C3F800C0C1
:101EE000891A1044DA6934B13D1825F07F45C3E9F9
:101EF0000154DE611E4613460124002BE9D1002C5B
:101F000040F07C8101230093724B734FDFF8E09126
:101F100043F00103019355464FF0000B46B3D6E959
:101F200001C13446F669694B6C481A68ACEB020390
:101F300023F07F43834248D80B44236000220121D1
:101F4000C4E90122E2612174002D5DD02A689A4221
:101F50004DD2284603E00A689A424FD20846C1692A
:101F60009B1A0029F7D12360E161C461002ED6D10C
:101F700078783978884264D00B4603EB43034C1CD5
:101F8000BA7807EBC303E1B28A421A79397004BF09
:101F900000213970022A9C6844D0032A38D0012AD3
:101FA000E8D1227C002AE5D1D3F80CC0C4F804C0E3
:101FB0001969A1605869E06099F800009B69A36104
:101FC0000028B0D062609446ADE7A2EB0C0222F08C
:101FD0007F428A4202D28B1A2360AFE7002301229C
:101FE000C4E90033A360E36122746DB12A68C8F8C4
:101FF0000040D31A2B60E56125468FE7D21A0A60AC
:102000002360E161C461B1E7C8F80040254685E777
:10201000002DAFD000232B74ED69002DFBD1C8F843
:102020000050A5E74DB1AC422B4603D1E4E0944209
:102030002FD01346DA69002AF9D10023237488428D
:102040009AD1BBF1000F01D1554553D0002D56D187
:10205000234E244A1F4C4FF480334FF400310127A4
:10206000C2F880103C43C6F848334FF43C60C6F8D1
:1020700008337760A047154BB7604FF43C601D6094
:10208000A047194B1D70002389F8003005B0BDE84A
:10209000F08FA34200F09180E0692168D8610028A8
:1020A00000F086802A4603680B440360AA424FF082
:1020B00000033978787823741CBF15464FF0010B64
:1020C000BDE700BF300A0020310A0020340A00209A
:1020D000280A0020300C010018090020FEFF7F00B4
:1020E0000010014000E100E0250A0020380A00202D
:1020F000240A0020009B002BC5D0002DA8D0434B04
:10210000434A1C68D2F80465424FD5F800A03978DC
:10211000331B23F07F43DD1CB9B93F493F4B4FF4DC
:102120008030C2F844034FF00108C2F804034FF4B2
:102130000030C1F8800143F001030860C2F800805C
:102140004FF43C60984787F80080AA452CBF04EB09
:102150000A0363192E4923F07F43C1F84035D1F8B3
:102160000425921B9B1B22F07F4223F07F43033206
:102170009A4288D9294BD1F80425C1F8402543F06B
:1021800001034FF43C609847234B4FF40032C3F8EF
:102190000021002389F8003005B0BDE8F08F00264B
:1021A0000096B1E674BB521A1A6001230093ABE6A5
:1021B000002339787878237441E71946EA69C8F82A
:1021C000002092B9CDE90231114BDFF840C0012067
:1021D0009860019B89F80000CCF800204FF43C6027
:1021E0009847DDE90231D8F80020C8690968D8614C
:1021F00000287FF458AF59E72946DFE7C8F80030D8
:102200009A467FE6C8F800309A46CCE7340A0020A8
:1022100000100140250A002000E100E0300C010020
:102220002DE9F8431F4D204E204FDFF898804FF4E2
:1022300080334FF400324FF001090024C6F88020AB
:1022400047EA0907C5F848334FF43C60C5F808333E
:10225000C5F80490B847C5F808904FF43C60C8F83A
:102260000040B847124A134B13491C601470134BBB
:10227000134A0C700B2114701C8099704FF480125B
:10228000C023C6F8802186F814333260C5F80845AB
:1022900086F81133D5F80435C8F800302046BDE87B
:1022A000F88300BF0010014000E100E0300C0100A5
:1022B000250A0020380A0020300A002018090020D2
:1022C000310A0020340A0020074B9B784BB132B111
:1022D00028B10368187C20B959745A6170470720E7
:1022E00070470820704700BF180900202DE9F84307
:1022F000224CA378002B35D0002833D0042934D9C0
:1023000043697BB3437C0646012B4FF000000CBFB2
:10231000884680461746894603F0B2FB6378A17869
:1023200022785D1CEDB2A94208BF0025AA421FD049
:1023300003EB430304EBC3030121114A9E601971AF
:10234000D2F80425DA600020C3E904989F61657023
:1023500003F0B0FB0B4B4FF48012C3F800210020B8
:10236000BDE8F8830820BDE8F8830720BDE8F883BE
:10237000002003F09FFB0420F2E700BF18090020B3
:102380000010014000E100E070B5174DAB7823B3B9
:1023900018B343690BB3002404740646204603F0C7
:1023A0006FFB6A78A8782978531CDBB2984208BF83
:1023B0002346994213D002EB420205EBC2020221EE
:1023C0009660204611716B7003F074FB074B4FF45D
:1023D0008012C3F80021204670BD082070BD204641
:1023E00003F068FB042070BD1809002000E100E044
:1023F00030B583B020B1154940F27B2003F06EFC6C
:1024000001A9134803F090FC0446E8B1114D286877
:102410002060002003F034FB0F4B10481B8802683B
:1024200001339B1AE380002103F0F8FCA080002018
:1024300003F040FB01A9064803F0A2FC084B1B680F
:1024400013B101462846984703B030BD400C010047
:10245000240000208C0C0100DC0A0020F80B002076
:10246000400A002070B50378052B82B0054641D0A4
:10247000002B4CD1394B1C685CB1394E2368002BC2
:102480002DD09B68DBB16888984723685C68002C76
:10249000F4D1344C002003F0F3FA236833B3012164
:1024A000304803F0DDFC002003F004FB2E4B1B68DA
:1024B00013B1284601219847236802B070BD314608
:1024C00040F21B1003F00AFC236868889B68984759
:1024D00023685C68002CDCD02368002BD1D1314606
:1024E0004FF48D7003F0FAFB2368CAE71F4B6A882C
:1024F0001A80D4E71E4BD3F88424D3F8803413F029
:10250000FF0F04D11B4BD2B2052A08BF1D4601A9FB
:10251000194803F009FC04460028CED02B6803605C
:10252000002003F0ADFA114B0E481B8802680133FE
:102530009B1AE380002103F071FCA080002003F0CF
:10254000B9FA01A90C4803F01BFC074B1B68002BD0
:10255000B3D001462846984702B070BDF00B00206A
:10256000400C0100F80B0020400A0020DC0A00208B
:1025700000700240880C01002400002030B50128C2
:1025800083B012D01AD3022806D0204940F262202C
:1025900003F0A4FB03B030BD01A91D4803F0C4FB48
:1025A00004460028F6D01B4D10E001A9184803F09E
:1025B000BBFB04460028EDD0174D07E001A91448E5
:1025C00003F0B2FB04460028E4D0144D28682060D4
:1025D000002003F055FA124B12481B8802680133A1
:1025E0009B1AE380002103F019FCA080002003F077
:1025F00061FA01A9064803F0C3FB0B4B1B68002BD3
:10260000C8D001462846984703B030BD400C0100B1
:1026100024000020840C0100800C01007C0C0100CF
:10262000DC0A0020F80B0020400A00202DE9F04FC2
:1026300087B006AF00260446894692469B4647F877
:10264000106D00E0013662680123556821460022C2
:102650003846A8470028F5D18DF80600049066B3E7
:10266000804605460AE09DF806306768023B7F68B1
:10267000B8479DF806301D44AE421ED9626801235A
:10268000576821460DF1060204A8B8476268012385
:10269000576821460DF1070204A8B8479DF8073096
:1026A0004B454FF00002214604A8DCD1C24508D0BA
:1026B00008F101085FFA88F8D5E7052007B0BDE802
:1026C000F08F109A9DF8063013608BF800308BF86D
:1026D00001906168023B4D680BF102022146A84758
:1026E0000020EBE72DE9F04F85B0054607F0F0FF3D
:1026F000A8B108234FF484725749584803F0FCFAF4
:1027000040B957480AF0EEFE044670B1204605B0C5
:10271000BDE8F08F0324204605B0BDE8F08F514995
:1027200040F2313003F0DAFAE3E74F4A4F49504BB9
:1027300014700C60482221464E481C600DF028F8A9
:10274000214648224C480DF023F8002D6BD095E827
:1027500007004A4B83E80700002008F095F808B10D
:10276000852865D1DFF818A1434D9AF80830019308
:1027700000261A46F3B29342DAF804B03D4F0AF14C
:1027800009043DD2002C3BD0617891B3A378E318C3
:1027900018BF4FF0010914D12BE0B8F1080F21D870
:1027A00005EBC803C3F800A0DBF8000058608945BA
:1027B00009F10103D8B21CD2A3784B44E31818D016
:1027C00081461878030600F00F08E6D5B8F1080F27
:1027D00005D924494FF4CC7003F080FA617807EBF7
:1027E000C803DFE71F494FF4CF7003F077FA617831
:1027F000D6E70136019AF3B2934204F10304C1D340
:102800000B238DF80C30BBF1000F1FD0DBF800302C
:10281000A3B11B4803A99847044600283FF476AFAC
:102820000AF004FF72E7154BC3E900551D7293E7E8
:102830000C4A40F25F31FFF755FA93E7094940F23D
:10284000111003F04BFADBF80030E2E705494FF4D2
:10285000887003F043FAD9E7E00A00202400002042
:1028600065240000400C0100FC0B0020E80B002058
:10287000EC0B00204C0A0020940A0020400A0020A3
:10288000C80C010010B50AF0F5FF40B10AF0FAFFDC
:10289000044620B9064808F00BF810B910BD08200E
:1028A00010BD044A40F2C231FFF71CFA204610BDA9
:1028B000780C0100400C01000AF0CEBE08B50AF009
:1028C000EBFF20B1044940F2D13003F007FABDE834
:1028D00008400CF021B900BF400C010030B583B0B6
:1028E0000AF0D0FF002830D04FF0804303E0D3F847
:1028F0003824D10727D5D3F838249207F7D501A972
:10290000154803F011FA0446E8B1144D2868206018
:10291000002003F0B5F8124B12481B8802680133FF
:102920009B1AE380002103F079FAA080002003F0D5
:10293000C1F801A9084803F023FA0B4B1B6813B137
:1029400001462846984703B030BD08494FF47670D9
:1029500003F0C4F9C8E700BF24000020900C010078
:10296000DC0A0020F80B0020400A0020400C010087
:1029700010B582B0822301A912488DF8003003F00F
:10298000D3F9E8B1044600982060002003F078F8FD
:102990000D4B0E481B88026801339B1AE38000210F
:1029A00003F03CFAA080002003F084F801A9054858
:1029B00003F0E6F9064B1B6813B1014668469847D9
:1029C00002B010BD24000020DC0A0020F80B00201B
:1029D000400A002010B582B0832301A912488DF867
:1029E000003003F0A1F9E8B104460098206000200F
:1029F00003F046F80D4B0E481B88026801339B1A02
:102A0000E380002103F00AFAA080002003F052F8CE
:102A100001A9054803F0B4F9064B1B6813B1014640
:102A20006846984702B010BD24000020DC0A002050
:102A3000F80B0020400A002030B51E4B1B7883B0F5
:102A4000002B30D0012001F097FD044610B920463C
:102A500003B030BD842301A917488DF8003003F07E
:102A600063F905460028F2D000982860002003F0A2
:102A700007F8124B12481B88026801339B1AEB803F
:102A8000002103F0CBF9A880002003F013F801A97E
:102A9000094803F075F90B4B1B68002BD7D0014692
:102AA00068469847D3E7084940F2134003F016F907
:102AB000C8E700BFF40B002024000020DC0A00203F
:102AC000F80B0020400A0020400C01002DE9F04FD7
:102AD000824685B0002800F0E680DAF80430002B4A
:102AE00000F0EB801B68002B00F0D780DAF8003094
:102AF0001B6823B17D4940F26D5003F0EFF80AF0F6
:102B0000C1FE00283FD10AF0B5FE00283BD00026C8
:102B10009AF80820DFF8DCB1DFF8D081744FF4B206
:102B20000AF10903944201933FD2019B04EB440450
:102B30001C193BD0002507E0B9F1080F29D80BEB91
:102B4000C90301351B68D3B96378EAB2934226D929
:102B5000A3781344DC4222D0E25C02F00F09120693
:102B6000EAD5B9F1080F04D941464FF4CC7003F00F
:102B7000B5F807EBC90301351B68002BE4D0112021
:102B800005B0BDE8F08F594940F2715003F0A6F846
:102B9000BDE741464FF4CF7003F0A0F8CFE7013610
:102BA0009AF80820F4B29442BFD300245FFA84F963
:102BB0000AF1090391454F4DDFF830814C4F0193E5
:102BC00045D2019B09EB490913EB09093FD099F85C
:102BD0000130BBB399F8023019EB030318BF4FF073
:102BE000010B18D12EE0082E24D805EBC603C3F83C
:102BF00000A0DAF8042012685A6099F801100BF16D
:102C000001035945DAB21BD999F802305B4419EB3C
:102C1000030315D093461A78130602F00F06E2D587
:102C2000082E04D941464FF4CC7003F057F807EB57
:102C3000C603DCE741464FF4CF7003F04FF8D4E70A
:102C40009AF8082001345FFA84F99145B9D32A4CE7
:102C5000236833B1254D9A4514D01C682368002B96
:102C6000F9D1C4F800A0DAF804300B228DF80C205A
:102C7000002B33D01B6843B3504603A9984705B0D7
:102C8000BDE8F08F294640F2975003F027F82368FB
:102C90001C682368002BDED1E3E7144940F26C5036
:102CA00003F01CF822E7114940F26A5003F016F8CD
:102CB000DAF80430002B7FF415AF0C4940F26B506A
:102CC00003F00CF8DAF804300CE7084940F2111070
:102CD00003F004F8DAF804301B68CDE703494FF439
:102CE000887002F0FBFFDAF80430C3E7400C010003
:102CF0004C0A0020940A0020E80B002070B505461D
:102D000000284CD06B68002B51D01B68002B57D08B
:102D10000AF0B8FD18BB0AF0ADFD00B32B4C2268D9
:102D20003AB12B4EAA422ED0146862680434002AAD
:102D3000F8D12B685B6823B1254940F20E6002F0A0
:102D4000CDFF244C22683AB1214E95420DD0146833
:102D500062680434002AF8D12560002070BD1C4947
:102D600040F2036002F0BAFFD8E7314640F2146047
:102D700002F0B4FF23681C6862680434002AE4D1BE
:102D80002560002070BD314640F2096002F0A6FFC8
:102D900023681C6862680434002AC3D1C9E70C495F
:102DA00040F2FF5002F09AFF6B68002BADD108494A
:102DB0004FF4C06002F092FF6B681B68002BA7D134
:102DC000034940F2016002F089FFA1E7F00B002007
:102DD000400C0100EC0B002010B5044608B30AF0CB
:102DE00051FD80B90AF046FD68B1114A136843B13C
:102DF0009C4202D10EE0A3420BD01A685368002B0C
:102E0000F9D1052010BD0B4940F2216002F066FFA8
:102E1000EBE7043223685B68136023680020586086
:102E200010BD044940F21F6002F058FFD7E700BF11
:102E3000EC0B0020400C010008B560B1094A137882
:102E40000133DBB2137023B9074940F2716002F01D
:102E500045FF002008BD044940F26E6002F03EFFCD
:102E6000ECE700BFF40B0020400C010010B560B18E
:102E7000094C23782BB9094940F27B6002F02EFF00
:102E80002378013B2370002010BD044940F2796093
:102E900002F024FFECE700BFF40B0020400C01001F
:102EA000024B1878003018BF01207047F40B002047
:102EB00000F00F03072B10B5044604D80AF024FFD6
:102EC00020460BF0DDFA2046BDE810400BF044BA76
:102ED0000BF0F2BB014B1868704700BFE80B0020F5
:102EE00070B4114B1E68A6B1357A75B1737A8342FE
:102EF00006F1090210D0002303E012F8034F8442C8
:102F00000BD00133DBB29D42F7D133681E68002E2F
:102F1000EAD1304670BC704700230029F9D0304612
:102F20000B7070BC704700BFE80B002070B51546F1
:102F30000446A0B16368D3B11B6823B1294620467B
:102F4000BDE8704018470D4940F2111002F0C6FE6E
:102F50006368294620461B68BDE87040184707494A
:102F600040F20F1002F0BAFE6368002BE4D103496F
:102F70004FF4887002F0B2FE6368DDE7400C010098
:102F800000F00F03082B14D8020670B54CBF114A8D
:102F9000114ADB0013441D684DB16B680C4693B1B8
:102FA0001B6843B121462846BDE8704018471020F1
:102FB00070BD10207047094940F2111002F08EFEDA
:102FC0006B681B68EEE705494FF4887002F086FED7
:102FD0006B68E5E74C0A0020940A0020400C0100D1
:102FE00070B5144B1C681CB30546134E07E0294608
:102FF00020469847062813D123681C68C4B163682B
:103000007BB11B68002BF2D1314640F2111002F067
:1030100065FE636829461B68204698470628EBD062
:1030200070BD31464FF4887002F058FE6368E8E7DF
:10303000062070BDE80B0020400C010038B50D469D
:1030400004460AF0A3FC18B1054B1B78022B01D0F3
:10305000082038BD29462046BDE838400AF0B8BCF3
:10306000FC0B002038B50D4604460AF08FFC18B161
:10307000054B1B78022B01D0082038BD294620467D
:10308000BDE838400AF06EBDFC0B0020F8B543687F
:103090009B6805460C4616461BB19847062800D08B
:1030A000F8BD2B7AA34232D3002E37D12B7AA3421C
:1030B0001DD9093504EB44042C4467782FB33546F9
:1030C00033463A460EE0A3786219D65C06F00F0349
:1030D000072B30460DD901350BF03EF9EBB29F427C
:1030E00013D962789342EED300231B78FFDE737806
:1030F000FFDE0AF009FE30460BF0C2F9013530461A
:103100000BF02AF9EBB2BB42EBD30020F8BD044927
:1031100040F2F92002F0E2FD002EC7D00720F8BDF2
:10312000400C010043681B6903B1184718467047FB
:103130002DE9F84F364B1F68002F5DD0DFF8D4B073
:1031400097F808A0BAF1000F52D04FF000094C4692
:1031500007F109050DE020B1594640F26A7002F00E
:10316000BDFD09F101095FFA89F4A24505F10305E6
:103170003ED97B689B682BB1002221463846984790
:103180000628E8D13B7AA3423BD3A34236D995F82F
:103190000180B8F1000FE4D00024234642460EE03F
:1031A000AB782A19D65C06F00F03072B30460BD9F3
:1031B00001340BF0D1F8E3B24345D2D26A7893429E
:1031C000EED300231B78FFDE0AF09EFD30460BF0A5
:1031D00057F9013430460BF0BFF8E3B29845EDD80B
:1031E00009F101095FFA89F4A24505F10305C0D888
:1031F0003B681F68002FA3D1BDE8F88F00235B78E0
:10320000FFDE594640F2F92002F068FD3B7ABCE748
:10321000E80B0020400C01002DE9F047234B1F680C
:10322000002F37D0DFF888A097F80890B9F1000F89
:103230002CD04FF00008444607F109057B68DB6895
:1032400013B12146384698473B7AA34227D39C4284
:1032500022D26E7896B100242346324609E0AB783C
:103260002A190134D05C0BF027FAE3B29E4205D94B
:103270006A789342F3D300231B78FFDE08F101083C
:103280005FFA88F4A14505F10305D7D83B681F68AC
:10329000002FC9D1BDE8F08700235B78FFDE5146DF
:1032A0004FF4467002F01AFD3B7AD0E7E80B00209D
:1032B000400C01002DE9F041844D2B680446002BA1
:1032C00000F0048302F010FC052840F28C80237883
:1032D000852B00F2F482DFE813F04702E0018C0056
:1032E0006A02BD02B700BE00F202E00005011E0145
:1032F000F202F202F202F2023701F202F202F202EA
:10330000F202F202F202F202F202F202F202F2021D
:10331000F202F202F202F202F202F202F202F2020D
:10332000F202F202F202F202F202F202F202F202FD
:10333000F202F202F202F202F202F202F202F202ED
:10334000F202F202F202F202F202F202F202F202DD
:10335000F202F202F202F202F202F202F202F202CD
:10336000F202F202F202F202F202F202F202F202BD
:10337000F202F202F202F202F202F202F202F202AD
:10338000F202F202F202F202F202F202F202F2029D
:10339000F202F202F202F202F202F202F202F2028D
:1033A000F202F202F202F202F202F202F202F2027D
:1033B000F202F202F202F202F202F202F202F2026D
:1033C000F202F202F202F202F202F202F202F2025D
:1033D000F202F202F202F202F20250015E019C01DC
:1033E0009F021702B7003A4940F22C4002F076FCE7
:1033F0006DE7384E3278931EDBB2062B0BD8364978
:10340000CB5C13B107F01AFA3278022A01D0082AED
:1034100001D10AF085FA314B5B68032232700BB19F
:10342000022098472D687DB1294E6B68002B00F073
:103430006F831B6828462146002B00F0B98298470D
:103440002B681D68002DF0D1254B2146D3E90002E1
:10345000BDE8F0411047A37803F00F051B0600F10B
:103460004082082D00F294831D4B03EBC5052B68A9
:10347000002B00F09A836B68002B00F08F83286884
:103480002146984700B3A07800F00F03013B062BBC
:103490001AD8BDE8F0410AF0EDBB104B5B680BB1E8
:1034A000082098472D687DB1094E6B68002B00F00D
:1034B0003D831B6828462146002B00F0498298472F
:1034C0002B681D68002DF0D1BDE8F081E80B0020CD
:1034D000400C0100FC0B0020380C0100400A0020C9
:1034E000940A0020974B5B680BB1092098472D6820
:1034F000002DE9D0944E6B68002B00F010831B6800
:1035000028462146002B00F0638298472B681D68EF
:10351000002DF0D1D8E78B4B5B680BB10A209847A0
:103520002D68002DD0D0884E6B68002B00F0D4821F
:103530001B6828462146002B00F0AE8298472B6876
:103540001D68002DF0D1BFE77E4B5B680BB10F20EB
:1035500098472D68002DB7D07B4E6B68002B00F08C
:10356000EC821B6828462146002B00F00182984718
:103570002B681D68002DF0D1A6E7744E3378062B1A
:1035800000F0C481072B01D0052B9DD10AF0D2F9A0
:103590000223337098E76E4B6E49D3E900029047DF
:1035A0002C6884B1684E6B4D6368002B00F0A982D3
:1035B0001B6820462946002B00F05E82984723684E
:1035C0001C68002CF0D15F4C63680BB10D2098474C
:1035D000FFF722FE00F020FC5F4B1B68002B00F081
:1035E00090810120594E0AF005F93278931EDBB222
:1035F000062B0BD85949CB5C13B107F01FF9327871
:10360000022A00F0B682082A00F0B3820123337048
:103610005AE74E4EFFF700FE0BF09EF93278931EEC
:10362000DBB2062B0BD84D49CB5C13B107F006F982
:103630003278022A01D0082A01D10AF071F92C68E7
:103640000023337084B1404F454D6368002B00F078
:103650007B821B6820462946002B00F09981984701
:1036600023681C68002CF0D1394B3D49D3E9000296
:103670009047344B5B680BB10E2098473378023B80
:10368000DBB2062B3FF620AF344AD35C002B3FF46D
:103690001BAFBDE8F04107F0D1B82C4EFFF7BCFDE1
:1036A00000F0B0FB3278931EDBB2062B00F21481DF
:1036B0002A49CB5C002B00F00F81022A03D0082A94
:1036C00001D00AF037F91F4B5B68022232700BB150
:1036D000012098471E4B2146D3E9000290472D68F0
:1036E000002D3FF4F1AE184E6B68002B00F03382D2
:1036F0001B6828462146002B00F07A8198472B68EA
:103700001D68002DF0D1DFE6104E3378032B00F05A
:1037100002810AF0CFF800283FF4D6AE3278931E2B
:10372000DBB2062B40F24D820E4807F045F83278A6
:10373000022A00F02A82082A00F02782062333702A
:10374000C2E600BF400A0020400C0100FC0B002034
:10375000940A0020940C0100EC0B0020380C0100AE
:10376000980C01001C000020A94B1B78032B00F0D3
:10377000EB80082B00F0E880A64B5B680BB10020C3
:103780009847A54B1D68002D3FF49EAEA34E6B6875
:10379000002B00F0E7811B6828462146002B00F033
:1037A0004B8198472B685D68002DF0D18CE6984ED0
:1037B0003378082B00F0A0809A1ED2B2062A40F27D
:1037C000DE81974806F0F8FF3378022B00F0D481B1
:1037D000082B00F0D181052333708E4B5B680BB151
:1037E000032098478F4B2146D3E9000290472D686C
:1037F000002D3FF469AE894E6B68002B00F0738199
:103800001B6828462146002B00F0568198472B68FC
:103810001D68002DF0D157E67D4E3378032B7FF4E1
:1038200053AE0BF073FA00283FF44EAE3278931E7D
:10383000DBB2062B0BD87C49CB5C13B106F0FEFF44
:103840003278022A00F0C381082A00F0C0810423E4
:10385000337039E66F4B5B680BB103209847714BAF
:103860007249D3E9000290472C6884B16B4E6F4DCA
:103870006368002B00F03E811B6820462946002B20
:1038800000F0EA80984723681C68002CF0D1604E55
:103890003378062B37D0082B0ED09A1ED2B2062AC8
:1038A00040F289815E4806F087FF3378022B03D00F
:1038B000082B01D00AF03EF80223337004E6574982
:1038C00040F22650BDE8F04102F008BA534940F2F8
:1038D000254002F003FAF5E4514806F06DFF327816
:1038E000EBE6082D04D94D494FF4CC7002F0F6F9FF
:1038F0004F4B03EBC505BAE5022333700AF024F8F9
:103900006BE7207A6EE607233370DDE50AF012F8E4
:1039100008233370D8E50BF0F9F900283FF4F9AE2D
:103920003278931EDBB2062B0BD83F49CB5C13B128
:1039300006F084FF3278022A00F04C81082A00F059
:10394000498104233370E4E63A48FFF7B3FC13E7F8
:10395000314640F2111002F0C1F96B6828461B682D
:10396000214698472B681D68002D7FF49EADABE57E
:10397000314640F2111002F0B1F96B6828461B681D
:10398000214698472B681D68002D7FF4E6AD9BE526
:10399000394640F2111002F0A1F9636820461B6815
:1039A0002946984723681C68002C7FF44EAE5BE6DE
:1039B000314640F2111002F091F96B6828461B68FD
:1039C000214698472B681D68002D7FF42EAD3BE5FE
:1039D000314640F2111002F081F96B6828461B68ED
:1039E000214698472B681D68002D7FF484AD6BE558
:1039F000314640F2111002F071F96B6828461B68DD
:103A0000214698472B681D68002D7FF46DAE5BE55D
:103A1000FC0B0020400A0020EC0B0020400C0100B1
:103A20001C000020940A0020380C0100A00C0100AA
:103A30004C0A00209C0C0100314640F2111002F0AB
:103A40004DF96B6828461B68214698472B685D68CE
:103A5000002D7FF49CAE37E5314640F2111002F0A4
:103A60003DF9636820461B682946984723681C680F
:103A7000002C7FF4FDAE0AE7314640F2111002F04F
:103A80002DF9636820461B682946984723681C68FF
:103A9000002C7FF489AD96E5314640F2111002F01A
:103AA0001DF96B6828461B68214698472B681D68DE
:103AB000002D7FF439AD07E5314640F2111002F0D8
:103AC0000DF96B6828461B68214698472B681D68CE
:103AD000002D7FF491AEF7E431464FF4887002F088
:103AE000FDF86B6824E531464FF4887002F0F6F873
:103AF0006B6885E631464FF4887002F0EFF8636832
:103B0000BAE631464FF4887002F0E8F863684FE592
:103B100031464FF4887002F0E1F86B6889E4314671
:103B20004FF4887002F0DAF86B68E8E431464FF43D
:103B3000887002F0D3F86B68BBE431464FF48870AC
:103B400002F0CCF86B680CE539464FF4887002F04F
:103B5000C5F863687DE531464FF4887002F0BEF821
:103B60006B68C5E531464FF4887002F0B7F86B68B2
:103B700011E609F0D5FE49E509F0D2FE2BE617491A
:103B80008A5C002A7FF421AE1BE609F0C9FED5E568
:103B900013494FF4CF7002F0A1F865E4104940F2E8
:103BA000035002F09BF86B6869E40D4940F2025043
:103BB00002F094F85FE409498A5C002A7FF476AE4B
:103BC00070E60649CB5C002B7FF4B2ADACE509F0A2
:103BD000A7FE3CE609F0A4FEB3E600BF380C0100E6
:103BE000400C010070B5284E82B034680023019368
:103BF0000CB3A588A5B1E388B3F5006F3ABF5A1C92
:103C000092B2012205F1FF3528BF002301A8A5804B
:103C1000E280ADF80630FFF74DFB012002B070BD29
:103C20002046FFF747FB1949194802F0E7F8012041
:103C3000356002B070BD1549154802F0B1F8044670
:103C400030600028D5D1134B1B6813B9184602B059
:103C500070BD114D01F014FF2B880E48B3F5006FB5
:103C600039BF5A1C92B22346012201212A80ADF8A5
:103C7000063002F00DF9002001F01CFF01A8FFF74B
:103C800019FB012002B070BD000C00203C0A00208E
:103C900024000020F80B0020DC0A002000207047E0
:103CA0002DE9F04F87B04B6802900D460192002B32
:103CB00000F08180019B402B77D809F0D7FFEE6898
:103CC000019B9E4228BF1E468146002E00F08C803C
:103CD0004FF000084246C2464FF0010BD5E90113F0
:103CE000B3421C4628BF3446361BA71819B309EB4C
:103CF000020022460BF028FDD5E902321B1B141BE3
:103D0000C5F804A0C5E902347BB1002C2ED0AB6805
:103D100073B33A46002EE1D1029BC3F800905F6076
:103D2000584607B0BDE8F08FEC68B8F1000F14D129
:103D3000F4B9C346EDE7002BF6D028464A4450F8C4
:103D4000101B4B68D3F804802346C047D5E90232E4
:103D50001B1B141BC5E9023423B92B68E3B11B6894
:103D60001B682B604FF00108002CD0D1A346D0E790
:103D7000296800292FD0CDF810A003E0AB6829688E
:103D80000133AB604B6800225C6804A80123A047A4
:103D90000028F3D12861BCE71849039340F243207F
:103DA00001F09CFFEC68039BD9E715494FF4CB70F9
:103DB00001F094FF81E70C68D4B123681B68002BE5
:103DC0007FF478AFAB68002B7FF474AF029A9B4608
:103DD00013605360A4E76960002F9DD0019BBB4234
:103DE00088BF4FF0000B97E737464FF0010B93E782
:103DF000024940F2432001F071FFDEE7280D010087
:103E0000600D010008B50020FFF752F88020BDE8E2
:103E10000840FFF74DB800BF08B50020FFF758F87D
:103E20008020BDE80840FFF753B800BF70B5C388D5
:103E300093421D4628BF1546934284B00E461DD8B6
:103E4000002200200392CDE9016501F019FE01A9CD
:103E50008020FFF7F3F8044628B1002001F02AFE85
:103E6000204604B070BD09F0D5FF802812D0002094
:103E700001F020FE1024204604B070BD80201446BE
:103E800009F068FDB4FBF0F303FB1042B2FA82F2D2
:103E90005209D6E7054A064B92E8030083E803007F
:103EA000002001F007FE204604B070BD100D010097
:103EB000300C00202DE9F04F0B78062B89B000F074
:103EC000A58017D90D2B00F091803ED80B2B70D018
:103ED0000C2B43D1A54C2378012B29D1A449A5480B
:103EE0000A78002322F002020A7023701D46FFF7B1
:103EF000E1F926E0022B23D066D9032B44D0052B11
:103F00002CD105460DF115008DF8143009F020FF75
:103F10009DF81520984C002102F01F032160032B0F
:103F200000F28481DFE813F0FD003001CC00BB001B
:103F3000924940F2514001F0D1FE2378002BCDD1BF
:103F40000025284609B0BDE8F08F0E2B0BD0852B3D
:103F500004D1864B1A78032A00F07481062528467E
:103F600009B0BDE8F08F814C2378012B40F26081CD
:103F70007F4A80481378012123F0020313702170D7
:103F80000025FFF797F9DCE77D4801F0A7FF30B186
:103F90007C4B01221A60BFF36F8FBFF34F8F734BBF
:103FA0001D78002DCCD1754940F2374001F096FEC6
:103FB000C7E76E4B1B78002BC2D0704940F24B40D4
:103FC00001F08CFE0025BCE7012BC7D1674B1A78A6
:103FD000032AC3D0664967480A78032422F0020204
:103FE0000A701C700625FFF765F9AAE74FF08043B9
:103FF0005E4CD3F83834227813F0010334D0022A0F
:104000009ED05B4A5B4813780221B5E7C878032845
:104010000C46A3D08B785B0635D1574E3368002B06
:1040200000F04F8100223260716898470546C0B9A0
:104030003368002B00F00B81A378002B80D109F0AE
:10404000ADFE7EE7494D2B78043B012B00F23B810E
:104050009DF81730002B00F09C81012B00F0FE81B1
:10406000072509F0CDFE6CE7012A3FF469AF40490E
:1040700040480A78012622F002021D460A70267086
:10408000FFF718F95DE740F274403C4901F026FE65
:10409000E078C2E7394940F2813001F01FFE05A8FF
:1040A000FEF79EFF0546002DDBD12568002D00F0B0
:1040B000D88009F0AFFE054600287FF441AFBEE787
:1040C0009DF81900010707D005A9FEF759FF06283A
:1040D0000546E8D19DF8152012F0600F40F0A6804B
:1040E0009DF81630214A9DF819501278012B00F0E6
:1040F000FC80C0F0EA80032B40F0988005F00F03AD
:10410000072B00F29380BDF81710002940F08E8035
:10411000052A02D0002B40F0D680284609F0AAFDDF
:10412000C3E7002D00F0C580C2F34115002DB6D1C4
:10413000D2099DF8161040F0998001390829AED8AF
:1041400001A353F821F000BFED4100009F400000A3
:104150000D4200009F400000954000009F4000007D
:104160009F4000009F40000045400000100C0020D0
:104170002C0C0020D80C0100300C0020600D010038
:10418000380C00205C70024003A99DF81900FEF76E
:10419000A7FE0646002867D005AA9DF80C10FEF77A
:1041A000C5FE062805467FF47EAF9DF8153013F056
:1041B000600F7FF456AFB64A9DF80C1012789DF848
:1041C00016C0DF0940F0CB80BCF10B0F7FF449AF84
:1041D000052A78D1BDF81730FF2B3FF641AF3046A6
:1041E0009DF81720FEF752FF05465CE7BDF8173033
:1041F000012B7FF454AFFEF753FE002800F0C78078
:10420000A44A137823F0020313704EE7BDF8173069
:10421000012B7FF444AFFEF743FE002800F0B78087
:104220009C4A137843F0020313703EE7062518E713
:10423000994940F2654001F051FD2378012B3FF48C
:104240007FAE95E6934995480A780424C6E6944BD8
:104250001B68082B7FF474AE924B1B68002B3FF455
:104260006FAE09F0C3FD6CE61025FAE6062960D0B2
:1042700008294DD000297FF412AF8B4D0222284629
:104280000BF086FA834A2B781278900743F00101ED
:1042900048BF43F0030329700DF1150048BF2B7090
:1042A00002228149FFF7C2FD0546062D7FF4FBAED1
:1042B000F5E6794940F25D3001F010FD9DF81520DA
:1042C00032E70E25CDE60825CBE6052A01D02A07E0
:1042D000F9D1284609F0F0FC7349022208800DF15B
:1042E0001500FFF7A3FD0546DDE605F00F03072BDC
:1042F0009CD8BDF81710002998D1052A01D0002BB1
:10430000E1D1284609F000FD28460AF0B9F8CCE6CC
:104310005F4B1B78052B37D0042B7FF4C0AE624B6C
:104320001D700DF1150001225F49FFF77FFD054665
:10433000BBE79DF81830022B52D0032B3AD0012B4B
:104340007FF4ADAEBDF81B30002B3FF4AEAE0DF1E7
:10435000150012225549FFF769FD0546A5E7BCF196
:10436000000F6DD0BCF10A0F7FF47BAE052AAAD1F5
:104370003046FEF7D7FE4C493A4608700DF115005D
:10438000FFF754FD05468EE6474B1A70C9E70F2527
:1043900067E6FEF741FF2B78042B3FF486AE3D4ADB
:1043A0003E481378042123F0020313702970FEF7AE
:1043B00081FF7AE6BDF81B30002B3FF476AEBDF8E6
:1043C00019109DF8170001F019FB014600283FF471
:1043D00066AE0DF115000A78FFF728FD054664E783
:1043E000BDF81B30002B3FF460AE092B28BF09231A
:1043F0000193FEF76FFDDFF8A0B006464FF0090A03
:10440000A946002E54D07368002B39D05B688BB35B
:104410000DF12008002748F8147D00E0013772688C
:1044200001235568314600224046A8470028F5D1AF
:10443000337A326899441668BA445FFA89F9E0E73A
:10444000052A7FF440AF184B0DF1150019460222E2
:10445000A3F800C0FFF7EAFC054624E6FEF768FE75
:104460002B78052B3FF421AE05230C482B70FEF76B
:1044700021FF1AE6594640F2C72001F02FFCC7E79A
:10448000594640F2C62001F029FC7368BEE700BF20
:10449000100C00202C0C0020600D0100D80C010035
:1044A00030010010340100103C0C0020FC0C010015
:1044B0001E4E1F49019A30460BF046F986F80490CB
:1044C000A6F802A0FEF7ECFC18B1F37943F0200344
:1044D000F371FEF7FFFC174BBDF81B200199186024
:1044E0000020C3E902125E6001F0CAFA124980207E
:1044F000FEF7B8FD054630B1002001F0DBFA062DCD
:104500007FF4AFADCBE509F085FC802804D02846C8
:1045100001F0D0FA1025A4E5084B93E8030084E8E5
:104520000300284601F0C6FABFE500BF3C0C00209E
:10453000DC0C0100140C00209C0D0100100D01008A
:1045400038B505460C4609F065FCA84207D194E849
:104550000300044A82E803000023184638BD1023F4
:10456000184638BD300C002008B1402303600148D4
:10457000704700BF3C0C0020034B1B7843FA00F04F
:1045800000F00100704700BF2C0C00202DE9F04323
:104590001D461B7885B006460F4614460E2B00F2CA
:1045A0004581DFE813F01900A6001B010D0143014E
:1045B0002101BA004301430143014301D400F1004A
:1045C00004010F0020466FF0020101F03DFC0025C0
:1045D000284605B0BDE8F08394F82830002B00F0A1
:1045E000EA806B8840F2FF72934200F0278194F8D2
:1045F00008C0D4F804E04FEA8C0CBEF1000F40F084
:104600001A828D4A606994F82980A2FB0C911844A3
:10461000C9080231B0FBFCF90CFB19008842C0F05C
:104620009582B8F1000F00F0C680617A6068890059
:10463000002840F00082A2FB010EA06903EB000CF1
:104640004FEADE000230BCFBF1FE01FB1EC18142DD
:10465000C0F07E82A07A61688000002940F0EB8182
:10466000E169A2FB00C21944D2080232B1FBF0FC9E
:1046700000FB1C119142C0F06D82E07A62688000FC
:10468000002A40F0D881216AA2F13332A2FB00C295
:104690000B44D2080232B3FBF0F100FB11339A4213
:1046A00040F28980032194F8243023B16B88636140
:1046B000002384F8243094F8253023B16B88A3615B
:1046C000002384F8253094F8263023B16B88E36109
:1046D000002384F8263094F8273023B16B882362B6
:1046E000002384F827307B6930469B69984705464C
:1046F0006EE76FF00801204601F0A6FB00254FF49D
:10470000006301222273C4E90533C4E90733A560BD
:1047100084F8295084F828505AE795F90230002B84
:10472000C0F23B814B69DB68002B7FD0EB781BB973
:104730008B690BB1022198473B695B68402B00F203
:1047400081817B693046DB689847054640E7FEF784
:10475000D5FA054600287FF43BAF3046FEF76CFBE8
:10476000054600287FF434AF4FF40063A06084F85E
:10477000290084F82800C4E90533C4E9073320463A
:10478000012101F055FB23E7FEF726FB0546002833
:104790007FF41EAF3046FEF769FB054600287FF424
:1047A00017AF20466FF0010101F04EFB10E72046E5
:1047B000022101F03DFB0025284605B0BDE8F0834D
:1047C00020466FF0040101F03FFB7B6930469B6897
:1047D00098470546284605B0BDE8F08320460421E9
:1047E00001F026FB0025F3E6002900F0D080002C24
:1047F00000F02E816B78D9094FEA531240F0FE8009
:10480000012A13D1AB780A2B00F064810B2B00F046
:104810005381092B0AD12B79022B07D17B695B6865
:1048200023B12946304698470546D1E60625284655
:1048300005B0BDE8F08300BFCDCCCCCC6369207A55
:10484000B3F5006F4FEA800007D003F2FF73B3FBAC
:10485000F0F200FB123301336361D4F804C0BCF101
:10486000000F40F0E880BC4B626994F82910A3FB6C
:1048700000E302F2FF72DB080233B2FBF0FE00FB42
:104880001E229A428846C0F07481002993D0A36901
:10489000607AB3F5006F4FEA800007D003F2FF7330
:1048A000B3FBF0F200FB12330133A3616368002B0A
:1048B00040F0C180A3F13333A269A3FB00C302F22D
:1048C000FF72DB080233B2FBF0FC00FB1C229A42B1
:1048D0008846C0F0508100293FF46DAFE369A07AAB
:1048E000B3F5006F4FEA800007D003F2FF73B3FB0C
:1048F000F0F200FB12330133E3616368002B40F0F8
:104900009A80A3F13333E269A3FB00C302F2FF7282
:10491000DB080233B2FBF0FC00FB1C229A42884603
:10492000C0F02B8100293FF446AF236AE07AB3F54B
:10493000006F4FEA800007D003F2FF73B3FBF0F281
:1049400000FB1233013323626368002B73D1824B67
:10495000226AA3FB00C302F2FF72DB080233B2FB40
:10496000F0FC00FB1C229A42884638BF0321BFF4AA
:1049700022AFB8F1000F7FF496AE94F82430002BEC
:104980003FF4B1AE6B88636184F82480ABE6734971
:1049900040F27B1001F0A2F929E7EB781BB98B6993
:1049A0000BB1032198476368002B44D194F8283059
:1049B000002B3FF40AAF94F82930002B00F0D08090
:1049C0006369B3F5006F04BF012384F82430A36941
:1049D000B3F5006F04BF012384F82530E369B3F514
:1049E000006F04BF012384F82630236AB3F5006FFB
:1049F0007FF4E1AE012384F82730DCE612F00308EF
:104A00002CD0B8F1010F7FF411AFAB78022B00F07E
:104A10009480032B00F08980012B7FF407AF2B7962
:104A2000013B012B3FF602AF7B6929461B683046EC
:104A300098470546CCE520466FF0080101F004FADE
:104A40000025C5E545494FF4F67001F047F978E6D1
:104A500042494FF4BE7001F041F9CBE603F01F0369
:104A6000012B7FF4E3AEAB78062B7FF4DFAE03A817
:104A7000CDF80880FFF778FD044602A8EA78297986
:104A8000009023463046FDF7D1FD052805F10109C8
:104A900075D17B69E9781B69304698477B69E9786D
:104AA0005B690446424630469847224601464846DE
:104AB000FFF7BCF905468BE5B5F80310003118BFC8
:104AC00001212173BB69002B3FF475AE3046984736
:104AD00000257DE5EB78287923444FF400611872B6
:104AE000EB7804EB830359612B79A3B9637A002B2C
:104AF0007FF461AEA37A002B7FF45DAEE37A002BE6
:104B00007FF459AE257A84F82930002D7FF453AE16
:104B100084F828505CE584F82820EB78002B3FF4DB
:104B20004AAE84F82920002552E5681C424604F16B
:104B30000C01FFF77BF905464AE5E9780831681C66
:104B400042462144FFF772F9054641E5714610E7F8
:104B50000121A8E50221A6E5CDCCCCCCA40D010015
:104B60006369B3F5006F7FF426AE012384F8243027
:104B700021E66146FDE60121FBE60221F9E6029B02
:104B80003F2B03D90549AC2001F0A8F8214648463F
:104B9000029AFFF74BF905461AE500BFA40D010084
:104BA00010B5044608B1E06810BD034940F2692021
:104BB00001F094F8E06810BDA40D010038B910B5FB
:104BC00004468B6A084602219847204610BD032000
:104BD000704700BF2DE9F043DD4E0D46097A317074
:104BE00083B00446002800F0C780216840F2F1102D
:104BF000814200F0A282B1F5F97F1CD340F20A2075
:104C0000814200F0818139D8B1F5FA7F00F0F58159
:104C100040F2BC80B1F5007F00F06A8240F20120D2
:104C2000814200F0A98140F2FD10814200F06582CE
:104C30000020206065E1B1F5F47F00F08B8240F246
:104C4000898040F2EB10814200F0CF81B1F5F67F10
:104C5000C0F0D48040F2EF10814200F05F82B1F5E5
:104C6000F87F80F06481B1F5F67FE1D1002A00F091
:104C70008183207901274FF0000C0BE1B1F5047F0F
:104C800000F05D8140F2938040F21220814200F0FA
:104C90003A82C0F0898140F213208142C8D1AD4FE1
:104CA0003878002A00F0918394F804C096460121D8
:104CB0008EF800C0DFF8ACC20130C0B29CF800C072
:104CC0003870844500F21583A34F38780130C0B2A4
:104CD00038703778874240F2298309208B4220714F
:104CE00040F26783481C002A00F03083277957542C
:104CF00083424FF00401217140F28A8202EB000CE2
:104D0000471C8CF800109449287A0978884240F2B0
:104D1000B88101EB410005F10901DFF840C211F84B
:104D200000E084F804E00144BB42CCF8001040F2FB
:104D30005582791C002A00F07D822079D0558B4263
:104D40004FF00000207140F24482844FD7F800C039
:104D50004F1C76E040F2E110814200F0E781B1F5AE
:104D6000F17F5BD2002900F01881B1F5F07F7FF46C
:104D70005FAF01200021B6E7794940F2D910CDE9B3
:104D8000002300F0ABFFDDE900232EE7B1F5F97F4A
:104D900000F0EA8040F2F31081427FF449AF002A2C
:104DA00000F0E48221794FF0010C00279FE040F2EF
:104DB0000B20814200F0458140F20F2081427FF4B8
:104DC00037AF01214FF00008002A00F078822079E7
:104DD00002F808008B424FF00300207140F2F4818A
:104DE000074601F1010C402063455754207100F241
:104DF000988240F211232360012082E040F2E91002
:104E0000814200F01781B1F5F57F7FF411AF002AE0
:104E100000F0A8822179012000272AE040F2E51065
:104E2000814200F0BE8040F2E71081427FF400AF83
:104E30004A49D1F800C0002A00F09A82207901275F
:104E400000215054BB429CF801C084F804C040F2D9
:104E5000B681781C0321834202F807C0217140F219
:104E6000A981471C1154BB42297E217140F29881CF
:104E7000781CD15583426F7E277140F28C8100F1FE
:104E8000010C002163451754217140F27F810846CF
:104E90000CF101070921BB4202F80C00217140F21C
:104EA0007081084607F1010C21216345D05521711D
:104EB00040F262810CF101071120BB4202F80C1094
:104EC000207140F24F8107F1010C01216345D0555B
:104ED000217140F24C8108460CEB01070021BB42D6
:104EE00002F80C00217140F2308107F1010CD1551C
:104EF0006345287D207100F203824FF4FA7323602A
:104F0000012003B0BDE8F0834FF001080021002A22
:104F100000F014822079505443454FF0050121716F
:104F200000F21B8240F20B2323600120E9E7002AF4
:104F300000F02882217901274FF0000CBCE7002AFD
:104F400000F0128227794FF0010C00214BE700BFDF
:104F5000820C0020830C0020810C0020840C002097
:104F6000200E0100800C0020002A00F0058220792C
:104F700001274FF0000CB1E7002A00F022822079CF
:104F8000174601213870A54FDFF898C238789CF891
:104F900000C00130C0B238703EE0A14F0846397001
:104FA00097E601210027C5E6002A00F00C8220794F
:104FB00017464FF0010C002163453870217140F213
:104FC000F480964F38788E460CF1010802F80CE018
:104FD000E96A434511F800C084F804C000F29581E5
:104FE00040F21323236001208BE7002A00F0CC81DC
:104FF00027794FF0010C002043E7002A00F0E781F9
:1050000020791746012138708648844F95F814C0DE
:1050100080F800C00020387084453AD8DFF80CC210
:105020008148DCF800C09CF801C080F800C0002076
:10503000387046E6002A00F0A3812179012700207C
:1050400010E7002A00F0BA81217910464FF00108DC
:10505000017076487149D0F800900F78B9F1000FCF
:1050600000F0988199F80110B9420FD999F802100F
:105070004F444345795C217140F2B58008F101014C
:10508000A2E66A4A002313601B78FFDE00231B7828
:10509000FFDE00B22F6957F820708B423F792771ED
:1050A0004FEA800040F238814F1C1AB194F804C0D6
:1050B00002F801C02969DFF878C109580868207131
:1050C000BB4280B2ACF8000040F29280791C000A2A
:1050D000002A00F0088194F804C002F807C0994241
:1050E0002071C0F0288140F201232360012008E7ED
:1050F0004F49002708880121E9E748490878012736
:1051000080000021D1E74FF001084FF0000C434F21
:105110003878002A71D094F804E057E7002A00F0AC
:10512000358120794FF0010C0027BDE6002A00F000
:10513000F180217994460127E3E5002A00F01E81E1
:1051400020794FF0010C0027BFE640F2F3132360F3
:105150000120D6E6002A00F01B8194F804C001204B
:10516000002777E640F2F11323600120C9E64FF4EF
:10517000F97323600120C4E64FF4F8732360012023
:10518000BFE640F2EF1323600120BAE64FF4F67356
:1051900023600120B5E640F2EB1323600120B0E666
:1051A0004FF4F57323600120ABE640F21223236035
:1051B0000120A6E640F2E91323600120A1E64FF4A6
:1051C000F473236001209CE64FF4047323600120F4
:1051D00097E640F2E7132360012092E640F2E513E0
:1051E000236001208DE640F20F232360012088E632
:1051F0004FF400732360012083E6E96A434511F808
:1052000000C084F804C07FF6EBAE08F1010151E55F
:1052100040F2E1132360012073E600BF830C0020FD
:10522000810C00207C0C0020800C0020840C0020CD
:105230007E0C00208B422271CBD96648D0F800C08A
:1052400001319CF8010020718B42B8D90131032053
:105250008B422071AED90131287E20718B429FD9BB
:105260000131687E20718B4295D9013100208B423B
:1052700020718BD9013109208B42207181D90131F4
:1052800021208B4220717FF677AF013111208B42B4
:1052900020717FF667AF013101208B4220717FF6CC
:1052A00066AF014400208B4220717FF64EAF013182
:1052B000686920718B427FF620AE0131A4E603209D
:1052C0008B42207180D9013140208B4220717FF6C2
:1052D00090AD01F1010C00209C452071BFF465AF39
:1052E00001F1020813E799422071BFF4FCAE0131CD
:1052F00049E607208B42207156D901F1010806E6E4
:1053000002EB0C070CF101017DE602EB080E08F13F
:105310000101CDE40127F6E440F2FD1323600120F2
:10532000EFE502EB0C070CF1010C44E640F2172309
:1053300023600120E5E55718013123E605214345A7
:1053400021717FF6EFAD08F1010882E60421834266
:1053500021717FF65DAF471CD5E402EB080008F130
:10536000010875E601217CE70121ADE701219FE7F6
:10537000012166E701217EE7012193E701218BE707
:10538000012169E7012181E701216FE7012177E729
:1053900001215CE7104940F24310CDE9002300F001
:1053A0009DFCDDE900235DE640F20A232360012035
:1053B000A7E54FF4F07323600120A2E54FF0010848
:1053C00047E60121DFE5114683E7012172E401216F
:1053D0001AE600BF840C0020780E010038B50D4697
:1053E000044620B1236953F82530186838BD0449B4
:1053F000512000F073FC236953F82530186838BD3C
:10540000200E010030B50D4683B0044630B123694B
:1054100053F825309868104403B030BD0349019219
:10542000512000F05BFC019AF1E700BF200E010063
:1054300038B50C460546B0B12379012B0BD0022BB1
:1054400007D12B6A601CD3E90012BDE83840FEF793
:10545000EDBC062038BDEB69601CD3E90012BDE845
:105460003840FEF7E3BC0249512000F037FCE3E787
:10547000200E010030B5044685B0F8B1257A9DB103
:10548000A27A012A04F1090315D9E17A226A0B44B0
:10549000116852680191587801A90023CDE90223CF
:1054A000FDF7CCFD05B030BD094940F2431000F0D6
:1054B00015FC6B78FFDE00231B78FFDE05495120C9
:1054C00000F00CFC02494FF4887000F007FCD5E7AF
:1054D000780E0100200E010030B50D4687B004465D
:1054E00050B314F1100F21D0236AE9781A681170B3
:1054F000D3E9002300250132013B2846CDE90323EF
:10550000059500F0BDFA284603A9FDF797FD05466D
:1055100030B90C4B029401A90193FFF711F805462D
:10552000002000F0C7FA284607B030BD06494FF406
:10553000FE7000F0D3FBD7E70449512000F0CEFB0A
:10554000CFE700BFBD4B0000BC0E0100200E0100E4
:1055500038B504460D4629B15CB12368A3B1DD61BD
:10556000002038BD0C4940F22F2000F0B7FB002C82
:10557000F3D10949512000F0B1FB0749412000F067
:10558000ADFB2368002BEAD10349422000F0A6FBC3
:105590002368DD61002038BD200E010070B50D4686
:1055A000044670B1236833B1DB699BB129462046BC
:1055B000BDE8704018470849422000F08FFB23687F
:1055C000F2E70549512000F089FB0349412000F032
:1055D00085FBE7E7062070BD200E010070B50D4683
:1055E000044690B131B304F1100622683AB12B465B
:1055F000314620460C32BDE87040FEF7C7BF104967
:10560000422000F06BFB2268F1E70D4940F2971051
:1056100000F064FB25B90A494FF4CC7000F05EFB42
:105620000749512000F05AFB05494120102600F09F
:1056300055FBDAE702494FF4CC7000F04FFBD2E79C
:10564000200E01002DE9F041044684B0002867D007
:105650002568002D5ED0206B04F02AFE50B105F1C4
:105660000C006FF0080100F0EFFB0024204604B0AE
:10567000BDE8F0812068002843D0257ACDB1A37A17
:1056800004F109029BB1E37A00F10C056FF0080107
:10569000284612F8038000F0D7FB206B04F008FEC8
:1056A000064668B10024204604B0BDE8F0811B78AE
:1056B000FFDE254940F2431000F010FB6B78FFDE5F
:1056C00004F11000FFF76CFA324607460146206BE2
:1056D00004F074FD90BBD7E9001200231846019135
:1056E000CDE9022300F0CCF9404601A9FDF7A6FC64
:1056F0000446F0B1002000F0DDF9204604B0BDE81A
:10570000F0814220114900F0E9FA257A2068002D45
:10571000B5D1CEE70D49422000F0E0FA25689AE7BE
:105720000A49512000F0DAFA0849412000F0D6FA7F
:105730008EE72846082100F07BFBDBE70349912038
:1057400000F0CCFAC7E700BF780E0100200E010080
:105750002DE9F04F804683B000286ED0D8F8003095
:105760000193002B61D008F11000FFF719FAD8F867
:105770003040054600222946204604F01FFD05283A
:10578000F8D1002000F07CF998F808A0BAF1000FD9
:105790003ED000273B4652469342DFF8B89008F1CE
:1057A000090632D296F801B0BBF1000F23D00025D4
:1057B0002A4659460DE0B4782C44305D00F00F02C3
:1057C000072A0BD8030610D40135EAB2934512D943
:1057D00071789142EFD800231B78FFDEBF20494645
:1057E00000F07CFA305D0306EED5013508F07EFE50
:1057F000EAB29345ECD80137FBB2534506F10306F4
:1058000006D298F808209342CCD300235B78FFDEC1
:1058100001986FF008010C3000F016FB002000F03A
:1058200049F9052003B0BDE8F08F0A49422000F095
:1058300055FAD8F80030019395E70649A22000F008
:105840004DFA0449512000F049FA0249412000F084
:1058500045FA83E7200E01002DE9F0410F4686B09E
:105860001646044600285FD02568002D56D0206BD0
:10587000029601A9019704F015FC0646002848D1BC
:10588000EB685A073FD4EB681B073ED495F83430D9
:10589000002B3AD12068002854D0257A002D4AD018
:1058A000A37A04F10902002B43D0E37A00F10C053E
:1058B0006FF00801284612F8038000F0C5FA206B4B
:1058C00004F0F6FC074600BB04F11000FFF768F98E
:1058D0003A4606460146206B04F070FC00283CD195
:1058E000D6E90012002318460391CDE9042300F005
:1058F000C7F8404603A9FDF7A1FB064640B30020C8
:1059000000F0D8F801E0FDF797F8304606B0BDE8A2
:10591000F0811126304606B0BDE8F08111494220E1
:1059200000F0DCF92568A2E70E49412000F0D6F925
:105930009AE71B78FFDE0C4940F2431000F0CEF9E5
:105940006B78FFDE4220074900F0C8F92068A4E721
:105950002846082100F06CFAD1E70249912000F0B6
:10596000BDF9BDE7200E0100780E0100F0B50E462E
:1059700085B017460446002836D0206870B3257AD3
:105980001DB3A37A04F1090233B3E37A00F10C04E6
:105990006FF008012046D55C00F056FA0023184647
:1059A0000393CDE9016700F06BF8284601A9FDF7E4
:1059B00045FB054618B92046082100F039FA0020B9
:1059C00000F078F8284605B0F0BD0A4940F24310CF
:1059D00000F084F96B78FFDE1B78FFDE4220064979
:1059E00000F07CF92068CAE70349412000F076F90D
:1059F000C3E700BF780E0100200E0100F8B568B1C2
:105A000005282DD81A4B1E5C36B11A4B53F8265078
:105A100045B32B782BB9AE1C3046F8BD164E304638
:105A2000F8BD0020FEF7A0FD2B780646E3B1134F2A
:105A300000240134E4B22B7826F8143015F8013F25
:105A400033B11E2CF5D93946E62000F047F9F0E7CE
:105A5000631C5B00DBB243F4407333803046F8BD17
:105A60000026D9E72E46D7E740F20233F5E700BF1C
:105A7000BC0F0100A40F0100060F0100600F010020
:105A800008B5EFF30583C3F308032BB172B6074AD9
:105A900013680133136008BDEFF31483DB07F5D5FA
:105AA0000349432000F01AF9F0E700BF880C0020FA
:105AB000C40F010008B5EFF30583C3F3080333B146
:105AC000074A1368013B136003B962B608BDEFF3E0
:105AD0001483DB07F4D50349512000F0FFF8EFE70A
