:1000000000000420B5020000DD020000CD57000012
:10001000E1020000E3020000E50200000000000031
:10002000000000000000000000000000E7020000E7
:10003000E902000000000000EB020000ED020000F9
:1000400059A40000EF02000045A50000EF020000E7
:10005000EF020000EF020000659E0000EF020000CA
:10006000EF020000EF020000EF020000EF020000CC
:10007000EF020000EF020000EF020000EF020000BC
:10008000EF020000B1190000EF020000EF020000D3
:10009000511A0000EF020000EF020000EF02000022
:1000A000EF020000EF020000EF020000EF0200008C
:1000B000EF020000EF02000000000000000000005E
:1000C000EF020000EF020000EF020000EF0200006C
:1000D000EF020000EF020000EF02000051C8000034
:1000E000EF020000EF020000EF020000000000003D
:1000F00000000000EF02000000000000EF0200001E
:1001000000000000000000000000000000000000EF
:1001100000000000000000000000000000000000DF
:1001200000000000000000000000000000000000CF
:1001300000000000000000000000000000000000BF
:1001400000000000000000000000000000000000AF
:10015000000000000000000000000000000000009F
:10016000000000000000000000000000000000008F
:10017000000000000000000000000000000000007F
:10018000000000000000000000000000000000006F
:10019000000000000000000000000000000000005F
:1001A000000000000000000000000000000000004F
:1001B000000000000000000000000000000000003F
:1001C000000000000000000000000000000000002F
:1001D000000000000000000000000000000000001F
:1001E000000000000000000000000000000000000F
:1001F00000000000000000000000000000000000FF
:1002000010B5054C237833B9044B13B10448AFF350
:1002100000800123237010BD240300200000000093
:10022000EC08010008B5034B1BB103490348AFF3C9
:10023000008008BD0000000028030020EC08010039
:10024000154B002B08BF134B9D46A3F5803A0021A8
:100250008B460F461348144A121A0DF0C0FD0F4B7F
:10026000002B00D098470E4B002B00D09847002061
:10027000002104000D000D48002802D00C48AFF307
:1002800000800DF031FD200029000DF0D5F90DF0B2
:1002900017FD00BF0000080000000420000000005F
:1002A000000000002403002094150020000000003E
:1002B000000000000649074A074B9B1A03DD043B78
:1002C000C858D050FBDC0DF019FCFFF7B9FF000057
:1002D0007C0A01000000002024030020FEE7FEE766
:1002E000FEE7FEE7FEE7FEE7FEE7FEE7FEE7FEE7E6
:1002F000F0B595B0002415460F4608461E4609F095
:1003000099F8384623460895082205A91A9D0996AA
:100310000D950A948DF82C400C9409F0E5F89DF8A1
:1003200014308DF81140DDE9061003F00302012AB4
:10033000CDE9020127D0022A04D0384609F07EF820
:1003400015B0F0BDBDF81650C3F3C2038DF81030E0
:10035000AD090826082D2C4628BF0824334622461E
:100360000EA9384609F0C0F82D1B214608AB02AA99
:100370000EA8264401F012FA002DEBD1384609F000
:100380005DF815B0F0BDBDF81460059DC6F3831689
:10039000C3F3C204B2000EA9384608238DF81040FA
:1003A000C5F3952509F0A0F808AB324628460EA9FA
:1003B000009302AB01F04CF9384609F03FF815B054
:1003C000F0BD00BF704700BF00B583B0044B009381
:1003D000044A4023FFF78CFF03B05DF804FB00BF25
:1003E000E90300004403002038B50E480E4D0378A1
:1003F0000E4CEB5C0025D2B2257053B90C300AF0DC
:1004000037FB58B90A4B1B7813B12378002BFCD06B
:1004100038BD04300AF060FE0028F3D001F06EFA17
:10042000F0E700BF00000020B41400208403002087
:100430004003002070B51348134A0378D35C88B09A
:10044000DBB90C300AF096FA104D0FCD6C460FC494
:1004500095E80F0008AD062645F8206D84E80F00EA
:1004600029460022074809F019FC08B101F046FAB4
:10047000074B00221A7008B070BD04300AF0ACFDC2
:10048000E2E700BF00000020B414002078EA00007A
:1004900040030020064B8B6004284FF00003CB6024
:1004A0004B609CBF034B53F820300B60704700BF7C
:1004B000B0EC0000D4EC0000C368DB6800225A7185
:1004C000704700BFC368DB6801225A71704700BFE4
:1004D00030B40E4B0E4D0F4CED1A00222D09C1E920
:1004E0000242C1E900220BD003EB0515DC68247938
:1004F000FF2C02D0904205D001321033AB42F5D12F
:1005000030BC70479B680B6030BC70471C0A010010
:100510003C0A0100E8EC00000129034604D0816890
:10052000D1F84811890704D500221846114608F071
:10053000A7B800B5D2E90031054A83B0CDE9002162
:10054000044A022106F0D4FC03B05DF804FB00BFAE
:1005500074EB000068EB00008368D3F848319B0718
:1005600033D42DE9F0471B4C1B4E361B360982B0A5
:1005700028D00746DFF868A0DFF86890DFF86880C9
:1005800004EB06160CE06D79CDF804C0002D0CBF0D
:1005900055464D460095103406F0AAFCA64211D0EF
:1005A000D4E902E595F804C0BCF1FF0F734642465A
:1005B0004FF008013846E6D1084A103406F098FC9E
:1005C000A642EDD102B0BDE8F0870022114608F046
:1005D00057B800BF1C0A01003C0A0100A0EB000054
:1005E00094EB00008CEB0000C0EB00008368D3F8B4
:1005F00048319B0703D4044A022106F079BC00224B
:10060000114608F03DB800BFE4EB00008368D3F862
:1006100048319B0703D4044A022106F069BC00223A
:10062000114608F02DB800BFE4EB0000F0B5324CE5
:1006300085B004F5836005F089FA04F2144005F0F2
:1006400085FAD4E9013703EA0702D01C04EB8001E4
:1006500014F8200010F0040044D003F1020C0E78CE
:1006600006F00306012E654635D0022E02F1030680
:1006700021D004EB86010028F1D104EB8202013382
:10068000D26801923B4004EB830302F00302012A8B
:10069000DE6829D0022A23D1BDF806309B09033336
:1006A000360C05EB9305154805F05CFA00B1656062
:1006B000304605B0F0BD4B880CEB931307EA0302FC
:1006C000D11C03F1020C14F82100654604EB8101F2
:1006D00000F00400CFE70B88C3F383136344EDE716
:1006E0000026E0E79D1CC8E7BDF80430C3F3831380
:1006F000360C1D44D7E700BF580400206C080020CA
:100700002DE9F0410F4C104D52F8046C2D1B2D09B2
:1007100007460FD004EB051502E01034AC4209D0B7
:10072000A16830460DF090FB0028F6D1E3685871BF
:10073000BDE8F08133463846044A0221BDE8F04165
:1007400006F0D6BB1C0A01003C0A010050EB000079
:100750002DE9F041104C114D52F8046C2D1B2D0960
:10076000074610D004EB051502E01034AC420AD065
:10077000A16830460DF068FB0028F6D1E36801223D
:100780005A71BDE8F08133463846054A0221BDE87A
:10079000F04106F0ADBB00BF1C0A01003C0A01009D
:1007A00050EB000070B4104A104E114C921B002305
:1007B000D208C1E902434B600CD00E4D2C88A042F8
:1007C00004D10CE035F82340A04206D001339A4210
:1007D000F8D100220A6070BC704706EBC30632688D
:1007E0000A6070BC704700BF88090100F008010072
:1007F000B0EC00006C0200202DE9F04FCB683E4EBB
:10080000DFF820915B79A6EB090685B08B46F608E8
:100810008046002B6BD0394A394B0821404606F000
:1008200067FB384A0821404606F062FB76B3364D36
:10083000DFF8F4A0B70000240023EA5AA2423AD01D
:1008400004339F42F9D15146002335F82320A242B8
:1008500041D001339E42F8D100208446D646002381
:1008600035F82320A24223D001339E42F8D1002341
:1008700084450ED8254A0292CDE9001E0134244A4F
:100880000821404606F034FBA642D5D105B0BDE8AC
:10089000F08F204A0292CDE9001E01341C4A082143
:1008A000404606F025FBB442C6D105B0BDE8F08F46
:1008B00059F83330DCE7DBF80C2017491279595826
:1008C00002EB4202072393400B40D340DBB2134AB2
:1008D00052F82310B8E709EBC30393F806C00F4B97
:1008E0006046032828BF032053F820E0B7E70C4AEE
:1008F000022106F0FDFA8EE78809010020EC0000D5
:1009000014EC000040EC00006C020020E0EB000062
:1009100080EC000098EC0000B8020020C0EC000061
:1009200000EC0000F0080100F8EB000013460A4656
:10093000C168FFF761BF00BF2DE9F047124C134DAE
:1009400052F8046C2D1B2D09804615D01746894698
:1009500004EB051502E01034A5420DD0A168304625
:100960000DF072FA0028F6D13B464A462146404631
:10097000BDE8F047FFF740BF33464046044A022136
:10098000BDE8F04706F0B4BA1C0A01003C0A0100B9
:1009900050EB00002DE9F04F8E4B8F4C52F8049C29
:1009A000A3EB04085FEA181885B0064611D0174675
:1009B0000D4604EB081802E01034A04509D0A168E8
:1009C00048460DF041FA0028F6D15DB905B0BDE802
:1009D000F08F824A4B463046022105B0BDE8F04F09
:1009E00006F086BAE3687E49386893F804900722D7
:1009F0000DF044FA002866D1012D00F0DE80DFF80A
:100A00000C8204460A2258F8041B78680DF036FA66
:100A100058B10134052CF5D17B68724A3046022169
:100A200005B0BDE8F04F06F063BAE3B2022D0193C2
:100A300040F0BF806C4C6D4BA3EB04085FEAD80814
:100A40002746C3D009EB490307229A400292019A34
:100A5000DFF8A4A10194DFF8A4914FEA880802FA14
:100A600003FB0025144609E0019B53F8153006F0FE
:100A70003FFA0435A84507F10807A7D0BB79A34280
:100A80004A464FF002013046EED355F80A2002994B
:100A900082EA0B030B405340C3F3C202C3F382113B
:100AA0008A4238BF0A4603F007018A4238BF0A4625
:100AB0004F4945F80A30C3F342206918824238BFD3
:100AC00002464A80D5E708224A4938680DF0D6F92F
:100AD00000287AD1012D0190ACD0012303F180438D
:100AE000013B09EB4909A7F1040A07EB8307072338
:100AF0003D4C3E4A03FA09F30293019BA2EB040822
:100B00004FEAD80803FA09F3B3460AEB850A4646CA
:100B10000393A04657F8044F002E43D0C14600254A
:100B200004E00135AE4209F108093AD020222146FD
:100B300058F835000DF0A2F90028F2D1AE4230D0BD
:100B400099F80620019B9A4223D32B4C039B54F81F
:100B5000252002982649534003405340C3F3C20264
:100B6000C3F38210824238BF024603F0070082427C
:100B700038BF0246C3F3422001EB8501824238BFF1
:100B8000024644F825304A80BA45C3D105B0BDE8D5
:100B9000F08FD9F80030194A0221584606F0A8F91A
:100BA000F2E73C68164A23460221584606F0A0F9AF
:100BB000EAE77FF60BAF022390E7124A30460221A4
:100BC00005B0BDE8F04F06F093B93B680E4A3046D9
:100BD00025E700BF3C0A01001C0A010050EB0000A1
:100BE000B8EA000030EB0000F008010088090100BD
:100BF0006C020020D8EA0000B8020020F8EA0000E9
:100C00001CEB0000C0EA0000E0EA0000C0EC0000BD
:100C100001B970472DE9F04FC368DB6885B089469C
:100C2000174683467A4910681D7907220DF026F988
:100C300000286ED1B9F1010F00F0DE80754E044638
:100C40000A2256F8041B78680DF018F958B10134DF
:100C5000052CF5D17B68704A5846022105B0BDE8E5
:100C6000F04F06F045B9E3B2B9F1020F019340F03D
:100C7000C0806A4C6A4F3F1BFF08264646D0019B46
:100C8000029405EB45051A46AA404FF0070A0AFAF6
:100C900005FADFF89891DFF898810192BF000025EE
:100CA0001C4609E0029B53F81530043506F020F984
:100CB000AF4206F1080629D0B379A34242464FF06D
:100CC00002015846EED355F80920019B534003EA30
:100CD0000A035340C3F3C202C3F382118A4238BFEE
:100CE0000A4603F007018A4238BF0A464D4945F8D3
:100CF0000930C3F342206918824205F1040538BF68
:100D00000246AF424A8006F10806D5D105B0BDE8DB
:100D1000F08F0822444938680DF0B0F8002873D1EC
:100D2000B9F1010F0190A4D0012303F18043013BED
:100D300005EB45053A1F07EB83070723AB40374C0C
:100D4000374E0293019B361BAB4002EB8909F60834
:100D50000393A04657F8044F002E43D0C246002507
:100D600004E00135AE420AF1080A3AD020222146B9
:100D700058F835000DF082F80028F2D1AE4230D09C
:100D80009AF80620019B9A4223D3284C039B54F8DF
:100D9000252002982349534003405340C3F3C20225
:100DA000C3F38210824238BF024603F0070082423A
:100DB00038BF0246C3F3422001EB8501824238BFAF
:100DC000024644F825304A80B945C3D105B0BDE894
:100DD000F08FDAF80030164A0221584606F088F8FB
:100DE000F2E73C68134A23460221584606F080F891
:100DF000EAE78BD9022398E70F4A5846022105B04B
:100E0000BDE8F04F06F074B83B680C4A24E700BF19
:100E1000B8EA0000C0EC000030EB0000F008010070
:100E2000880901006C020020D8EA0000B802002006
:100E3000F8EA00001CEB0000C0EA0000E0EA000055
:100E40002DE9F84F234B24480022FF21C3F8182432
:100E50009960C3E90022C3F8142483F8202408F021
:100E60008BFA814610B14846BDE8F88FDFF87C80E8
:100E70001A4F1B48A7EB080708F0C8FCFF08F2D080
:100E8000DFF860B04D460026344608EBC50AA5429F
:100E90004FF0140208D058F83410DAF800000CF0C3
:100EA000EDFF0028C8BF01360134A742EFD12BF86F
:100EB00025600135BD42E6D10A4B0B490BEB850598
:100EC00000225A8004339D4241F8042BF9D1484650
:100ED000BDE8F88F580400203C0A01008809010091
:100EE000A4EC00006C020020B8020020F008010011
:100EF00021B9124B03EBC00000687047104A0F493C
:100F0000521AD20815D030B40E4D2B88834212D01D
:100F1000002303E035F82340844205D001339A4290
:100F2000F8D1002030BC704701EBC300006830BC32
:100F30007047104670470846F8E700BFF008010008
:100F4000880901006C020020094B013903EBC00045
:100F500003290BD8DFE801F00208060402207047DD
:100F6000407970470079704704207047002070472F
:100F7000F00801002DE9F843DFF8D890074600207B
:100F80008846D9F8084004F00FFCD9E90132D9F8B5
:100F90000060134401339B1B012B56D809F21C45FA
:100FA0000121284604F0A0FDFFF740FB014628463A
:100FB00004F09AFDD9E90132D9F800101344013345
:100FC0005B1A012BECD90A400332052302310020C1
:100FD00049F82230C9F8001004F0EEFB00211C484B
:100FE00004F060FD80F31000731C234009EB8303C1
:100FF00000043440033440EA1740D86019F8243024
:1010000067F3C50309F8243039F824306FF38913E6
:1010100029F8243059F8242068F39F22134601212F
:1010200061F301036FF3820349F8242009F82430A7
:1010300099F820341BB906E000F00EF818B1D9E990
:1010400000329A42F8D1BDE8F8833146BBE700BFD1
:1010500074080020580400202DE9F04F9E4C002316
:1010600085B0C4F81834BFF34F8FD4E9015605EAB0
:101070000602D31C04EB830114F82330580719D55A
:1010800027680B7803F00303012B3DD0022B03D11B
:101090004B88023505EB931506EA0502D4F81804CF
:1010A000D31C04EB830128B9AF423ED914F8233096
:1010B0005B07E6D404EB82026B1CD26801923340DA
:1010C00004EB830302F00302DB680293022A05F1BA
:1010D000020800F0A380012A2BD0D4F810543DB1AF
:1010E0002B6828469B689847EB681D68002DF7D150
:1010F0007A4B5B88012B0DD8D4E90030C01A18BF99
:10110000012005B0BDE8F08F0B880235C3F38313CF
:101110001D44C1E7724B73487349C01AC0080004EC
:1011200040F00200FFF726FFE6E7676005B0BDE884
:10113000F08FBDF804706D48C7F38313062B28BFEA
:101140000623991C63F389178900ADF8047008F031
:1011500015F9C7F3C20781460028BED008F06AF926
:101160000023082201A9484608F08AF9BDF8043096
:1011700013F4707F00F0AE806FF0010BABEB050B4A
:10118000082506EA080103312B46042204EB8101FD
:10119000484608F075F9BDF8043008F1010A0BEB78
:1011A0000A02C3F383139342D04605F10405E8D83D
:1011B000D4F81834002B77D1D4F81054FDB1DFF8EF
:1011C00034810726EB685A79B2B11A79BDF8080064
:1011D00002EB420158F8200006FA01F2052F02EA5C
:1011E000000208BF0327CA40BA4205D32B6849460C
:1011F0001B6828469847EB681D68002DE2D14846D9
:1012000008F01CF9002004F0CFFAD4F818340BB918
:10121000C4F804A0002004F0CFFA6DE7BDF8063052
:1012200032489DF804704FEA931A5546502D28BF56
:10123000502565F38F1305F10801ADF8063008F06D
:101240009DF8C7F3C207814600283FF446AF26EA5F
:10125000080B0BF1010B08F0EDF84FEA8B0B0023A4
:10126000082201A9484608F00BF95D4527D9EBB2E1
:10127000BBF1000F1CD006EA0801A3EB0B030331FE
:1012800004EB8101DDB25A460823484608F0F8F81D
:101290002A460BF108031649484608F0F1F80AF10E
:1012A000030A08EB9A0A83E7484608F0C7F823E7E1
:1012B0002A4608230E49484608F0E2F8EFE706EA16
:1012C0000801033104EB81012A460823484608F04F
:1012D000D7F8E4E7C2466BE75804002084020020F8
:1012E000F00801002009010030EE00003C0A010076
:1012F00064040020B80200202DE9F047DFF8E4A0E4
:101300000746002091468846DAF8084004F04CFA77
:10131000DAE90132DAF80060134401339B1B022B37
:101320005CD80AF21C450121284604F0DDFBFFF7DA
:101330007DF90146284604F0D7FBDAE90132DAF8F4
:101340000010134401335B1A022BECD90A4003321C
:101350000331452300204AF82230CAF8001004F077
:101360002BFAB31C23400AEB830300211C48C3F86B
:101370000C9004F097FB80F31000731C23400AEBE1
:10138000830300043440033440EA1740D8601AF85D
:10139000243067F3C5030AF824303AF824300121D9
:1013A00061F389132AF824305AF8242068F39F2225
:1013B000134661F301036FF382034AF824200AF80D
:1013C00024309AF820341BB906E0FFF745FE18B127
:1013D000DAE900329A42F8D1BDE8F0873146B5E744
:1013E00074080020580400202DE9F84F3D4C804639
:1013F000002093469A46A568894604F0D5F9D4E9B9
:101400000132276813440133DB1B042B67D804F235
:101410001C460121304604F067FBFFF707F901463F
:10142000304604F061FBD4E90132216813440133F2
:101430005B1A042BEDD90A4003320531C523002085
:1014400044F82230216004F0B7F9B81CFA1C284097
:101450002A403B1D2B4004EB800004EB820204EB8E
:101460008303C0F80CB00021C2F80CA01E480A9AF1
:10147000DA6004F017FB80F310007B1C2B4004EBB8
:10148000830300043D40033540EA1840D86014F857
:10149000253068F3C50304F8253034F825300322DD
:1014A00062F3891324F8253054F8252069F39F222C
:1014B0001346012161F301036FF3820344F82520F1
:1014C00004F8253094F820341BB906E0FFF7C4FD7A
:1014D00018B1D4E900329A42F8D1BDE8F88F394604
:1014E000A9E700BF58040020740800202DE9F04F40
:1014F00085B0444C0E9EA5680296CDE90023804637
:10150000994600200F9B039392468B4604F04CF9BA
:10151000D4E90132276813440133DB1B052B6FD854
:1015200004F21C460121304604F0DEFAFFF77EF893
:101530000146304604F0D8FAD4E901322168134458
:1015400001335B1A052BEDD90A400332063140F214
:101550000513002044F82230FE1C216004F02CF911
:10156000B91C29402E403A1D2A4004EB810104EBAE
:1015700086067B1D2B4004EB8202C1F80CA004EB15
:101580008303C6F80C900E9ED66000210F9A1E4869
:10159000DA6004F087FA80F310007B1C2B4004EB28
:1015A000830300043D40033540EA1840D86014F836
:1015B000253068F3C50304F8253034F825300422BB
:1015C00062F3891324F8253054F825206BF39F2209
:1015D0001346012161F301036FF3820344F82520D0
:1015E00004F8253094F820341BB906E0FFF734FDE9
:1015F00018B1D4E900329A42F8D105B0BDE8F08FB5
:101600003946A1E75804002074080020044BD3E9B0
:1016100000239A4201D0FFF71FBD0020704700BF92
:101620005804002038B5094BD3F81044012583F83D
:1016300020544CB1E3685D71236820465B6898478D
:10164000E3681C68002CF5D138BD00BF58040020A9
:101650002DE9F04784B01D460C9C002394F80C80C3
:101660002373EB8881460E461746002B40D1297A1A
:1016700005290ED06B7AA88873BB404B53F821A084
:101680000021FFF735FC524603463D49204607F04E
:10169000FBFA062F09D8DFE807F0046A4249525DD9
:1016A00033004946204607F0EFFA2B7A052B05D088
:1016B0006B7A5BB93349204607F0E6FA204607F01B
:1016C000D7FA84F80C8004B0BDE8F0872E4A2F4981
:1016D000204607F0D9FAEDE7FFF736FC2C4B2B49F3
:1016E00053F82020204607F0CFFA297AA888C4E7CB
:1016F000254A00922749284A204607F0C5FAB6E74E
:10170000D6E90410D6E900230390D6E90207029136
:10171000CDE900074946204607F0B6FAC5E7494635
:10172000D6E90023204607F0AFFABEE7B168D6E954
:10173000002320460091494607F0A6FAB5E7D6E90E
:101740000201D6E90023019100904946204607F0A6
:101750009BFAAAE7D6E90371B068D6E900230291A3
:10176000CDE900074946204607F08EFA9DE732682A
:101770004946204607F088FA97E700BF30F100009D
:1017800024F10000BCEB000018F1000020F1000083
:10179000C0F0000000F10000F8F00000082900D9B6
:1017A00070472DE9F04F1D46904600232A7B2B738E
:1017B00085B0B8F80630039207460E46002B7BD161
:1017C00098F80810052911D098F80930B8F80400E5
:1017D000002B63D13C4B53F821400021FFF788FBDD
:1017E000224603463949284607F04EFADFF8FCB096
:1017F000DFF8FC90002405E03A5D013407F044FA7C
:10180000082C09D0A64249462846F5D85946013445
:1018100007F03AFA082CF5D12D49DFF8D8B0DFF8F7
:10182000D890284607F030FA00240CE017F804A0FE
:10183000BAF17E0F23D92E2249462846013407F0FB
:1018400023FA082C08D0A642F0D85946284601347D
:1018500007F01AFA082CF6D198F80830052B02D0B8
:1018600098F80930A3B91B49284607F00DFA284615
:1018700007F0FEF9039B2B7305B0BDE8F08F0CF069
:101880005BFA50445246437813F0970FD3D0D3E716
:10189000114A1249284607F0F7F9E4E7FFF754FB2D
:1018A0000F4B0E4953F82020284607F0EDF998F821
:1018B0000810B8F804008DE7074A009209490A4A5F
:1018C000284607F0E1F97BE730F1000024F1000041
:1018D000F0F00000BCEB000018F1000020F1000067
:1018E000C0F0000000F10000F8F00000ECF0000093
:1018F000E4F000002CF10000F4F0000000B585B029
:1019000000230390194601AA44F20100CDE90133F6
:1019100000F004F805B05DF804FB00BF70B572B6C6
:10192000FFF780FEFFF772FE0028FBD1184E738888
:10193000F3B9184B1B68DB070DD5174C174D00BECC
:101940007388012B07D9601BC008000440F0020017
:101950001349FFF70FFBBFF34F8F1249124BCA68B1
:1019600002F4E0621343CB60BFF34F8F00BFFDE78B
:10197000094C0A4D0D49601BC008000440F00100ED
:10198000FFF7F8FA034B1B68DA07D9D5D7E700BF92
:1019900084020020F0ED00E020090100F0080100C1
:1019A00088F1000000ED00E00400FA057CF1000081
:1019B000F8B5204A204B0024C2F84041C2F8444107
:1019C000C2F84841C2F84C41C2F80041C2F8044193
:1019D0001B6833B31949D2F804550A68AD1A1A685E
:1019E00025F07F45AA4227460DD8197CDE69AD1A3D
:1019F000144419B11F74D3E9052090471EB1334632
:101A00001A68AA42F1D90E490E4A0B7812789A4206
:101A100008D00D490D4A41F823404FF48013C2F815
:101A20000031F8BD531CDBB2022B08BF00230B7042
:101A3000EFE700BF00100140340A0020300A002008
:101A40002D0A00202C0A0020240A002000E100E0DA
:101A50002DE9F04F8C4A8D4913780978DFF85082D0
:101A6000994285B0D8F800A000F07B810133DBB249
:101A7000022B08BF002386481370864A076852F875
:101A800023107B1823F07F4300240360534626462F
:101A90002046A446ABB11A688A4200F26581DC6830
:101AA000C3F800C0891A1044DA6934B13D1825F032
:101AB0007F45C3E90154DE611E4613460124002B15
:101AC000E9D1002C40F07C8101230093724B734FCD
:101AD000DFF8E09143F00103019355464FF0000B0E
:101AE00046B3D6E901C13446F669694B6C481A68B9
:101AF000ACEB020323F07F43834248D80B442360BE
:101B000000220121C4E90122E2612174002D5DD08F
:101B10002A689A424DD2284603E00A689A424FD278
:101B20000846C1699B1A0029F7D12360E161C461AD
:101B3000002ED6D178783978884264D00B4603EBF2
:101B400043034C1CBA7807EBC303E1B28A421A790B
:101B5000397004BF00213970022A9C6844D0032ADE
:101B600038D0012AE8D1227C002AE5D1D3F80CC074
:101B7000C4F804C01969A1605869E06099F80000D0
:101B80009B69A3610028B0D062609446ADE7A2EBE8
:101B90000C0222F07F428A4202D28B1A2360AFE706
:101BA00000230122C4E90033A360E36122746DB114
:101BB0002A68C8F80040D31A2B60E56125468FE7F4
:101BC000D21A0A602360E161C461B1E7C8F800403D
:101BD000254685E7002DAFD000232B74ED69002D3D
:101BE000FBD1C8F80050A5E74DB1AC422B4603D15C
:101BF000E4E094422FD01346DA69002AF9D1002399
:101C0000237488429AD1BBF1000F01D1554553D0BE
:101C1000002D56D1234E244A1F4C4FF480334FF4ED
:101C200000310127C2F880103C43C6F848334FF416
:101C30003C60C6F808337760A047154BB7604FF497
:101C40003C601D60A047194B1D70002389F80030CF
:101C500005B0BDE8F08FA34200F09180E0692168F3
:101C6000D861002800F086802A4603680B44036090
:101C7000AA424FF000033978787823741CBF1546C8
:101C80004FF0010BBDE700BF2C0A00202D0A0020F9
:101C9000300A0020240A0020A0F1000014090020CE
:101CA000FEFF7F000010014000E100E0210A00205B
:101CB000340A0020200A0020009B002BC5D0002DF4
:101CC000A8D0434B434A1C68D2F80465424FD5F86C
:101CD00000A03978331B23F07F43DD1CB9B93F499D
:101CE0003F4B4FF48030C2F844034FF00108C2F874
:101CF00004034FF40030C1F8800143F00103086091
:101D0000C2F800804FF43C60984787F80080AA45ED
:101D10002CBF04EB0A0363192E4923F07F43C1F85B
:101D20004035D1F80425921B9B1B22F07F4223F003
:101D30007F4303329A4288D9294BD1F80425C1F850
:101D4000402543F001034FF43C609847234B4FF488
:101D50000032C3F80021002389F8003005B0BDE847
:101D6000F08F00260096B1E674BB521A1A60012368
:101D70000093ABE6002339787878237441E719465D
:101D8000EA69C8F8002092B9CDE90231114BDFF8B9
:101D900040C001209860019B89F80000CCF8002029
:101DA0004FF43C609847DDE90231D8F80020C8695B
:101DB0000968D86100287FF458AF59E72946DFE762
:101DC000C8F800309A467FE6C8F800309A46CCE75B
:101DD000300A002000100140210A002000E100E04C
:101DE000A0F100002DE9F8431F4D204E204FDFF8F1
:101DF00098804FF480334FF400324FF001090024F3
:101E0000C6F8802047EA0907C5F848334FF43C601C
:101E1000C5F80833C5F80490B847C5F808904FF4E2
:101E20003C60C8F80040B847124A134B13491C6085
:101E30001470134B134A0C700B2114701C80997092
:101E40004FF48012C023C6F8802186F81433326024
:101E5000C5F8084586F81133D5F80435C8F80030C0
:101E60002046BDE8F88300BF0010014000E100E01B
:101E7000A0F10000210A0020340A00202C0A0020D2
:101E8000140900202D0A0020300A0020074B9B78FF
:101E90004BB132B128B10368187C20B959745A612A
:101EA0007047072070470820704700BF14090020C2
:101EB0002DE9F843224CA378002B35D0002833D0ED
:101EC000042934D943697BB3437C0646012B4FF088
:101ED00000000CBF884680461746894603F064FC24
:101EE0006378A17822785D1CEDB2A94208BF002575
:101EF000AA421FD003EB430304EBC3030121114AA1
:101F00009E601971D2F80425DA600020C3E90498B4
:101F10009F61657003F050FC0B4B4FF48012C3F8C7
:101F200000210020BDE8F8830820BDE8F8830720E1
:101F3000BDE8F883002003F03FFC0420F2E700BF77
:101F4000140900200010014000E100E070B5174DB9
:101F5000AB7823B318B343690BB30024047406466B
:101F6000204603F021FC6A78A8782978531CDBB25C
:101F7000984208BF2346994213D002EB420205EB78
:101F8000C20202219660204611716B7003F014FCAE
:101F9000074B4FF48012C3F80021204670BD082083
:101FA00070BD204603F008FC042070BD1409002019
:101FB00000E100E030B583B001A9124803F0F8FC5D
:101FC000F0B1114D044628682060002003F0ECFBBE
:101FD0000E4B0F481B88026801339B1AE3800021D7
:101FE00003F060FDA080002003F0E6FB01A9054896
:101FF00003F00AFD074B1B6813B1014628469847BA
:1020000003B030BD24000020C4F10000D80A002035
:10201000F40B00203C0A002030B50378052B83B078
:10202000054626D0002B31D12C4B1C683CB12368CF
:1020300068889B68984723685C68002CF7D1284C17
:10204000002003F0B1FB23687BB10121244803F099
:102050004BFD002003F0B0FB224B1B6813B1284658
:1020600001219847236803B030BD1F4B6A881A804E
:10207000EBE71E4BD3F88424D3F8803413F0FF0F22
:1020800004D11B4BD2B2052A08BF1D4601A919482D
:1020900003F08EFC04460028E5D02B680360002086
:1020A00003F082FB104B0E481B88026801339B1A19
:1020B000E380002103F0F6FCA080002003F07CFB0D
:1020C00001A90C4803F0A0FC064B1B68002BCAD0EA
:1020D00001462846984703B030BD00BFEC0B0020F6
:1020E000F40B00203C0A0020D80A002000700240B7
:1020F000C0F100002400002030B5012883B030D0AA
:1021000009D302282BD101A91A4803F051FC044637
:1021100028B3194D06E001A9164803F049FC04460E
:10212000E8B1164D28682060002003F03DFB144BF9
:1021300014481B88026801339B1AE380002103F0D6
:10214000B1FCA080002003F037FB01A9094803F08F
:102150005BFC0D4B1B6813B101462846984703B042
:1021600030BD01A9034803F023FC04460028F6D043
:10217000064DD7E724000020BCF10000B4F10000B8
:10218000D80A0020F40B00203C0A0020B8F100001F
:102190002DE9F04F87B006AF0026044689469246E7
:1021A0009B4647F8106D00E00136626801235568D0
:1021B000214600223846A8470028F5D18DF80600B0
:1021C000049066B3804605460AE09DF806306768CD
:1021D000023B7F68B8479DF806301D44AE421ED9C9
:1021E00062680123576821460DF1060204A8B8472A
:1021F00062680123576821460DF1070204A8B84719
:102200009DF807304B454FF00002214604A8DCD171
:10221000C24508D008F101085FFA88F8D5E7052023
:1022200007B0BDE8F08F109A9DF8063013608BF868
:1022300000308BF801906168023B4D680BF102029F
:102240002146A8470020EBE72DE9F041082382B0A2
:1022500005464FF484723949394803F091FB40B97F
:10226000384809F0A3FE044640B1204602B0BDE85C
:10227000F0810324204602B0BDE8F081324A3349A0
:10228000334B14700C604822214632481C600BF01E
:10229000A6FD2146482230480BF0A1FD002D45D077
:1022A00095E807002D4B83E80700002007F0A0FC0D
:1022B00008B185283FD12A4D274F2B7A6E68DFF869
:1022C00094C005F109044FF0030E1EFB034E744544
:1022D0001FD0F4B16378CBB1A278A21816D003F165
:1022E000FF38114652FA88F8013A01E001310DD069
:1022F00012F8010F00F00F03DB0000064CBF63442F
:10230000DB1990451D6030685860EFD10334744587
:10231000DFD102A90B2301F8043D11483368984727
:1023200004460028A1D009F0D5FE9EE70B4BC3E977
:1023300000551D72B9E7FFF7E1FABCE7DC0A00209F
:102340002400002019200000F80B0020E40B0020DE
:10235000E80B0020480A0020900A00203C0A0020D8
:1023600000F2000010B509F0B7FF40B109F0BCFF62
:10237000044620B9054807F04FFC10B910BD0820ED
:1023800010BDFFF7BBFA204610BD00BFB0F1000042
:1023900009F0AABE0AF07ABE4FF0804303E0D3F8FA
:1023A0003824D1072BD5D3F838249207F7D530B588
:1023B00083B001A9124803F0FBFA0446E8B1114DBD
:1023C00028682060002003F0EFF90F4B0F481B88AE
:1023D000026801339B1AE380002103F063FBA080B5
:1023E000002003F0E9F901A9054803F00DFB084BB3
:1023F0001B6813B101462846984703B030BD7047AB
:1024000024000020C8F10000D80A0020F40B0020AE
:102410003C0A002010B582B0822301A912488DF831
:10242000003003F0C5FAE8B10446009820600020AF
:1024300003F0BAF90D4B0E481B88026801339B1A52
:10244000E380002103F02EFBA080002003F0B4F90C
:1024500001A9054803F0D8FA064B1B6813B10146E1
:102460006846984702B010BD24000020D80A00201A
:10247000F40B00203C0A002010B582B0832301A990
:1024800012488DF8003003F093FAE8B10446009842
:102490002060002003F088F90D4B0E481B8802686D
:1024A00001339B1AE380002103F0FCFAA080002096
:1024B00003F082F901A9054803F0A6FA064B1B6850
:1024C00013B101466846984702B010BD24000020B1
:1024D000D80A0020F40B00203C0A002030B501206F
:1024E00083B001F08DFA044610B9204603B030BD28
:1024F000842301A913488DF8003003F059FA0546EA
:102500000028F2D000982860002003F04DF90E4B0F
:102510000E481B88026801339B1AEB80002103F0F0
:10252000C1FAA880002003F047F901A9054803F08B
:102530006BFA074B1B68002BD7D0014668469847BB
:10254000D3E700BF24000020D80A0020F40B0020AD
:102550003C0A00202DE9F04F037881B08246852B9C
:1025600000F2B980DFE813F03A028B01BA00ED0106
:102570005602D800E000B700FB000E012101B700B1
:10258000B700B700B7003401B700B700B700B70015
:10259000B700B700B700B700B700B700B700B70083
:1025A000B700B700B700B700B700B700B700B70073
:1025B000B700B700B700B700B700B700B700B70063
:1025C000B700B700B700B700B700B700B700B70053
:1025D000B700B700B700B700B700B700B700B70043
:1025E000B700B700B700B700B700B700B700B70033
:1025F000B700B700B700B700B700B700B700B70023
:10260000B700B700B700B700B700B700B700B70012
:10261000B700B700B700B700B700B700B700B70002
:10262000B700B700B700B700B700B700B700B700F2
:10263000B700B700B700B700B700B700B700B700E2
:10264000B700B700B700B700B700B700B700B700D2
:10265000B700B700B700B700B700B700B700B700C2
:10266000B700B700B700B7004801860057011C0249
:10267000D001D8009C4BDFF888929C49D3E9000236
:102680009047D9F80040002C40F09A82DFF86CA205
:10269000DAF80430002B40F0A28200F07DFE944B6B
:1026A0001B68002B00F00B830120924D09F0E0FD28
:1026B0002A78931EDBB2062B0BD88F49CB5C13B163
:1026C00007F082FA2A78022A00F0F382082A00F042
:1026D000F08201232B7001B0BDE8F08F854D2A7880
:1026E000931EDBB2062B0BD88349CB5C13B107F0EA
:1026F0006BFA2A78022A01D0082A01D109F034FEA7
:102700007E4B5B6803222A700BB1022098477C4BFA
:102710001C68002C40F0AE81734BD3E90002514697
:1027200001B0BDE8F04F1047827802F00F031206A7
:102730004CBF744A6C4ADB001344D3E90002514693
:1027400090470028C7D09AF8020000F00F03013B21
:10275000062BC0D801B0BDE8F04F09F023BF674B8E
:102760005B680BB108209847654B1C68002CB2D001
:10277000636820461B685146984723681C68002CF4
:10278000F6D1A8E75D4B5B680BB1092098475C4B1D
:102790001C68002C9FD0636820461B6851469847F0
:1027A00023681C68002CF6D195E7544B5B680BB18D
:1027B0000A209847524B1C68002C8CD06368204636
:1027C0001B685146984723681C68002CF6D182E7A5
:1027D0004A4B5B680BB10F209847494B1C68002C93
:1027E0003FF479AF636820461B68514698472368D9
:1027F0001C68002CF6D16EE73E4D2B78062B00F0BE
:102800002B82072B02D0052B7FF465AF09F0B6FDB4
:1028100002232B705FE7DFF8E890D9F80070002FF3
:1028200000F0408197F808A0BAF1000F00F0358160
:102830004FF00008444607F109057B68DB6813B1D7
:102840002146384698473B7AA34240F2A3816E78EE
:10285000002E00F019810024234632460AE0AB78AE
:102860002A190134D05C0AF087FAE3B29E4240F2A2
:102870000B816A789A42F2D800231B78FFDEDFF8DA
:102880008090D9F80070002F00F0578197F808B0B9
:10289000BBF1000F00F04C814FF00008444607F1F7
:1028A00009057B68DB6813B12146384698473B7AB7
:1028B000A34240F26F816E78002E00F03081002438
:1028C000234632460AE0AB782A190134D05C0AF07C
:1028D00053FAE3B29E4240F222816A789A42F2D8D9
:1028E00000231B78FFDE00BF900A0020CCF100001F
:1028F000E80B0020F80B0020A8F100003C0A0020A3
:10290000E40B0020480A0020A44D2B78032B00F094
:10291000A88109F0F3FC00283FF4DDAE2B789A1E65
:10292000D2B2062A40F2DD819D4807F01FF92B78CC
:10293000022B00F0CD81082B00F0CA8106232B70FA
:10294000C9E6964D2B78082B00F07E819A1ED2B2F4
:10295000062A40F2B781924807F008F92B78022B3B
:1029600000F0AA81082B00F0A78105232B708D4B66
:102970005B680BB1032098478B4B5146D3E90002AB
:1029800090478A4B1C68002C3FF4A5AE6368204634
:102990001B685146984723681C68002CF6D19AE6BC
:1029A0007E4D2B78032B7FF496AE0AF057FC00285F
:1029B0003FF491AE2B789A1ED2B2062A0BD87C49EE
:1029C0008A5C12B107F000F92B78022B00F092819B
:1029D000082B00F08F8104232B707CE66F4B1B7853
:1029E000032B00F05581082B00F052816D4B5B6882
:1029F0000BB1002098476F4B1C68002C3FF46BAE66
:102A0000636820461B685146984723685C68002C21
:102A1000F6D160E6634B5B680BB103209847624BCD
:102A20006549D3E900029047604B1C684CB1624D88
:102A3000636820461B682946984723681C68002C59
:102A4000F6D1564D2B78062B00F00381082B0ED0C3
:102A50009A1ED2B2062A40F23E81514807F086F80B
:102A60002B78022B03D0082B01D009F087FC02231E
:102A70002B7030E6636820461B68514698472368F0
:102A80001C68002CF6D147E608F101085FFA88F4CB
:102A9000A24505F103053FF6D0AE3B681F68002F45
:102AA0007FF4C0AE3D4D0AF021FA2A78931EDBB2C6
:102AB000062B0BD83E49CB5C13B107F085F82A787A
:102AC000022A01D0082A01D109F04EFCD9F80040B1
:102AD00000232B704CB1394E636820461B68314689
:102AE000984723681C68002CF6D12F4B3349D3E953
:102AF000000290472B4B5B680BB10E2098472B7858
:102B0000023BDBB2062B3FF6E6AD294AD35C002B35
:102B10003FF4E1AD01B0BDE8F04F07F055B808F162
:102B200001085FFA88F45C4505F10305FFF4B9AECE
:102B30003B681F68002F7FF4A9AE184D00F022FCFF
:102B40002A78931EDBB2062B79D81949CB5C002B6F
:102B500075D0022A03D0082A01D009F00FFC114BCE
:102B60005B6802222A700BB1012098470E4B514638
:102B7000D3E900029047D9F80040002C3FF4ABADF8
:102B8000636820461B685146984723681C68002CE0
:102B9000F6D1A0E500235B78FFDE00BFF80B002034
:102BA0001C0000203C0A0020900A0020E40B0020BA
:102BB000A8F10000E80B0020D8F10000D0F10000DF
:102BC0004E4D636820461B682946984723681C6859
:102BD000002CF6D1DFF834A1DAF804300BB10D2067
:102BE0009847D9F80070002F3FF457AD97F8089038
:102BF000B9F1000F58D04FF00008444607F109051D
:102C00007B68DB6813B12146384698473B7AA3427C
:102C1000C0D96E78002E3FD000242346324609E00A
:102C2000AB782A190134D05C0AF0A6F8E3B29E42D0
:102C300032D96A789A42F3D800231B78FFDE3048F5
:102C400006F094FF2A7884E702232B7009F0A0FB9A
:102C50008DE607232B703EE509F090FB08232B70CF
:102C600039E50AF0FBFA00283FF453AE2B789A1EA0
:102C7000D2B2062A09D823498A5C12B106F0A4FF11
:102C80002B78022B33D0082B31D004232B7040E655
:102C90001D48FFF75FFCA9E608F101085FFA88F418
:102CA000A14505F10305ABD83B681F68002F9DD1F6
:102CB000F3E409F059FB0CE509F056FB55E69AF8E8
:102CC0000800F2E40F498A5C002A7FF448AE42E62D
:102CD00009F04AFB32E60B498A5C002A7FF4C1AE58
:102CE000BBE608498A5C002A7FF422AE1CE609F0A4
:102CF0003BFBCAE709F038FB6DE600BFCCF10000F2
:102D00001C000020A8F10000D4F100003C0A0020C3
:102D100070B5284E82B03468002301930CB3A588A7
:102D2000A5B1E388B3F5006F3ABF5A1C92B20122F5
:102D300005F1FF3528BF002301A8A580E280ADF88A
:102D40000630FFF707FC012002B070BD2046FFF7F8
:102D500001FC1949194802F095FE0120356002B0C6
:102D600070BD1549154802F05FFE0446306000282A
:102D7000D5D1134B1B6813B9184602B070BD114D65
:102D800002F012FD2B880E48B3F5006F39BF5A1CB4
:102D900092B22346012201212A80ADF8063002F0CA
:102DA000BBFE002002F008FD01A8FFF7D3FB0120C5
:102DB00002B070BDFC0B0020380A00202400002067
:102DC000F40B0020D80A00202DE9F041067A374F95
:102DD000DFF8E0C000F109044FF0030E1EFB064EC1
:102DE00021468E4582B01AD0D1B14D78002211E033
:102DF0008B781344D9420FD011F8038008F00F03E9
:102E0000DB0018F0800F14BF6344DB1901321B682C
:102E1000002B46D19542EBD103318E45E4D1002100
:102E2000CDB2B542214FDFF88CC028D205EB450565
:102E3000651924D06B78F3B1AB78EB1818BF4FF05D
:102E4000010E05D117E0AB787344EB1812D096460B
:102E50001B7803F00F02D2001B064CBF6244D2194C
:102E6000106043681E6856606E780EF10103764567
:102E7000DAB2E8D8067A0131CDB2B542D6D30C4ADF
:102E800013681BB11A681368002BFBD102A91060EC
:102E90000B2201F8042D43681B68984702B0BDE877
:102EA000F081112002B0BDE8F08100BF900A00203F
:102EB000E40B0020480A0020084B1B681BB11B686C
:102EC0005B68002BFBD1064A136823B11A6853686C
:102ED000002BFBD10432106000207047EC0B002067
:102EE000E80B00200A4A136843B1984202D108E077
:102EF000834205D01A685368002BF9D1052070472A
:102F0000043203685B6813600368002058607047F0
:102F1000E80B0020024A1378013313700020704739
:102F2000F00B0020024A1378013B13700020704719
:102F3000F00B0020024B1878003018BF01207047BA
:102F4000F00B002000F00F03072B10B5044604D847
:102F500009F0AEFB204609F031FB2046BDE81040E9
:102F600009F02CBE09F008BF014B1868704700BF7C
:102F7000E40B002070B4114B1E68A6B1357A75B110
:102F8000737A834206F1090210D0002303E012F89D
:102F9000034F84420BD00133DBB29D42F7D133683B
:102FA0001E68002EEAD1304670BC7047002300290D
:102FB000F9D030460B7070BC704700BFE40B0020A6
:102FC000436811461B68184700F00F03082B0AD806
:102FD00002064CBF054A064ADB001344186810B1CC
:102FE00043681B6818471020704700BF480A00203C
:102FF000900A002038B5094B1C6864B1054602E010
:1030000023681C683CB1636829461B6820469847C2
:103010000628F5D038BD062038BD00BFE40B0020DF
:1030200038B50D46044609F0C9F918B1054B1B78AF
:10303000022B01D0082038BD29462046BDE8384083
:1030400009F0CCB9F80B002038B50D46044609F05C
:10305000B5F918B1054B1B78022B01D0082038BDFB
:1030600029462046BDE8384009F044BAF80B002054
:10307000F8B543689B6805460C4616461BB1984751
:10308000062800D0F8BD86BB2B7AA3421DD909358E
:1030900004EB44042C4467782FB3354633463A4654
:1030A0000EE0A3786219D65C06F00F03072B3046BA
:1030B0000DD9013509F082FDEBB29F4213D9627838
:1030C0009342EED300231B78FFDE7378FFDE09F016
:1030D000EFFA304609F072FA0135304609F06EFD1C
:1030E000EBB2BB42EBD30020F8BD0720F8BD00BF18
:1030F00043681B6903B11847184670472DE9F0472C
:10310000304BD3F80090B9F1000F59D099F808A0CE
:10311000BAF1000F4DD04FF00008444609F10905FF
:1031200007E008F101085FFA88F4A24505F10305FC
:103130003FD9D9F804309B682BB10022214648467C
:1031400098470628EDD199F80830A34202D8002309
:103150005B78FFDE6F78002FE3D0002423463A46E9
:103160000EE0AB782A19D65C06F00F03072B304629
:103170000BD9013409F022FDE3B29F42D1D96A781C
:103180009342EED300231B78FFDE09F091FA30461C
:1031900009F014FA0134304609F010FDE3B29F4201
:1031A000EDD808F101085FFA88F4A24505F103059E
:1031B000BFD8D9F80030D3F80090B9F1000FA5D1ED
:1031C000BDE8F087E40B00202DE9F8431E4B1F6893
:1031D000002F33D097F80890B9F1000F2AD04FF0A4
:1031E0000008444607F109057B68DB6813B12146F6
:1031F000384698473B7AA34222D96E7896B100248C
:103200002346324609E0AB782A190134D05C09F034
:10321000B3FDE3B29E4205D96A789342F3D300230B
:103220001B78FFDE08F101085FFA88F4A14505F17B
:103230000305D9D83B681F68002FCBD1BDE8F883C0
:1032400000235B78FFDE00BFE40B00200020704706
:103250002DE9F04F4B6885B0002B75D00D46144614
:10326000CDE9000209F09AF9EE68A64228BF264689
:103270008246002E00F081804FF000094A46CB467E
:103280004FF0010814E00AEB020022460AF083FD29
:10329000D5E902321B1B141BC5F804B0C5E9023482
:1032A0002BB3002C08BF4FF000083A46002E38D050
:1032B000D5E90113B3421C4628BF3446361BA71874
:1032C0000029E0D193B12846524450F8101B4B68B6
:1032D000D3F804902346C847D5E902321B1B141BC0
:1032E000C5E902342BB34FF00109DAE7EC68B9F114
:1032F000000F1ED134B32968002935D0CDF808B0AD
:1033000003E0AB6829680133AB604B6800225C685E
:1033100002A80123A0470028F3D128613A46002ED5
:10332000C6D1009BC3F800A05F60404605B0BDE871
:10333000F08F2B681B68196829608CB9A0464FF084
:103340000109B2E7C846B0E70B681B681B68002B91
:1033500084D18B68002B81D1C0E900339846E4E723
:103360004FF001090029C9D16960002FD9D0019B14
:10337000BB4288BF4FF00008D3E737464FF0010843
:10338000CFE700BF08B50020FFF7DCFD8020BDE8D7
:103390000840FFF7D7BD00BF08B50020FFF7E2FDEA
:1033A0008020BDE80840FFF7DDBD00BF70B5C388D1
:1033B00093421D4628BF1546934284B00E461DD841
:1033C000002200200392CDE9016502F0EDF901A988
:1033D0008020FFF725FE044628B1002002F0ECF91A
:1033E000204604B070BD09F0D5F9802812D0002025
:1033F00002F0E2F91024204604B070BD802014468B
:1034000008F0CCFFB4FBF0F303FB1042B2FA82F2F7
:103410005209D6E7054A064B92E8030083E8030009
:10342000002002F0C9F9204604B070BD48F2000047
:103430002C0C00202DE9F04F0B78062B87B07BD0A9
:1034400010D90D2B69D02AD80B2B06D00C2B2FD1DD
:10345000B14A1378002B40F09F800024204607B02B
:10346000BDE8F08F022BF8D045D9032B25D0052BD2
:103470001ED10DF10D008DF80C3009F029F99DF8E1
:103480000D20A64D002102F01F032960032B00F23E
:103490003C81DFE813F01301E200B500AE000E2B13
:1034A00019D0852B04D19C4B1A78032A00F02F8168
:1034B0000624204607B0BDE8F08F994802F052FB81
:1034C0000028CAD0974B01221A60BFF36F8FBFF359
:1034D0004F8F0024C2E7904B1A78012ABDD0924941
:1034E00092480A78012422F002021C700A7000241B
:1034F000FFF730F8B2E7012BDAD1874B1A78032AAD
:10350000D6D0894989480A78032422F002021C7027
:103510000A700624FFF71EF8A0E74FF080427E4BAA
:10352000D2F838141A78C90732D5022A95D07E49C4
:103530007E480A780224D6E7C87803280D46B7D01B
:10354000764E3368002B00F00881002232607168EB
:1035500098470446C8B93368002B00F0EB80AB787D
:10356000002B7FF47AAF09F0D9F877E76A4C23781B
:10357000043B012B00F2F3809DF80F30002B00F08C
:103580006781012B00F07581072409F0F9F865E7E0
:10359000012A3FF462AFA2E7634C6448217800231C
:1035A00021F00201217013701C46FEF7D3FF55E78E
:1035B000062900F01B81082900F00781C9B95C4C7D
:1035C000022220460AF00BFC574A2378127896070D
:1035D00043F0010148BF43F0030321700DF10D00DA
:1035E00048BF237002225249FFF7E0FE0446062C32
:1035F00003D103A8FFF7FEFC0446002C7CD0C4E7EF
:103600009DF81100040707D003A9FFF7DDFC062889
:103610000446F2D19DF80D2012F0600F75D19DF88F
:103620000E303D4A9DF811401278012B00F0998030
:10363000C0F0B980032B68D104F00F03072B64D8C6
:10364000BDF80F10002960D1052A02D0002B40F0F0
:103650008680204608F0A6FF4EE001A99DF81100E3
:10366000FFF788FC0646002875D003AA9DF80410D1
:10367000FFF7A6FC06280446BFD19DF80D3013F0D5
:10368000600F82D1244A9DF8041012789DF80EC074
:10369000DF0940F0C080BCF10B0F7FF476AF052A44
:1036A0005DD1BDF80F30FF2B3FF66EAF30469DF871
:1036B0000F20FFF7DDFC0446F4B166E7C2F34114C6
:1036C000002C96D1D2099DF80E107FF471AF03291A
:1036D0005AD009293FF44AAF01298AD1BDF80F30E9
:1036E000012B86D1FFF726FC002800F0AF800E4AA0
:1036F000137823F0020313702B6843B309F04AF8E0
:10370000044600287FF4A9AE2DE706243DE70649CC
:1037100006480A780424F8E60C0C00202C0C002043
:10372000340C00205C700240280C002010F20000D5
:10373000380C0020994B1B68082B7FF48EAE984BF9
:103740001B68002B3FF489AE09F010F886E609F0FB
:103750000DF8002482E6102417E70E2415E708244C
:1037600013E704F00F03072BCFD8BDF80F10002983
:10377000CBD1052A01D0002BF1D1204608F098FFCB
:10378000204608F01BFFB7E7BDF80F30012B7FF490
:1037900030AFFFF7CFFB002858D0824A137843F0B0
:1037A00002031370A8E7052A01D02007D7D12046CD
:1037B00008F05CFF7C49022208800DF10D00FFF744
:1037C000F5FD0446002C97D0DFE6784909780529F5
:1037D00039D004297FF40DAF734A14700DF10D0038
:1037E00001227149FFF7E2FD044600E79DF8102031
:1037F000022A60D0032A48D0012A7FF4FAAEBDF82D
:103800001330002BA3D00DF10D0012226849FFF7F1
:10381000CDFD0446EBE6BCF1000F72D0BCF10A0FFF
:103820007FF4B3AE052A9AD13046FFF761FC5E49BA
:103830003A4608700DF10D00FFF7B8FD0446002C64
:103840003FF45AAFA1E6584B1A70C7E70F249CE625
:10385000FFF7BAFC2378042B3FF44EAF514A55488A
:103860001378042123F0020313702170FEF772FE17
:1038700042E7FFF743FC2378052B3FF43DAF0523D8
:103880004C482370FEF766FE36E7BDF81330002B78
:103890003FF45DAFBDF811109DF80F0001F050FF2F
:1038A000014600283FF4A5AE0DF10D000A78FFF7A0
:1038B0007DFD04469BE6BDF81320002A3FF447AF88
:1038C000092A28BF09229046FFF74EFBA346064669
:1038D0004FF0090A36B3CDF804B0002700E00137F5
:1038E00072680123D2F804903146002201A8C8472B
:1038F0000028F4D1337A326823441668BA44DCB223
:10390000E8E7052A7FF42BAF274B0DF10D00194690
:103910000222A3F800C0FFF749FD0446002C3FF443
:10392000EBAE32E6204E2449304642460AF033FAE6
:103930003471A6F802A0FFF7FDFA18B1F37943F04D
:103940002003F371FFF710FB1C4BBDF81320186028
:103950000020C3E90168DA6001F026FF18498020E1
:10396000FFF772FB044630B1002001F025FF062C62
:103970007FF40BAE3DE608F00DFF802804D0204612
:1039800001F01AFF102400E60E4B93E8030085E8CF
:103990000300204601F010FFAEE600BF300100102A
:1039A00034010010280C0020380C00200C0C0020E2
:1039B00034F2000010F2000014F20000100C00209D
:1039C00060F2000048F2000038B505460C4608F0E9
:1039D000E1FEA84207D194E80300044A82E803000C
:1039E0000023184638BD1023184638BD2C0C002083
:1039F00008B1402303600148704700BF380C002025
:103A0000034B1B7843FA00F000F00100704700BF41
:103A1000280C00202DE9F0431D461B7885B0064692
:103A20000F4614460E2B00F23481DFE813F0190024
:103A3000A300B700BD003201CB00E7003201320124
:103A400032013201FC0019012C010F0020466FF0F9
:103A5000020102F03DF80025284605B0BDE8F083DC
:103A600094F82830002BF6D06B8840F2FF72934216
:103A700000F0168194F808C0D4F804E04FEA8C0CEA
:103A8000BEF1000F40F00282844A606994F82980F8
:103A9000A2FB0C911844C9080231B0FBFCF90CFBE5
:103AA00019008842C0F07082B8F1000FD3D0617A5B
:103AB00060688900002840F0E981A2FB010EA0693E
:103AC00003EB000C4FEADE000230BCFBF1FE01FB11
:103AD0001EC18142C0F05A82A07A6168800000292C
:103AE00040F0D481E169A2FB00C21944D20802323D
:103AF000B1FBF0FC00FB1C119142C0F04982E07A5E
:103B000062688000002A40F0C181216AA2F133324C
:103B1000A2FB00C20B44D2080232B3FBF0F100FB5F
:103B20001133934297D2032194F8243023B16B8848
:103B30006361002384F8243094F8253023B16B8826
:103B4000A361002384F8253094F8263023B16B88D4
:103B5000E361002384F8263094F8273023B16B8882
:103B60002362002384F827307B6930469B6998479D
:103B7000054671E76FF00801204601F0A9FF002516
:103B80004FF4006301222273C4E90533C4E907330B
:103B9000A56084F8295084F828505DE72046042168
:103BA00001F08AFF002557E720466FF0040101F07D
:103BB0008FFF7B6930469B6898470546284605B0CD
:103BC000BDE8F0836B78D9094FEA531240F0438186
:103BD000012A5ED1AB780A2B00F09A810B2B00F002
:103BE0008A81092B55D12B79022B52D17B695B68D5
:103BF000002B4ED02946984705462DE795F902300F
:103C0000002BC0F2F7804B69DB68002B41D0EA78CB
:103C10002AB98A691AB1022190477B69DB6830466C
:103C20009847054618E7FFF747F9054600287FF44F
:103C300013AF3046FFF76EF9054600287FF40CAF4E
:103C40004FF40063A06084F8290084F82800C4E9D8
:103C50000533C4E907332046012101F02DFFFBE6BF
:103C6000FFF740F9054600287FF4F6AE3046FFF72F
:103C700059F9054600287FF4EFAE20466FF00101A8
:103C800001F026FFE8E62046022101F015FF00259D
:103C9000E2E60625284605B0BDE8F083CDCCCCCCC5
:103CA0006369207AB3F5006F4FEA800007D003F212
:103CB000FF73B3FBF0F200FB123301336361D4F8FE
:103CC00004C0BCF1000F40F0E180BD4B626994F884
:103CD0002910A3FB00E302F2FF72DB080233B2FB00
:103CE000F0FE00FB1E229A428846C0F05C8100294B
:103CF0003FF4B1AEA369607AB3F5006F4FEA80007C
:103D000007D003F2FF73B3FBF0F200FB1233013371
:103D1000A3616368002B40F0B980A3F13333A2693B
:103D2000A3FB00C302F2FF72DB080233B2FBF0FC1C
:103D300000FB1C229A428846C0F0378100293FF4DC
:103D40008AAEE369A07AB3F5006F4FEA800007D02E
:103D500003F2FF73B3FBF0F200FB12330133E361B4
:103D60006368002B40F09280A3F13333E269A3FB38
:103D700000C302F2FF72DB080233B2FBF0FC00FB6F
:103D80001C229A428846C0F0128100293FF463AE9B
:103D9000236AE07AB3F5006F4FEA800007D003F2A0
:103DA000FF73B3FBF0F200FB12330133236263684D
:103DB000002B6BD1824B226AA3FB00C302F2FF727D
:103DC000DB080233B2FBF0FC00FB1C229A4288465F
:103DD00038BF0321BFF43FAEB8F1000F7FF4A4AEAB
:103DE00094F82430002B3FF4BFAE6B88636184F8F5
:103DF0002480B9E6EB781BB98B690BB10321984796
:103E00006368002B42D194F82830002B3FF4D1AEE8
:103E100094F82930002B00F0BD806369B3F5006F82
:103E200004BF012384F82430A369B3F5006F04BFF5
:103E3000012384F82530E369B3F5006F04BF012343
:103E400084F82630236AB3F5006F7FF404AE0123B3
:103E500084F82730FFE512F003081ED0B8F1010FF7
:103E60007FF417AFAB78022B00F08580032B7AD05C
:103E7000012B7FF40EAF2B79013B012B3FF609AFED
:103E80007B6929461B6898470546E5E520466FF0A3
:103E9000080101F01DFE0025DEE503F01F03012BE4
:103EA0007FF4F7AEAB78062B7FF4F3AE03A8CDF822
:103EB0000880FFF79DFD044602A8EA782979009062
:103EC00023463046FEF764F9052805F1010970D153
:103ED0007B69E9781B69304698477B69E9785B69BB
:103EE0000446424630469847224601464846FFF778
:103EF0005DFA0546B0E5B5F80310003118BF0121A1
:103F00002173BB69002B3FF4A6AD98470025A3E5BC
:103F1000EB78287923444FF400611872EB7804EBB6
:103F2000830359612B79A3B9637A002B7FF493AD96
:103F3000A37A002B7FF48FADE37A002B7FF48BAD57
:103F4000257A84F82930002D7FF485AD84F8285037
:103F500082E584F82820EB78002B3FF47CAD84F8D0
:103F60002920002578E5681C424604F10C01FFF782
:103F70001DFA054670E5E9780831681C424621447F
:103F8000FFF714FA054667E5714625E70121CBE501
:103F90000221C9E56369B3F5006F7FF45CAD0123CD
:103FA00084F8243057E5614616E7012114E7022121
:103FB00012E721464846029AFFF7F8F905464BE515
:103FC000CDCCCCCCC068704738B910B504468B6AEC
:103FD000084602219847204610BD0320704700BFC5
:103FE000036953F821301868704700BF036953F81C
:103FF00021309868104470472DE9F0410468D64E8E
:104000000D7A357040F2F117BC4200F08B82B4F5A6
:10401000F97F1DD340F20A25AC4200F0498139D81E
:10402000B4F5FA7F00F0C78140F2BC80B4F5007FA0
:1040300000F0378240F20125AC4200F07B8140F273
:10404000FD15AC4200F032820023036018462DE1DA
:10405000B4F5F47F00F073825ED940F2EB15AC4208
:1040600000F0C681B4F5F67FC0F08C8040F2EF1509
:10407000AC4200F04F82B4F5F87F80F02B81B4F5AC
:10408000F67FE1D1002A00F06C83057901274FF01B
:10409000000CD4E0B4F5047F00F024814DD940F247
:1040A0001225AC4200F00882C0F0628140F2132574
:1040B000AC42C9D1A94F3D78002A40F03983012490
:1040C000DFF8A0C20135EDB29CF800C03D70AC45F0
:1040D00000F20283DFF890C235789CF80070013757
:1040E000FFB28CF80070AF4280F00B830925A34229
:1040F000057140F24083671C002A00F011830579A6
:104100001555BB424FF00404047100F2198340F2CC
:10411000E11303600120C9E040F2E117BC4200F066
:10412000D781B4F5F17F4ED2002C00F0E380B4F5D6
:10413000F07F89D101270024DEE740F20B25AC4255
:1041400000F05E8140F20F25AC427FF47DAF012488
:104150000027002A00F0A6820579D555A3424FF02A
:104160000305057140F22A822F4604F1010C402517
:1041700063451755057100F2BF8240F211230360B9
:10418000012093E040F2E915AC4200F05181B4F512
:10419000F57F7FF459AF002A00F0D582047901251C
:1041A00000273BE0B4F5F97F00F0AA8040F2F31558
:1041B000AC427FF449AF002A00F0CD8204794FF081
:1041C000010C002768E040F2E515AC4200F0A08049
:1041D00040F2E715AC427FF437AF614CD4F800C031
:1041E000002A00F0C4820579012700241555BB423E
:1041F0009CF801C080F804C040F2DB817D1C0324E0
:10420000AB4202F807C0047140F2CE816F1C5455D6
:10421000BB420C7E047140F2BD817D1CD455AB4283
:104220004F7E077140F2AC8105F1010C002463451B
:104230005755047140F29F8125460CF1010709246E
:10424000BB4202F80C50047140F29081254607F100
:10425000010C21246345D555047140F282810CF193
:1042600001071125BB4202F80C40057140F26F8135
:1042700007F1010C01246345D555047140F26C81AE
:1042800025460CEB04070024BB4202F80C500471D5
:1042900040F2508107F1010CD45563450D7D057145
:1042A00000F220824FF4FA7303600120BDE8F08130
:1042B00001270024002A00F02C8205791555BB4205
:1042C0004FF00504047100F2388240F20B230360C2
:1042D0000120EBE7002A00F04282047901274FF029
:1042E000000CBEE7002A00F0308207794FF0010C85
:1042F00000243CE7DFF870C027468CF80040F2E667
:10430000002A00F03682057901274FF0000CBAE749
:1043100001240027002A00F074810579D555A342B5
:104320004FF00005057140F24E810D4FD7F800C0E7
:10433000671C5BE7002A00F02C82057917460124F0
:104340003D70064FDFF824C03D789CF800C0013571
:10435000EDB23D703EE000BF7E0C00207F0C0020DF
:10436000800C00207C0C00207D0C0020780C0020AC
:10437000002A00F01082057917464FF0010C002446
:104380009C453D70047180F00A81C04F3D78A6467F
:104390000CF1010802F80CE0CC6A434514F805C0A2
:1043A00080F804C040F2F18002EB080E08F101042D
:1043B0008EF800C084E6002A00F0EF8105791746E8
:1043C00001243D70B24DB14F91F814C085F800C082
:1043D00000253D70654535D3DFF8BCC2AD4DDCF836
:1043E00000C09CF801C085F800C000253D706EE655
:1043F000002A00F0B28107794FF0010C002515E783
:10440000002A00F0C2810479154601272C70A24DC4
:104410009E4C2D68247895F801C0A4450FD92C44F2
:10442000AD789F42645D047180F0D2807C1C90E680
:10443000002A00F09A81047901270025E7E600238D
:104440001B78FFDE2DB20F6957F82570A3423F7924
:1044500007714FEA850540F24A81671C1AB190F84E
:1044600004C002F804C00C69DFF830C26459256842
:1044700005719F42ADB2ACF8005080F0B3807C1C57
:104480002D0A002A00F0228190F804C002F807C02B
:104490009C420571C0F03A8140F201230360012083
:1044A00004E77E4C002725880124E9E7774C25782E
:1044B0000127AD000024D1E74FF001084FF0000CB8
:1044C000724F3D78002A00F0928090F804E061E796
:1044D000002A00F05C810479154601272C700D7AC2
:1044E0006F4C2478AC4210D204EB440501F109046E
:1044F000DFF8A4C114F805E080F804E02C44BB42C6
:10450000CCF8004069D97C1C04E7634A002313609F
:104510001B78FFDE002A00F0268105794FF0010CA0
:10452000002796E6002A00F0128105794FF0010C71
:1045300000279FE640F2F31303600120B6E6002A4D
:1045400000F0078190F804C00125002757E640F2EB
:10455000F11303600120A9E64FF4F9730360012011
:10456000A4E64FF4F873036001209FE640F2EF13D6
:10457000036001209AE64FF4F6730360012095E68C
:1045800040F2EB130360012090E640F21323036036
:1045900001208BE64FF4F5730360012086E640F2BC
:1045A00012230360012081E640F2E9130360012039
:1045B0007CE64FF4F4730360012077E64FF4047354
:1045C0000360012072E640F2E713036001206DE60C
:1045D00040F20F230360012068E640F2E513036018
:1045E000012063E64FF40073036001205EE6CC6AAD
:1045F000434514F805C080F804C0C6D908F1010489
:104600005EE5A3420271DED9234DD5F800C0013426
:104610009CF801500571A342CBD901340325A34274
:104620000571C1D901340D7E0571A342B2D901349F
:104630004D7E0571A342A3D901340025A342057123
:1046400099D901340925A34205718FD90134212557
:10465000A342057185D901341125A34205717FF666
:1046600076AF01340125A34205717FF675AF2C4466
:104670000025A34205717FF65DAF01344D690571D8
:10468000A3427FF60FAE01349CE600BF7F0C0020F2
:10469000780C00207C0C0020800C00207A0C00207C
:1046A0007D0C00200325A342057187D901344025E4
:1046B000A34205717FF661AD04F1010C00259C4514
:1046C0000571BFF46CAF04F10208F9E69C42057174
:1046D000BFF4E2AE013434E60725A34205714FD999
:1046E000671CE7E502EB0C070CF1010469E640F2F8
:1046F000FD1303600120D9E502EB0C070CF1010C5E
:104700003DE640F2172303600120CFE5171901347D
:1047100016E60524BB4204717FF6D7AD013776E675
:104720000424BB4204717FF6F2AC01370D7AD7E660
:1047300090F804C0964601243AE6D519013765E69B
:10474000D5190137CAE6012472E70124AFE7012435
:1047500088E7012462E7012490E701246DE7012442
:104760007AE701246EE7012471E701245BE7012465
:104770004EE701247CE74FF4F0730360012095E5D8
:1047800040F20A230360012090E501273FE601275C
:10479000A6E60124D5E514468EE7012412E600BF03
:1047A00003680020D96170470368DB6903B11847CB
:1047B00006207047037AB3B1827A012A00F1090317
:1047C00013D900B5C17A026A85B00B4411685268EA
:1047D0000191587801A90023CDE90223FEF720FCBE
:1047E00005B05DF804FB5B78FFDE00231B78FFDE7D
:1047F00030B5036AC9781A681170D3E9002387B00D
:1048000000240132013B05462046CDE903230594EF
:1048100000F0CAFF204603A9FEF702FC30B10446AF
:10482000002000F0C9FF204607B030BD064B0193C1
:1048300001A90295FFF7C8F80446002000F0BCFF6C
:10484000204607B030BD00BFC93F00000A79012AE9
:104850000B4609D0022A05D1016A581CD1E9001281
:10486000FEF7A4BD06207047C169581CD1E90012AB
:10487000FEF79CBD10B404460B4654F8102B21469D
:104880000C325DF8044BFFF7C5B800BF2DE9F041CD
:10489000044684B0006B266804F0A8FFE8B9237AC8
:1048A00026680BB95B78FFDEA37A04F109020BB925
:1048B0001B78FFDEE37A0C366FF0080105463046C0
:1048C00012F8038001F004F9206B04F08FFF074613
:1048D00070B1284604B0BDE8F08106F10C006FF01D
:1048E000080101F0F5F80025284604B0BDE8F08184
:1048F00004F11000FFF766FB3A4601460546206BBF
:1049000004F01EFFD5E9002338460192CDE90237B5
:1049100000F04AFF404601A9FEF782FB054630B190
:10492000002000F049FF284604B0BDE8F081304681
:10493000082101F0C1F8F3E72DE9F04186B0044603
:104940000191006B029201A9266804F08BFEA0B9C8
:10495000F3685A0705460AD4F3681B0709D496F88A
:10496000343033B9237A266863B95B78FFDEFDF70C
:10497000B5FD284606B0BDE8F0811125284606B0F1
:10498000BDE8F081A37A04F109020BB91B78FFDEC0
:10499000E37A0C3630466FF0080112F8038001F01C
:1049A00097F8206B04F022FF0028E2D104F11000F8
:1049B000FFF708FB2A4601460746206B04F0C0FEBD
:1049C000D7E900232846CDE90435039200F0ECFE38
:1049D000404603A9FEF724FB054618B1002000F06D
:1049E000EBFEC6E73046082101F066F8F6E700BFA7
:1049F000F0B5037A046885B023B3837A00F1090720
:104A000013B3C37A0C340E4620466FF008011546E6
:104A1000FF5C01F05DF800231846CDE901650393C2
:104A200000F0C2FE384601A9FEF7FAFA054618B9A9
:104A30002046082101F040F8002000F0BDFE284685
:104A400005B0F0BD5B78FFDE1B78FFDE68B910B5FE
:104A50000A6A0B681268527883F84C2004468B6A05
:104A6000084602219847204610BD0320704700BF2A
:104A7000036953F821301868704700BF036953F881
:104A800021309868104470472DE9F0410468D24EF7
:104A90000D7A3570B4F5FF7F00F0848221D940F2A1
:104AA0001725AC4200F04481B4F5067F39D240F2BC
:104AB0000125AC4200F0BF8140F2B68040F20D25E6
:104AC000AC4200F02E8240F20E25AC4200F0728122
:104AD00040F20A25AC4200F0298200230360184608
:104AE00024E140F2F517BC4200F06982B4F5FB7F87
:104AF00059D3B4F5FC7F00F0BB8140F28580B4F55A
:104B0000FE7F00F0478200F2258140F2F915AC42A9
:104B1000E3D1002A00F06583057901274FF0000CEE
:104B2000CDE040F21D25AC4200F01C814AD940F294
:104B30001F25AC4200F00082C0F05A81B4F5087F16
:104B4000CBD1A64F3D78002A40F032830124DFF814
:104B500094C20135EDB29CF800C03D70AC4500F246
:104B6000FB82DFF884C235789CF800700137FFB211
:104B70008CF80070AF4280F004830925A3420571D0
:104B800040F23983671C002A00F00A830579155525
:104B9000BB424FF00404047100F212834FF4F77328
:104BA00003600120C2E0B4F5F77F00F0D1814CD85A
:104BB000002C00F0DF8040F2ED15AC428DD10127D2
:104BC0000024E0E7B4F5067F00F05A81B4F5077FD2
:104BD00083D101240027002A00F0A4820579D5554D
:104BE000A3424FF00305057140F228822F4604F1DD
:104BF000010C402563451755057100F2BD8240F256
:104C00001E230360012091E0B4F5FB7F00F050818A
:104C100040F2F715AC427FF460AF002A00F0D38277
:104C200004790125002739E040F2FF15AC4200F07D
:104C3000A780B4F5007F7FF450AF002A00F0CB824C
:104C400004794FF0010C002766E0B4F5F97F00F01D
:104C50009F80B4F5FA7F7FF440AF614CD4F800C078
:104C6000002A00F0C4820579012700241555BB42B3
:104C70009CF801C080F804C040F2DB817D1C032455
:104C8000AB4202F807C0047140F2CE816F1C54554C
:104C9000BB420C7E047140F2BD817D1CD455AB42F9
:104CA0004F7E077140F2AC8105F1010C0024634591
:104CB0005755047140F29F8125460CF101070924E4
:104CC000BB4202F80C50047140F29081254607F176
:104CD000010C21246345D555047140F282810CF109
:104CE00001071125BB4202F80C40057140F26F81AB
:104CF00007F1010C01246345D555047140F26C8124
:104D000025460CEB04070024BB4202F80C5004714A
:104D100040F2508107F1010CD45563450D7D0571BA
:104D200000F2208240F2012303600120BDE8F081FF
:104D300001270024002A00F02C8205791555BB427A
:104D40004FF00504047100F238824FF406730360DB
:104D50000120EBE7002A00F04282047901274FF09E
:104D6000000CBEE7002A00F0308207794FF0010CFA
:104D700000243EE7DFF870C027468CF80040F9E6D3
:104D8000002A00F03682057901274FF0000CBAE7BF
:104D900001240027002A00F074810579D555A3422B
:104DA0004FF00005057140F24E810D4FD7F800C05D
:104DB000671C5BE7002A00F02C8205791746012466
:104DC0003D70064FDFF824C03D789CF800C00135E7
:104DD000EDB23D703EE000BF8A0C00208B0C00203D
:104DE0008C0C0020880C0020890C0020840C0020F2
:104DF000002A00F01082057917464FF0010C0024BC
:104E00009C453D70047180F00A81C04F3D78A646F4
:104E10000CF1010802F80CE0CC6A434514F805C017
:104E200080F804C040F2F18002EB080E08F10104A2
:104E30008EF800C08BE6002A00F0EF810579174656
:104E400001243D70B24DB14F91F814C085F800C0F7
:104E500000253D70654535D3DFF8BCC2AD4DDCF8AB
:104E600000C09CF801C085F800C000253D7075E6C3
:104E7000002A00F0B28107794FF0010C002515E7F8
:104E8000002A00F0C2810479154601272C70A24D3A
:104E90009E4C2D68247895F801C0A4450FD92C4468
:104EA000AD789F42645D047180F0D2807C1C92E6F4
:104EB000002A00F09A81047901270025E7E6002303
:104EC0001B78FFDE2DB20F6957F82570A3423F799A
:104ED00007714FEA850540F24A81671C1AB190F8C4
:104EE00004C002F804C00C69DFF830C264592568B8
:104EF00005719F42ADB2ACF8005080F0B3807C1CCD
:104F00002D0A002A00F0228190F804C002F807C0A0
:104F10009C420571C0F03A8140F20E2303600120EB
:104F200004E77E4C002725880124E9E7774C2578A3
:104F30000127AD000024D1E74FF001084FF0000C2D
:104F4000724F3D78002A00F0928090F804E061E70B
:104F5000002A00F05C810479154601272C700D7A37
:104F60006F4C2478AC4210D204EB440501F10904E3
:104F7000DFF8A4C114F805E080F804E02C44BB423B
:104F8000CCF8004069D97C1C04E7634A0023136015
:104F90001B78FFDE002A00F0268105794FF0010C16
:104FA000002796E6002A00F0128105794FF0010CE7
:104FB00000279FE64FF4007303600120B6E6002A45
:104FC00000F0078190F804C00125002757E64FF450
:104FD000FF7303600120A9E640F2FF130360012084
:104FE000A4E640F2FD13036001209FE64FF4FE7338
:104FF000036001209AE640F2F9130360012095E670
:105000004FF4FC730360012090E64FF408730360D3
:1050100001208BE640F2F7130360012086E640F2A0
:105020001F230360012081E64FF4FB73036001201E
:105030007CE640F2F5130360012077E640F21D2381
:105040000360012072E64FF4FA73036001206DE6FD
:105050004FF407730360012068E64FF4F9730360AF
:10506000012063E640F20D23036001205EE6CC6A76
:10507000434514F805C080F804C0C6D908F10104FE
:1050800065E5A3420271DED9234DD5F800C0013495
:105090009CF801500571A342CBD901340325A342EA
:1050A0000571C1D901340D7E0571A342B2D9013415
:1050B0004D7E0571A342A3D901340025A342057199
:1050C00099D901340925A34205718FD901342125CD
:1050D000A342057185D901341125A34205717FF6DC
:1050E00076AF01340125A34205717FF675AF2C44DC
:1050F0000025A34205717FF65DAF01344D6905714E
:10510000A3427FF60FAE01349CE600BF8B0C00205B
:10511000840C0020880C00208C0C0020860C0020C1
:10512000890C00200325A342057187D9013440254D
:10513000A34205717FF663AD04F1010C00259C4587
:105140000571BFF46CAF04F10208F9E69C420571E9
:10515000BFF4E2AE013434E60725A34205714FD90E
:10516000671CE7E502EB0C070CF1010469E640F26D
:105170000A2303600120D9E502EB0C070CF1010CB6
:105180003DE64FF4097303600120CFE517190134A0
:1051900016E60524BB4204717FF6D7AD013776E6EB
:1051A0000424BB4204717FF6F9AC01370D7AD7E6CF
:1051B00090F804C0964601243AE6D519013765E611
:1051C000D5190137CAE6012472E70124AFE70124AB
:1051D00088E7012462E7012490E701246DE70124B8
:1051E0007AE701246EE7012471E701245BE70124DB
:1051F0004EE701247CE740F2ED130360012095E5C2
:1052000040F217230360012090E501273FE60127C4
:10521000A6E60124D5E514468EE7012412E600BF78
:1052200030B5036A1A6800241470D3E9002387B0EC
:105230000132013B054620460594CDE9032300F0E9
:10524000B3FA204603A9FDF7EBFE30B10446002077
:1052500000F0B2FA204607B030BD064B019301A919
:105260000295FEF7B1FB0446002000F0A5FA2046A7
:1052700007B030BD4D4A00000A79012A0B460BD019
:10528000022A07D1016AD1E90012581C013A013102
:10529000FEF78CB806207047C169D1E90012581C8E
:1052A000013A0131FEF782B810B404460B4654F8B7
:1052B000102B21460C325DF8044BFEF7ABBB00BF50
:1052C0002DE9F041037A056884B0A3B3837A00F135
:1052D000090293B3C37A04460C356FF0080104F158
:1052E0001006284612F8038000F0F2FB30462468CE
:1052F000FEF768FE03464434082704605F603046CA
:10530000FEF760FED0E90012002318460191CDE9B6
:10531000022300F049FA404601A9FDF781FE18B9C1
:105320003946284600F0C8FB002000F045FA00206E
:1053300004B0BDE8F0815B78FFDE1B78FFDE00BFC4
:105340002DE9F047037A066884B04BB3837A00F105
:1053500009023BB3C37A04460C366FF0080104F12E
:105360001007304612F8039000F0B2FB384625686B
:10537000FEF728FE44354FF00808C0E900583846CB
:10538000FEF720FE2568383582462946D0E900021E
:1053900008F0F2FC40B90446204604B0BDE8F087AE
:1053A0005B78FFDE1B78FFDE2946DAE9000208F0B1
:1053B000F2FC38462468FEF705FE4434C0E9004894
:1053C0003846FEF7FFFDD0E9001200231846019190
:1053D000CDE9022300F0E8F9484601A9FDF720FED7
:1053E000044630B1002000F0E7F9204604B0BDE8E3
:1053F000F0874146304600F05FFBF3E72DE9F04FC0
:10540000074685B00D46046890468AB300231E46C1
:1054100004F10C0CE21892F83A10A94223D0581C5F
:10542000002E5BD00A280346F4D1002E00F029811B
:1054300004F11009484600F089FBBFF34F8FB8F123
:10544000000F08BF00253570484600F097FBBFF3FA
:105450004F8FE3685B0700F10381E468C4F3C00485
:10546000002C00F0B0800024204605B0BDE8F08F8D
:1054700094F83A308B4200F0008194F83B308B4234
:1054800000F0068194F83C308B4200F0038194F8E0
:105490003D308B4200F0008194F83E308B4200F0AA
:1054A000FD8094F83F308B4200F0FA8094F8403051
:1054B0008B4200F0F78094F841308B4200F0F4808A
:1054C00094F842308B4200F0F18094F843308B42E4
:1054D00008BF0926C7D126443A36A9E700296ED06D
:1054E0000A2800F0CE80221892F83A209542BAD0CD
:1054F000991C002A00F0BB800A2900F0C2806218C3
:1055000092F83A209542AED0D81C002A00F0B7801D
:105510000A2800F0B680221892F83A209542A2D0CC
:10552000191D002A00F0A3800A2900F0AA80621841
:1055300092F83A20954296D0581D002A00F09F809C
:105540000A2800F09E80221892F83A108D428AD0E4
:105550009A1D002900F0AC800A2A00F09280A11860
:1055600091F83A108D423FF47EAFD81D002900F02B
:10557000A2800A2800F08580221892F83A108D4205
:105580003FF471AF03F10802002900F091800A2A6C
:1055900077D0A11891F83A108D423FF464AF03F12F
:1055A0000900002900F087800A286AD094F8433067
:1055B0009D423FF458AF002B63D10A2009232E33BC
:1055C0000CEB03062EE73B7A3E68002B4DD0BB7AEE
:1055D00007F10902002B46D0FB7A0C366FF0080168
:1055E00007F11008304612F803A000F071FA4046A7
:1055F0003D68FEF7E7FC44354FF00809C0E9005963
:105600004046FEF7DFFC3D68383583462946D0E941
:10561000000208F0B1FB00283FF425AF2946DBE982
:10562000000208F0B8FB40463D68FEF7CBFC44356D
:10563000C0E900594046FEF7C5FC0346D3E9002304
:105640002046CDE90123039400F0AEF8504601A9AD
:10565000FDF7E6FC0446B0B1002000F0ADF803E72A
:10566000FCF73CFFFFE61B78FFDE5B78FFDE0346BE
:105670002E3308460CEB0306D4E616462BE70B4602
:105680009DE71124F0E64946304600F015FAE3E7BD
:10569000012620E702261EE703261CE704261AE758
:1056A000052618E7062616E7072614E7082612E758
:1056B0000346104683E7134681E700BFF8B5054669
:1056C000044655F8106B2846FEF77CFC06F14407AB
:1056D00003460822C3E900722846FEF773FC05461C
:1056E0000021D0E9000208F07AFB6A680021384600
:1056F00008F075FB6A68002106F1380008F06FFBBE
:10570000002000F051F8237A93B1A37A04F1090242
:1057100083B1E37AD05C03060ED46FF0080106F182
:105720000C0000F0D5F9002000F046F80020F8BD8C
:105730005B78FFDE1B78FFDE07F094FAEDE700BF31
:1057400068B1052823D8154B185CF8B1144B10B577
:1057500053F82040ECB123781BB9A01C10BD1148B0
:1057600070470020FEF744F92278A2B100230133EC
:10577000DBB220F8132014F8012F002AF7D10133EF
:105780005B00DBB243F44073038010BD7047002020
:105790007047204610BD40F20233F5E754F3000095
:1057A0003CF30000D2F2000072B6024A13680133E3
:1057B00013607047900C0020034A1368013B13608C
:1057C00003B962B6704700BF900C00201EF0040FB2
:1057D0001CBFEFF309800AE0EFF308800549064A91
:1057E000884201D8904202D88D464FF00000034B0A
:1057F000184700000000042000E0032025580000A6
:10580000BFF34F8F0549064BCA6802F4E0621343A9
:10581000CB60BFF34F8F00BFFDE700BF00ED00E09E
:105820000400FA052DE9F04F83B08146FBF7FAFE3C
:10583000FBF7ECFE0028FBD1444F454B454CDFF80D
:105840003481A56AB8F80220FF1AFF083F0447F028
:105850000107B9F1000F70D0002A41D13D4BDB6A3E
:10586000DFF814B1DFF814A10024012602E00134AE
:105870001A2C12D006FA04F32B42F8D05BF824203D
:10588000002AF4D0B8F80230002BF0D05146384648
:105890000134FBF731FD1A2CECD12A060ED5B8F8ED
:1058A00002302BB94846FFF7ABFF03B0BDE8F08FDD
:1058B000284B29495A6B3846FBF71EFD2B04F1D5BE
:1058C000B8F80230002BEDD0224B24499A6B3846B1
:1058D000FBF712FD4846FFF793FF03B0BDE8F08FDA
:1058E000D9F818201E493846FBF706FDB8F80230F3
:1058F00053B3D9E90210D9E90023CDE900101949C1
:105900003846FBF7F3FDB8F80230002BA6D0D9F8E3
:105910001C10D9E90423384600911349FBF764FDB4
:105920000C4BDB6A99079BD5B8F80230002B97D057
:105930000E493846FBF71EFB92E7002A8ED00C4931
:105940003846FBF717FBEBE7E36A89E760090100DC
:10595000F008010000ED00E058F4000078F40000C9
:105960005CF3000074F30000ACF3000008F40000E6
:10597000D4F30000A402002094F400004CF40000D2
:1059800099B110B4B2FBF3F403FB1424A4B244B9EC
:10599000C0E9001484608281C38120465DF8044B15
:1059A000704709205DF8044B70470E20704700BF18
:1059B00030B482B050E8013F9DB2C4892544848947
:1059C000A54228BF2D1B0489A54202BFBFF32F8F1C
:1059D000002207E0C5EA030540E80154002CE9D1A4
:1059E0004FF001028DF803200193019B9DF80320E5
:1059F0000B602AB10B880068184402B030BC7047B5
:105A000002F0FF031846F8E70A884B889A4201D053
:105A10000020704750E8012FC2EA024240E801230B
:105A2000002BF7D10120704730B482B050E8023F1C
:105A30001FFAA3F5C488A54202BFBFF32F8F00222F
:105A40000DE0C48925448489A54228BF2D1BC3EAE3
:105A5000054540E80254002CE8D14FF001028DF8D2
:105A600003200193019B9DF803200B602AB14B8812
:105A70000068184402B030BC704702F0FF031846BB
:105A8000F8E700BF0A884B889A4201D0002070478F
:105A900050E8022FC2EA224240E80223002BF7D14D
:105AA0000120704750E8002F0B4640E8003C9CF076
:105AB000000FF7D11046704750E8003F43EA01025B
:105AC00040E8002C9CF0000FF6D11046704700BF54
:105AD00050E8003F03EA010240E8002C9CF0000F70
