:020000022000DC
:1060000000000420B5620200DD6202003DCA020009
:10601000E1620200E3620200E562020000000000AB
:10602000000000000000000000000000E762020025
:10603000E962020000000000EB620200ED62020073
:10604000EDFA0200EF62020039FC0200FD3B0300A2
:106050005D3A0300EF62020009F40200EF62020001
:10606000EF620200EF620200EF620200EF620200E4
:10607000EF620200EF620200EF620200EF620200D4
:10608000EF620200B57D0200EF620200EF620200E3
:10609000557E0200EF620200EF620200EF62020032
:1060A000EF620200EF620200EF620200EF620200A4
:1060B000EF620200EF62020000000000000000003A
:1060C000EF620200EF620200EF620200EF62020084
:1060D000EF620200EF620200EF620200F1230300B0
:1060E000EF620200EF620200EF62020000000000B7
:1060F00000000000EF62020000000000EF620200FA
:10610000000000000000000000000000000000008F
:10611000000000000000000000000000000000007F
:10612000000000000000000000000000000000006F
:10613000000000000000000000000000000000005F
:10614000000000000000000000000000000000004F
:10615000000000000000000000000000000000003F
:10616000000000000000000000000000000000002F
:10617000000000000000000000000000000000001F
:10618000000000000000000000000000000000000F
:1061900000000000000000000000000000000000FF
:1061A00000000000000000000000000000000000EF
:1061B00000000000000000000000000000000000DF
:1061C00000000000000000000000000000000000CF
:1061D00000000000000000000000000000000000BF
:1061E00000000000000000000000000000000000AF
:1061F000000000000000000000000000000000009F
:1062000010B5054C237833B9044B13B10448AFF3F0
:1062100000800123237010BDD8250020000000005D
:106220003486030008B5034B1BB103490348AFF3A1
:10623000008008BD00000000DC250020348603003B
:10624000154B002B08BF134B9D46A3F5803A002148
:106250008B460F461348144A121A0EF03BFD0F4BA3
:10626000002B00D098470E4B002B00D09847002001
:10627000002104000D000D48002802D00C48AFF3A7
:1062800000800EF0C5FC200029000EF0E3F90EF0AE
:10629000ABFC00BF0000080000000420000000006C
:1062A00000000000D8250020A834002000000000D5
:1062B000000000000649074A074B9B1A03DD043B18
:1062C000C858D050FBDC0DF0C1F9FFF7B9FF000052
:1062D00074870300E0220020D8250020FEE7FEE7B7
:1062E000FEE7FEE7FEE7FEE7FEE7FEE7FEE7FEE786
:1062F000F0B595B0002415460F4608461E4608F036
:1063000041FB384623460895082205A91A9D09969F
:106310000D950A948DF82C400C9408F0ADFB9DF877
:1063200014308DF81140DDE9061003F00302012A54
:10633000CDE9020127D0022A04D0384608F026FB16
:1063400015B0F0BDBDF81650C3F3C2038DF8103080
:10635000AD090826082D2C4628BF082433462246BE
:106360000EA9384608F088FB2D1B214608AB02AA6F
:106370000EA8264401F04EFB002DEBD1384608F064
:1063800005FB15B0F0BDBDF81460059DC6F383167E
:10639000C3F3C204B2000EA9384608238DF810409A
:1063A000C5F3952508F068FB08AB324628460EA9D0
:1063B000009302AB01F088FA384608F0E7FA15B00E
:1063C000F0BD00BF704700BF00B583B0044B009321
:1063D000044A4023FFF78CFF03B05DF804FB00BFC5
:1063E000E9630200F825002038B50F480F4D037807
:1063F0000F4CEB5C0025D2B2257053B90C3009F07C
:1064000085FF58B90B4B1B7813B12378002BFCD0B8
:1064100038BD04300AF0B0FA0028F3D0064A532100
:1064200001F044FCEEE700BFE0220020C033002072
:1064300038260020F42500208459030070B5144844
:10644000144A0378D35C88B0EBB90C3009F0B6FE7F
:10645000114D0FCD6C460FC495E80F0008AD062610
:1064600045F8206D84E80F0029460022084808F00E
:10647000A5FE18B1094A432101F018FC084B00227F
:106480001A7008B070BD04300AF0CCF9E0E700BF24
:10649000E0220020C0330020585903008459030033
:1064A000F4250020064B8B6004284FF00003CB60DE
:1064B0004B609CBF034B53F820300B60704700BF0C
:1064C000385C03005C5C0300C368DB6800225A711F
:1064D000704700BFC368DB6801225A71704700BF74
:1064E00030B40E4B0E4D0F4CED1A00222D09C1E9B0
:1064F0000242C1E900220BD003EB0515DC682479C8
:10650000FF2C02D0904205D001321033AB42F5D1BE
:1065100030BC70479B680B6030BC7047008703003D
:1065200010870300705C03000129034604D08168D2
:10653000D1F84811890704D500221846114607F002
:1065400071BC00B5D2E90031054A83B0CDE9002124
:10655000044A022107F0F6F803B05DF804FB00BF1F
:10656000B05A0300A45A03008368D3F848319B074C
:1065700033D42DE9F0471B4C1B4E361B360982B035
:1065800028D00746DFF868A0DFF86890DFF8688059
:1065900004EB06160CE06D79CDF804C0002D0CBF9D
:1065A00055464D460095103407F0CCF8A64211D060
:1065B000D4E902E595F804C0BCF1FF0F73464246EA
:1065C0004FF008013846E6D1084A103407F0BAF80F
:1065D000A642EDD102B0BDE8F0870022114607F0D7
:1065E00021BC00BF0087030010870300DC5A0300B2
:1065F000D05A0300C85A0300FC5A03008368D3F83A
:1066000048319B0703D4044A022107F09BB80022BB
:10661000114607F007BC00BF205B03008368D3F876
:1066200048319B0703D4044A022107F08BB80022AB
:10663000114607F0F7BB00BF205B0300F0B5344CF8
:1066400085B004F5836006F0BDFB04F2144006F04B
:10665000B9FBD4E9013703EA0702D01C04EB80013F
:1066600014F8200010F0040042D003F1020C0E7860
:1066700006F00306012E654635D0022E02F1030610
:1066800021D004EB86010028F1D104EB8202013312
:10669000D26801923B4004EB830302F00302012A1B
:1066A000DE682ED0022A25D1BDF806309B090333BF
:1066B000360C05EB9305174806F090FB00B16560BA
:1066C000304605B0F0BD4B880CEB931307EA03028C
:1066D000D11C03F1020C14F82100654604EB810182
:1066E00000F00400CFE70B88C3F383136344EDE7A6
:1066F0009D1CCAE708494FF4BF7006F07BFA0026DC
:10670000D9E7BDF80430C3F38313360C1D44D2E738
:106710000C270020202B0020345B03002DE9F041E2
:106720000F4C104D52F8046C2D1B2D0907460FD04D
:1067300004EB051502E01034AC4209D0A1683046E4
:106740000EF0FCFA0028F6D1E3685871BDE8F0813C
:1067500033463846044A0221BDE8F04106F0F2BF54
:1067600000870300108703008C5A03002DE9F041D5
:10677000104C114D52F8046C2D1B2D09074610D0FA
:1067800004EB051502E01034AC420AD0A168304693
:106790000EF0D4FA0028F6D1E36801225A71BDE860
:1067A000F08133463846054A0221BDE8F04106F043
:1067B000C9BF00BF00870300108703008C5A030085
:1067C00070B4104A104E114C921B0023D208C1E93C
:1067D00002434B600CD00E4D2C88A04204D10CE03B
:1067E00035F82340A04206D001339A42F8D1002266
:1067F0000A6070BC704706EBC30632680A6070BC62
:10680000704700BF0087030070860300385C0300F8
:10681000282500202DE9F04FCB683E4EDFF820916F
:106820005B79A6EB090685B08B46F6088046002BFF
:106830006BD0394A394B0821404606F083FF384A6D
:106840000821404606F07EFF76B3364DDFF8F4A00F
:10685000B70000240023EA5AA2423AD004339F42F0
:10686000F9D15146002335F82320A24241D001330B
:106870009E42F8D100208446D646002335F82320D6
:10688000A24223D001339E42F8D1002384450ED882
:10689000254A0292CDE9001E0134244A08214046CF
:1068A00006F050FFA642D5D105B0BDE8F08F204AD2
:1068B0000292CDE9001E01341C4A0821404606F030
:1068C00041FFB442C6D105B0BDE8F08F59F833306E
:1068D000DCE7DBF80C2017491279595802EB420229
:1068E000072393400B40D340DBB2134A52F82310E6
:1068F000B8E709EBC30393F806C00F4B60460328C3
:1069000028BF032053F820E0B7E70C4A022106F025
:1069100019FF8EE700870300B45B0300A85B030048
:10692000D45B0300282500201C5B0300145C0300DB
:106930002C5C030070250020485C0300945B03007E
:10694000708603008C5B030013460A46C168FFF79C
:1069500061BF00BF2DE9F047124C134D52F8046C93
:106960002D1B2D09804615D01746894604EB0515C9
:1069700002E01034A5420DD0A16830460EF0DEF9D9
:106980000028F6D13B464A4621464046BDE8F0473E
:10699000FFF740BF33464046044A0221BDE8F047B6
:1069A00006F0D0BE00870300108703008C5A030056
:1069B0002DE9F04F8E4B8F4C52F8049CA3EB04084A
:1069C0005FEA181885B0064611D017460D4604EB4D
:1069D000081802E01034A04509D0A16848460EF01E
:1069E000ADF90028F6D15DB905B0BDE8F08F824A57
:1069F0004B463046022105B0BDE8F04F06F0A2BE7E
:106A0000E3687E49386893F8049007220EF0A8F9ED
:106A1000002866D1012D00F0DE80DFF80C820446EC
:106A20000A2258F8041B78680EF09AF958B101341C
:106A3000052CF5D17B68724A3046022105B0BDE8CD
:106A4000F04F06F07FBEE3B2022D019340F0BF800D
:106A50006C4C6D4BA3EB04085FEAD8082746C3D003
:106A600009EB490307229A400292019ADFF8A4A198
:106A70000194DFF8A4914FEA880802FA03FB00258D
:106A8000144609E0019B53F8153006F05BFE04350F
:106A9000A84507F10807A7D0BB79A3424A464FF0A3
:106AA00002013046EED355F80A20029982EA0B0320
:106AB0000B405340C3F3C202C3F382118A4238BF72
:106AC0000A4603F007018A4238BF0A464F4945F893
:106AD0000A30C3F342206918824238BF02464A8016
:106AE000D5E708224A4938680EF03AF900287AD1E9
:106AF000012D0190ACD0012303F18043013B09EB50
:106B00004909A7F1040A07EB830707233D4C3E4AD6
:106B100003FA09F30293019BA2EB04084FEAD80899
:106B200003FA09F3B3460AEB850A46460393A046E7
:106B300057F8044F002E43D0C146002504E001352C
:106B4000AE4209F108093AD02022214658F8350012
:106B50000EF006F90028F2D1AE4230D099F80620A6
:106B6000019B9A4223D32B4C039B54F82520029877
:106B70002649534003405340C3F3C202C3F382107B
:106B8000824238BF024603F00700824238BF024605
:106B9000C3F3422001EB8501824238BF024644F82C
:106BA00025304A80BA45C3D105B0BDE8F08FD9F889
:106BB0000030194A0221584606F0C4FDF2E73C684D
:106BC000164A23460221584606F0BCFDEAE77FF646
:106BD0000BAF022390E7124A3046022105B0BDE810
:106BE000F04F06F0AFBD3B680E4A304625E700BFC8
:106BF00010870300008703008C5A0300F459030038
:106C00006C5A0300708603000087030028250020CB
:106C1000145A030070250020345A0300585A030008
:106C2000FC5903001C5A0300485C030001B970477B
:106C30002DE9F04FC368DB6885B089461746834667
:106C40007A4910681D7907220EF08AF800286ED163
:106C5000B9F1010F00F0DE80754E04460A2256F8A5
:106C6000041B78680EF07CF858B10134052CF5D17E
:106C70007B68704A5846022105B0BDE8F04F06F027
:106C800061BDE3B2B9F1020F019340F0C0806A4CDC
:106C90006A4F3F1BFF08264646D0019B029405EB36
:106CA00045051A46AA404FF0070A0AFA05FADFF826
:106CB0009891DFF898810192BF0000251C4609E0F9
:106CC000029B53F81530043506F03CFDAF4206F147
:106CD000080629D0B379A34242464FF00201584634
:106CE000EED355F80920019B534003EA0A035340B1
:106CF000C3F3C202C3F382118A4238BF0A4603F0CB
:106D000007018A4238BF0A464D4945F80930C3F3A6
:106D100042206918824205F1040538BF0246AF429D
:106D20004A8006F10806D5D105B0BDE8F08F0822EB
:106D3000444938680EF014F8002873D1B9F1010FF6
:106D40000190A4D0012303F18043013B05EB4505ED
:106D50003A1F07EB83070723AB40374C374E0293AC
:106D6000019B361BAB4002EB8909F6080393A04652
:106D700057F8044F002E43D0C246002504E00135E9
:106D8000AE420AF1080A3AD02022214658F83500CE
:106D90000DF0E6FF0028F2D1AE4230D09AF806207E
:106DA000019B9A4223D3284C039B54F82520029838
:106DB0002349534003405340C3F3C202C3F382103C
:106DC000824238BF024603F00700824238BF0246C3
:106DD000C3F3422001EB8501824238BF024644F8EA
:106DE00025304A80B945C3D105B0BDE8F08FDAF847
:106DF0000030164A0221584606F0A4FCF2E73C682F
:106E0000134A23460221584606F09CFCEAE78BD938
:106E1000022398E70F4A5846022105B0BDE8F04F1B
:106E200006F090BC3B680C4A24E700BFF45903000D
:106E3000485C03006C5A030070860300008703005F
:106E400028250020145A030070250020345A03001E
:106E5000585A0300FC5903001C5A030021B9124B75
:106E600003EBC00000687047104A0F49521AD2085D
:106E700015D030B40E4D2B88834212D0002303E08E
:106E800035F82340844205D001339A42F8D10020DE
:106E900030BC704701EBC300006830BC704710463F
:106EA00070470846F8E700BF7086030000870300BC
:106EB00028250020094B013903EBC00003290BD81A
:106EC000DFE801F0020806040220704740797047AD
:106ED00000797047042070470020704770860300D7
:106EE0002DE9F047DFF8FC90074600208846D9F8E6
:106EF000084005F051FDD9E90132D9F8006013448A
:106F000001339B1B012B62D809F21C450121284645
:106F100005F032FFFFF792FB0146284605F02CFFF3
:106F2000D9E90132D9F80010134401335B1A012B5F
:106F3000ECD90A40033205230231002049F82230FF
:106F4000C9F8001005F042FD0021224805F0F2FECC
:106F500080F3100A204B214A3D0C9B1AB5EBD30F4E
:106F60002FD2731C234009EB83033440033445EADA
:106F70000A45DD6019F8243067F3C50309F82430A9
:106F800039F824306FF3891329F8243059F8242074
:106F900068F39F221346012161F301036FF382031B
:106FA00049F8242009F8243099F820341BB906E068
:106FB00000F01AF818B1D9E900329A42F8D1BDE8C8
:106FC000F087074940F2A31005F014FEC9E73146E7
:106FD000AFE700BF282B0020008703007086030066
:106FE000345B03000C2700202DE9F04F9E4C00235A
:106FF00085B0C4F81834BFF34F8FD4E9015605EAC1
:107000000602D31C04EB830114F82330580719D56A
:1070100027680B7803F00303012B3DD0022B03D12B
:107020004B88023505EB931506EA0502D4F81804DF
:10703000D31C04EB830128B9AF423ED914F82330A6
:107040005B07E6D404EB82026B1CD26801923340EA
:1070500004EB830302F00302DB680293022A05F1CA
:10706000020800F0A380012A2BD0D4F810543DB1BF
:107070002B6828469B689847EB681D68002DF7D160
:107080007A4B5B88012B0DD8D4E90030C01A18BFA9
:10709000012005B0BDE8F08F0B880235C3F38313E0
:1070A0001D44C1E7724B73487349C01AC0080004FD
:1070B00040F00200FFF714FFE6E7676005B0BDE8A7
:1070C000F08FBDF804706D48C7F38313062B28BFFB
:1070D0000623991C63F389178900ADF8047007F043
:1070E0000FFCC7F3C20781460028BED007F04AFC58
:1070F0000023082201A9484607F06AFCBDF80430C5
:1071000013F4707F00F0AE806FF0010BABEB050B5A
:10711000082506EA080103312B46042204EB81010D
:10712000484607F055FCBDF8043008F1010A0BEBA6
:107130000A02C3F383139342D04605F10405E8D84D
:10714000D4F81834002B77D1D4F81054FDB1DFF8FF
:1071500034810726EB685A79B2B11A79BDF8080074
:1071600002EB420158F8200006FA01F2052F02EA6C
:10717000000208BF0327CA40BA4205D32B6849461C
:107180001B6828469847EB681D68002DE2D14846E9
:1071900007F0FCFB002005F0FFFBD4F818340BB916
:1071A000C4F804A0002005F011FC6DE7BDF806301E
:1071B00032489DF804704FEA931A5546502D28BF67
:1071C000502565F38F1305F10801ADF8063007F07F
:1071D00097FBC7F3C207814600283FF446AF26EA73
:1071E000080B0BF1010B07F0CDFB4FEA8B0B0023D3
:1071F000082201A9484607F0EBFB5D4527D9EBB211
:10720000BBF1000F1CD006EA0801A3EB0B0303310E
:1072100004EB8101DDB25A460823484607F0D8FB4B
:107220002A460BF108031649484607F0D1FB0AF13C
:10723000030A08EB9A0A83E7484607F0A7FB23E70F
:107240002A4608230E49484607F0C2FBEFE706EA44
:107250000801033104EB81012A460823484607F060
:10726000B7FBE4E7C2466BE70C270020442500206B
:1072700070860300A8860300B85D030050870300F2
:1072800018270020702500202DE9F047DFF808A11D
:107290000746002091468846DAF8084005F07CFB56
:1072A000DAE90132DAF80060134401339B1B022B48
:1072B00068D80AF21C450121284605F05DFDFFF75C
:1072C000BDF90146284605F057FDDAE90132DAF842
:1072D0000010134401335B1A022BECD90A4003322D
:1072E0000331452300204AF82230CAF8001005F087
:1072F0006DFBB31C23400AEB830300212248C3F833
:107300000C9005F017FD80F31009204B204A3D0C2E
:107310009B1AB5EBD30F2FD2731C23400AEB8303C8
:107320003440033445EA0945DD601AF8243067F338
:10733000C5030AF824303AF82430012161F3891397
:107340002AF824305AF8242068F39F22134661F368
:1073500001036FF382034AF824200AF824309AF8D4
:1073600020341BB906E0FFF73FFE18B1DAE900321E
:107370009A42F8D1BDE8F087064940F2A31005F023
:1073800039FCC9E73146A9E7282B00200087030014
:1073900070860300345B03000C2700202DE9F84FB2
:1073A000404C8046002093469A468946A56805F0E1
:1073B000F3FAD4E90132276813440133DB1B032BB2
:1073C0006ED804F21C460121304605F0D5FCFFF7CB
:1073D00035F90146304605F0CFFCD4E90132216889
:1073E000134401335B1A032BEDD90A4003320431F5
:1073F0008523002044F82230216005F0E7FABA1C0A
:10740000FB1C2A402B4004EB820204EB8303002187
:107410002548C2F80CB0C3F80CA005F08BFC80F333
:10742000100A224B224A4FEA18469B1AB6EBD30F9A
:1074300030D27B1C2B4004EB83033D40033546EAEE
:107440000A46DE6014F8253068F3C50304F82530D9
:1074500034F82530022262F3891324F8253054F8D9
:10746000252069F39F221346012161F301036FF385
:10747000820344F8252004F8253094F820341BB901
:1074800006E0FFF7B1FD18B1D4E900329A42F8D115
:10749000BDE8F88F074940F2A31005F0ABFBC8E741
:1074A0003946A2E70C270020282B00200087030084
:1074B00070860300345B03002DE9F84F434C80468F
:1074C000002093469A46A568894605F065FAD4E9F6
:1074D0000132276813440133DB1B042B74D804F2F8
:1074E0001C460121304605F047FCFFF7A7F801468E
:1074F000304605F041FCD4E90132216813440133E0
:107500005B1A042BEDD90A4003320531C523002054
:1075100044F82230216005F059FAB91CFA1C2940C0
:107520003B1D2A4004EB810004EB82022B4004EB5C
:107530008303C0F80CB00021C2F80CA024480A9ABA
:10754000DA6005F0F7FB80F3100A224B224A4FEA7B
:1075500018469B1AB6EBD30F30D27B1C2B4004EBA2
:1075600083033D40033546EA0A46DE6014F82530C1
:1075700068F3C50304F8253034F82530032262F39C
:10758000891324F8253054F8252069F39F221346E7
:10759000012161F301036FF3820344F8252004F80D
:1075A000253094F820341BB906E0FFF71DFD18B113
:1075B000D4E900329A42F8D1BDE8F88F074940F289
:1075C000A31005F017FBC8E739469CE70C270020FD
:1075D000282B00200087030070860300345B030023
:1075E0002DE9F04F85B04B4C0E9EA5680296CDE973
:1075F00000238046994600200F9B039392468B46BA
:1076000005F0CAF9D4E90132276813440133DB1BC2
:10761000052B7CD804F21C460121304605F0ACFB5A
:10762000FFF70CF80146304605F0A6FBD4E901321D
:107630002168134401335B1A052BEDD90A4003324C
:10764000063140F20513002044F82230FE1C216070
:1076500005F0BCF9B91C3A1D29402E4004EB81010C
:1076600004EB86067B1D2A4004EB82022B40C1F806
:107670000CA004EB8303C6F80C900E9ED66000218C
:107680000F9A2548DA6005F055FB80F31009234B6B
:10769000234A4FEA18469B1AB6EBD30F31D27B1C14
:1076A0002B4004EB83033D40033546EA0946DE6088
:1076B00014F8253068F3C50304F8253034F8253074
:1076C000042262F3891324F8253054F825206BF343
:1076D0009F221346012161F301036FF3820344F8F3
:1076E000252004F8253094F820341BB906E0FFF774
:1076F0007BFC18B1D4E900329A42F8D105B0BDE85C
:10770000F08F084940F2A31005F074FAC7E7394634
:1077100094E700BF0C270020282B002000870300DF
:1077200070860300345B03002DE9F04F87B0504CA6
:10773000109EA5680396CDE901239946119B0493F9
:107740008046129B0593002092468B4605F024F953
:10775000D4E90132276813440133DB1B062B00F206
:10776000848004F21C460121304605F005FBFEF73B
:1077700065FF0146304605F0FFFAD4E90132216881
:10778000134401335B1A062BEDD90A40033207314B
:1077900040F24513002044F82230216005F016F92C
:1077A000B91CF81C3A1D7B1D294028402A4004EBD7
:1077B00082022B4004EB810104EB8000BE1D04EB30
:1077C000830C2E40109BC1F80CA004EB8606C0F879
:1077D0000C90D360119BCCF80C300021129B2548F3
:1077E000F36005F0A7FA80F31009234B234A4FEA10
:1077F00018469B1AB6EBD30F31D27B1C2B4004EBFF
:1078000083033D40033546EA0946DE6014F825301F
:1078100068F3C50304F8253034F82530052262F3F7
:10782000891324F8253054F825206BF39F22134642
:10783000012161F301036FF3820344F8252004F86A
:10784000253094F820341BB906E0FFF7CDFB18B1C2
:10785000D4E900329A42F8D107B0BDE8F08F084968
:1078600040F2A31005F0C6F9C7E739468DE700BF1F
:107870000C270020282B00200087030070860300BF
:10788000345B0300044BD3E900239A4201D0FFF795
:10789000ABBB0020704700BF0C27002038B5094B58
:1078A000D3F81044012583F820544CB1E3685D718E
:1078B000236820465B689847E3681C68002CF5D174
:1078C00038BD00BF0C2700202DE9F04784B01D46CD
:1078D0000C9C002394F80C802373EB8881460E46A1
:1078E0001746002B40D1297A05290ED06B7AA8883B
:1078F00073BB404B53F821A00021FFF7AFFA52466B
:1079000003463D49204606F031FC062F09D8DFE842
:1079100007F0046A4249525D33004946204606F0AA
:1079200025FC2B7A052B05D06B7A5BB933492046B1
:1079300006F01CFC204606F005FC84F80C8004B020
:10794000BDE8F0872E4A2F49204606F00FFCEDE7F0
:10795000FFF7B0FA2C4B2B4953F82020204606F0B5
:1079600005FC297AA888C4E7254A00922749284AB5
:10797000204606F0FBFBB6E7D6E90410D6E9002363
:107980000390D6E902070291CDE900074946204657
:1079900006F0ECFBC5E74946D6E90023204606F091
:1079A000E5FBBEE7B168D6E90023204600914946D1
:1079B00006F0DCFBB5E7D6E90201D6E90023019128
:1079C00000904946204606F0D1FBAAE7D6E90371AC
:1079D000B068D6E900230291CDE900074946204668
:1079E00006F0C4FB9DE732684946204606F0BEFB20
:1079F00097E700BFB8600300AC600300F85A0300CB
:107A0000A0600300A86003004860030088600300D2
:107A100080600300082900D970472DE9F04F1D460A
:107A2000904600232A7B2B7385B0B8F8063003926A
:107A300007460E46002B7BD198F80810052911D077
:107A400098F80930B8F80400002B63D13C4B53F888
:107A500021400021FFF702FA224603463949284611
:107A600006F084FBDFF8FCB0DFF8FC90002405E0B2
:107A70003A5D013406F07AFB082C09D0A64249464B
:107A80002846F5D85946013406F070FB082CF5D18C
:107A90002D49DFF8D8B0DFF8D890284606F066FB0D
:107AA00000240CE017F804A0BAF17E0F23D92E228F
:107AB00049462846013406F059FB082C08D0A64256
:107AC000F0D859462846013406F050FB082CF6D170
:107AD00098F80830052B02D098F80930A3B91B4953
:107AE000284606F043FB284606F02CFB039B2B732D
:107AF00005B0BDE8F08F0DF0B3F85044524643781E
:107B000013F0970FD3D0D3E7114A1249284606F055
:107B10002DFBE4E7FFF7CEF90F4B0E4953F8202079
:107B2000284606F023FB98F80810B8F804008DE703
:107B3000074A009209490A4A284606F017FB7BE7E4
:107B4000B8600300AC60030078600300F85A0300DB
:107B5000A0600300A8600300486003008860030081
:107B600080600300746003006C600300B460030075
:107B70007C600300C30706D4830742BF2E4B0C2250
:107B8000C3F81827704770B44FF08043D3F84036DD
:107B9000D90722D44FF0A04327490322C3F818275E
:107BA0004026C3F820274FF48075C1F824274FF4EE
:107BB0000074C3F830274FF48052C3F80865C3F847
:107BC0000855C1F80845C3F80825820703D51A4BA4
:107BD0000C22C3F8182770BC70474FF01023D3F85D
:107BE000043303F00703072BD4D1144B0122C3F84D
:107BF0000425D3F80024002AFBD04FF010210020E8
:107C0000D1F804230D4C22F0070242F00402C1F81F
:107C10000423C3F80405D4F80034002BFBD0BFF3D1
:107C20004F8F0749074BCA6802F4E0621343CB60E9
:107C3000BFF34F8F00BFFDE70003005000E001409D
:107C400000ED00E00400FA0530B482B001248DF8A4
:107C50000740154B9DF80750186044F20104A042FC
:107C600059609A6014D044F20201884208D072B67A
:107C70009DF80730002BFBD162B602B030BC7047D4
:107C8000DA60DA6812889A61DA685268DA61EEE7D7
:107C90001A611A6992685A611A6912689A611A69B6
:107CA0005268DA61E3E700BF302B002000B583B0F3
:107CB00002900091019244F2010071466A4600F080
:107CC00003F803B000BD00BF2DE9F043044685B0C2
:107CD0000E46154672B6FFF7E1FDFFF7D3FD00280B
:107CE000FBD12C4F44F2010294427B8821D044F214
:107CF000020294420ED0002B3FD1274B1B68DB07BA
:107D000000D500BE2A463146204605B0BDE8F04306
:107D1000FFF79ABF002BF0D0204F21482B886A68CC
:107D20002049C01BC008000440F00100FFF736FBEB
:107D3000E3E7002BE1D0D5F80890194B174A4846E5
:107D4000A3EB020807F0B0F82B681749CDE901361C
:107D50004FEAD8084FEA08486B68009348F00108DA
:107D600003464A464046FFF7DFFC7B88002BC4D021
:107D700040460E49FFF7B4F8BFE7084B08480C49E6
:107D8000C01AC008000440F001003246FFF77CFA38
:107D9000B3E700BF44250020F0ED00E0708603004B
:107DA000A88603000461030020610300486103000A
:107DB0005C610300F8B5204A204B0024C2F8404122
:107DC000C2F84441C2F84841C2F84C41C2F80041EF
:107DD000C2F804411B6833B31949D2F804550A6844
:107DE000AD1A1A6825F07F45AA4227460DD8197C9E
:107DF000DE69AD1A144419B11F74D3E90520904708
:107E00001EB133461A68AA42F1D90E490E4A0B78C0
:107E100012789A4208D00D490D4A41F823404FF498
:107E20008013C2F80031F8BD531CDBB2022B08BF2F
:107E300000230B70EFE700BF00100140702C002002
:107E40006C2C0020692C0020682C0020602C002065
:107E500000E100E02DE9F04F8C4A8D491378097854
:107E6000DFF85082994285B0D8F800A000F07B81FD
:107E70000133DBB2022B08BF002386481370864A09
:107E8000076852F823107B1823F07F430024036017
:107E9000534626462046A446ABB11A688A4200F2F1
:107EA0006581DC68C3F800C0891A1044DA6934B10E
:107EB0003D1825F07F45C3E90154DE611E46134697
:107EC0000124002BE9D1002C40F07C810123009398
:107ED000724B734FDFF8E09143F001030193554675
:107EE0004FF0000B46B3D6E901C13446F669694B41
:107EF0006C481A68ACEB020323F07F43834248D8F6
:107F00000B44236000220121C4E90122E2612174B3
:107F1000002D5DD02A689A424DD2284603E00A68B7
:107F20009A424FD20846C1699B1A0029F7D12360B3
:107F3000E161C461002ED6D178783978884264D066
:107F40000B4603EB43034C1CBA7807EBC303E1B2C7
:107F50008A421A79397004BF00213970022A9C685C
:107F600044D0032A38D0012AE8D1227C002AE5D166
:107F7000D3F80CC0C4F804C01969A1605869E06066
:107F800099F800009B69A3610028B0D06260944614
:107F9000ADE7A2EB0C0222F07F428A4202D28B1A9A
:107FA0002360AFE700230122C4E90033A360E3614B
:107FB00022746DB12A68C8F80040D31A2B60E561BD
:107FC00025468FE7D21A0A602360E161C461B1E7F8
:107FD000C8F80040254685E7002DAFD000232B745C
:107FE000ED69002DFBD1C8F80050A5E74DB1AC42BA
:107FF0002B4603D1E4E094422FD01346DA69002ADD
:10800000F9D10023237488429AD1BBF1000F01D12A
:10801000554553D0002D56D1234E244A1F4C4FF4C2
:1080200080334FF400310127C2F880103C43C6F87A
:1080300048334FF43C60C6F808337760A047154BCF
:10804000B7604FF43C601D60A047194B1D700023C2
:1080500089F8003005B0BDE8F08FA34200F09180B0
:10806000E0692168D861002800F086802A4603680C
:108070000B440360AA424FF00003397878782374E8
:108080001CBF15464FF0010BBDE700BF682C002058
:10809000692C00206C2C0020602C002080610300E3
:1080A000502B0020FEFF7F000010014000E100E0A7
:1080B0005D2C0020702C00205C2C0020009B002BED
:1080C000C5D0002DA8D0434B434A1C68D2F80465A4
:1080D000424FD5F800A03978331B23F07F43DD1CD5
:1080E000B9B93F493F4B4FF48030C2F844034FF0D9
:1080F0000108C2F804034FF40030C1F8800143F0D6
:1081000001030860C2F800804FF43C60984787F88C
:108110000080AA452CBF04EB0A0363192E4923F003
:108120007F43C1F84035D1F80425921B9B1B22F0F8
:108130007F4223F07F4303329A4288D9294BD1F8FA
:108140000425C1F8402543F001034FF43C609847F3
:10815000234B4FF40032C3F80021002389F800308C
:1081600005B0BDE8F08F00260096B1E674BB521A48
:108170001A6001230093ABE60023397878782374E2
:1081800041E71946EA69C8F8002092B9CDE9023101
:10819000114BDFF840C001209860019B89F8000076
:1081A000CCF800204FF43C609847DDE90231D8F864
:1081B0000020C8690968D86100287FF458AF59E7E2
:1081C0002946DFE7C8F800309A467FE6C8F8003055
:1081D0009A46CCE76C2C0020001001405D2C00205A
:1081E00000E100E0806103002DE9F8431F4D204EBF
:1081F000204FDFF898804FF480334FF400324FF077
:1082000001090024C6F8802047EA0907C5F8483369
:108210004FF43C60C5F80833C5F80490B847C5F87A
:1082200008904FF43C60C8F80040B847124A134B1E
:1082300013491C601470134B134A0C700B211470FB
:108240001C8099704FF48012C023C6F8802186F8F4
:1082500014333260C5F8084586F81133D5F8043573
:10826000C8F800302046BDE8F88300BF0010014088
:1082700000E100E0806103005D2C0020702C0020F4
:10828000682C0020502B0020692C00206C2C002032
:10829000074B9B784BB132B128B10368187C20B9E9
:1082A00059745A617047072070470820704700BF13
:1082B000502B00202DE9F843224CA378002B35D019
:1082C000002833D0042934D943697BB3437C064664
:1082D000012B4FF000000CBF8846804617468946A8
:1082E00004F05AFB6378A17822785D1CEDB2A942B4
:1082F00008BF0025AA421FD003EB430304EBC303CE
:108300000121114A9E601971D2F80425DA6000201B
:10831000C3E904989F61657004F058FB0B4B4FF460
:108320008012C3F800210020BDE8F8830820BDE8D2
:10833000F8830720BDE8F883002004F047FB042001
:10834000F2E700BF502B00200010014000E100E0E8
:1083500030B583B020B1154940F27B2004F04AFCCF
:1083600001A9134804F06CFC0446E8B1114D2868DB
:108370002060002004F010FB0F4B10481B8802689F
:1083800001339B1AE380002104F0D4FCA08000207C
:1083900004F01CFB01A9064804F07EFC084B1B6896
:1083A00013B101462846984703B030BD90610300E1
:1083B00004230020F0610300142D0020302E002043
:1083C000782C002070B50378052B82B0054641D08B
:1083D000002B4CD1394B1C685CB1394E2368002B03
:1083E0002DD09B68DBB16888984723685C68002CB7
:1083F000F4D1344C002004F0CFFA236833B30121C8
:10840000304804F0B9FC002004F0E0FA2E4B1B6861
:1084100013B1284601219847236802B070BD314648
:1084200040F21B1004F0E6FB236868889B689847BD
:1084300023685C68002CDCD02368002BD1D1314646
:108440004FF48D7004F0D6FB2368CAE71F4B6A888F
:108450001A80D4E71E4BD3F88424D3F8803413F069
:10846000FF0F04D11B4BD2B2052A08BF1D4601A93C
:10847000194804F0E5FB04460028CED02B680360C1
:10848000002004F089FA114B0E481B880268013362
:108490009B1AE380002104F04DFCA080002004F032
:1084A00095FA01A90C4804F0F7FB074B1B68002B59
:1084B000B3D001462846984702B070BD282E002050
:1084C00090610300302E0020782C0020142D002015
:1084D00000700240EC6103000423002030B5012845
:1084E00083B012D01AD3022806D0204940F262206D
:1084F00004F080FB03B030BD01A91D4804F0A0FBCF
:1085000004460028F6D01B4D10E001A9184804F0DD
:1085100097FB04460028EDD0174D07E001A9144849
:1085200004F08EFB04460028E4D0144D2868206037
:10853000002004F031FA124B12481B880268013304
:108540009B1AE380002104F0F5FBA080002004F0DA
:108550003DFA01A9064804F09FFB0B4B1B68002B5A
:10856000C8D001462846984703B030BD906103004B
:1085700004230020E8610300E4610300E0610300DC
:10858000142D0020302E0020782C00202DE9F04FF3
:1085900087B006AF00260446894692469B4647F8B8
:1085A000106D00E001366268012355682146002203
:1085B0003846A8470028F5D18DF80600049066B328
:1085C000804605460AE09DF806306768023B7F68F2
:1085D000B8479DF806301D44AE421ED9626801239B
:1085E000576821460DF1060204A8B84762680123C6
:1085F000576821460DF1070204A8B8479DF80730D7
:108600004B454FF00002214604A8DCD1C24508D0FA
:1086100008F101085FFA88F8D5E7052007B0BDE842
:10862000F08F109A9DF8063013608BF800308BF8AD
:1086300001906168023B4D680BF102022146A84798
:108640000020EBE72DE9F04F85B0054606F084FCED
:10865000A8B108234FF484725749584804F0D8FA57
:1086600040B9574809F0A4F9044670B1204605B056
:10867000BDE8F08F0324204605B0BDE8F08F5149D6
:1086800040F2313004F0B6FAE3E74F4A4F49504B1D
:1086900014700C60482221464E481C600CF01AFBF6
:1086A000214648224C480CF015FB002D6BD095E874
:1086B00007004A4B83E80700002006F029FD08B1B7
:1086C000852865D1DFF818A1434D9AF80830019349
:1086D00000261A46F3B29342DAF804B03D4F0AF18D
:1086E00009043DD2002C3BD0617891B3A378E31804
:1086F00018BF4FF0010914D12BE0B8F1080F21D8B1
:1087000005EBC803C3F800A0DBF8000058608945FA
:1087100009F10103D8B21CD2A3784B44E31818D056
:1087200081461878030600F00F08E6D5B8F1080F67
:1087300005D924494FF4CC7004F05CFA617807EB5A
:10874000C803DFE71F494FF4CF7004F053FA617894
:10875000D6E70136019AF3B2934204F10304C1D380
:108760000B238DF80C30BBF1000F1FD0DBF800306D
:10877000A3B11B4803A99847044600283FF476AFED
:1087800009F0BAF972E7154BC3E900551D7293E77A
:108790000C4A40F25F31FFF789FA93E7094940F24A
:1087A000111004F027FADBF80030E2E705494FF436
:1087B000887004F01FFAD9E7182D00200423002048
:1087C000C583020090610300342E0020202E00207B
:1087D000242E0020842C0020CC2C0020782C00207B
:1087E0002C62030010B509F0ABFA40B109F0B0FA01
:1087F000044620B9064806F09FFC10B910BD0820B9
:1088000010BD044A40F2C231FFF750FA204610BDB5
:10881000DC6103009061030009F084B908B509F038
:10882000A1FA20B1044940F2D13004F0E3F9BDE8E7
:1088300008400AF0D7BB00BF9061030030B583B099
:1088400009F086FA002830D04FF0804303E0D3F8D7
:108850003824D10727D5D3F838249207F7D501A9B2
:10886000154804F0EDF90446E8B1144D286820607D
:10887000002004F091F8124B12481B880268013363
:108880009B1AE380002104F055FAA080002004F038
:108890009DF801A9084804F0FFF90B4B1B6813B1C0
:1088A00001462846984703B030BD08494FF476701A
:1088B00004F0A0F9C8E700BF04230020F46103001E
:1088C000142D0020302E0020782C00209061030011
:1088D00010B582B0822301A912488DF8003004F04F
:1088E000AFF9E8B1044600982060002004F054F885
:1088F0000D4B0E481B88026801339B1AE380002150
:1089000004F018FAA080002004F060F801A90548DE
:1089100004F0C2F9064B1B6813B10146684698473C
:1089200002B010BD04230020142D0020302E0020A2
:10893000782C002010B582B0832301A912488DF84D
:10894000003004F07DF9E8B1044600982060002072
:1089500004F022F80D4B0E481B88026801339B1A65
:10896000E380002104F0E6F9A080002004F02EF856
:1089700001A9054804F090F9064B1B6813B10146A4
:108980006846984702B010BD04230020142D002033
:10899000302E0020782C002030B51E4B1B7883B081
:1089A000002B30D0012001F097FD044610B920467D
:1089B00003B030BD842301A917488DF8003004F0BE
:1089C0003FF905460028F2D000982860002003F007
:1089D000E3FF124B12481B88026801339B1AEB809D
:1089E000002104F0A7F9A880002003F0EFFF01A9FF
:1089F000094804F051F90B4B1B68002BD7D00146F6
:108A000068469847D3E7084940F2134004F0F2F86B
:108A1000C8E700BF2C2E002004230020142D0020C6
:108A2000302E0020782C0020906103002DE9F04FBB
:108A3000824685B0002800F0E680DAF80430002B8A
:108A400000F0EB801B68002B00F0D780DAF80030D4
:108A50001B6823B17D4940F26D5004F0CBF809F05A
:108A600077F900283FD109F06BF900283BD00026A8
:108A70009AF80820DFF8DCB1DFF8D081744FF4B247
:108A80000AF10903944201933FD2019B04EB440491
:108A90001C193BD0002507E0B9F1080F29D80BEBD2
:108AA000C90301351B68D3B96378EAB2934226D96A
:108AB000A3781344DC4222D0E25C02F00F091206D4
:108AC000EAD5B9F1080F04D941464FF4CC7004F04F
:108AD00091F807EBC90301351B68002BE4D0112086
:108AE00005B0BDE8F08F594940F2715004F082F8AA
:108AF000BDE741464FF4CF7004F07CF8CFE7013674
:108B00009AF80820F4B29442BFD300245FFA84F9A3
:108B10000AF1090391454F4DDFF830814C4F019325
:108B200045D2019B09EB490913EB09093FD099F89C
:108B30000130BBB399F8023019EB030318BF4FF0B3
:108B4000010B18D12EE0082E24D805EBC603C3F87C
:108B500000A0DAF8042012685A6099F801100BF1AD
:108B600001035945DAB21BD999F802305B4419EB7D
:108B7000030315D093461A78130602F00F06E2D5C8
:108B8000082E04D941464FF4CC7004F033F807EBBB
:108B9000C603DCE741464FF4CF7004F02BF8D4E76E
:108BA0009AF8082001345FFA84F99145B9D32A4C28
:108BB000236833B1254D9A4514D01C682368002BD7
:108BC000F9D1C4F800A0DAF804300B228DF80C209B
:108BD000002B33D01B6843B3504603A9984705B018
:108BE000BDE8F08F294640F2975004F003F823685F
:108BF0001C682368002BDED1E3E7144940F26C5077
:108C000003F0F8FF22E7114940F26A5003F0F2FF47
:108C1000DAF80430002B7FF415AF0C4940F26B50AA
:108C200003F0E8FFDAF804300CE7084940F21110CD
:108C300003F0E0FFDAF804301B68CDE703494FF496
:108C4000887003F0D7FFDAF80430C3E790610300BF
:108C5000842C0020CC2C0020202E002070B505464E
:108C600000284CD06B68002B51D01B68002B57D0CC
:108C700009F06EF818BB09F063F800B32B4C2268BA
:108C80003AB12B4EAA422ED0146862680434002AEE
:108C9000F8D12B685B6823B1254940F20E6003F0E0
:108CA000A9FF244C22683AB1214E95420DD0146898
:108CB00062680434002AF8D12560002070BD1C4988
:108CC00040F2036003F096FFD8E7314640F21460AB
:108CD00003F090FF23681C6862680434002AE4D122
:108CE0002560002070BD314640F2096003F082FF2C
:108CF00023681C6862680434002AC3D1C9E70C49A0
:108D000040F2FF5003F076FF6B68002BADD10849AD
:108D10004FF4C06003F06EFF6B681B68002BA7D197
:108D2000034940F2016003F065FFA1E7282E00200F
:108D300090610300242E002010B5044608B309F00A
:108D400007F880B908F0FCFF68B1114A136843B115
:108D50009C4202D10EE0A3420BD01A685368002B4C
:108D6000F9D1052010BD0B4940F2216003F042FF0C
:108D7000EBE7043223685B681360236800205860C7
:108D800010BD044940F21F6003F034FFD7E700BF75
:108D9000242E00209061030008B560B1094A1378C1
:108DA0000133DBB2137023B9074940F2716003F05D
:108DB00021FF002008BD044940F26E6003F01AFF55
:108DC000ECE700BF2C2E00209061030010B560B1CD
:108DD000094C23782BB9094940F27B6003F00AFF64
:108DE0002378013B2370002010BD044940F27960D4
:108DF00003F000FFECE700BF2C2E00209061030081
:108E0000024B1878003018BF012070472C2E00202C
:108E100000F00F03072B10B5044604D809F0DAF967
:108E2000204609F093FD2046BDE8104009F0FABC49
:108E300009F0A8BE014B1868704700BF202E002023
:108E400070B4114B1E68A6B1357A75B1737A83423E
:108E500006F1090210D0002303E012F8034F844208
:108E60000BD00133DBB29D42F7D133681E68002E70
:108E7000EAD1304670BC704700230029F9D0304653
:108E80000B7070BC704700BF202E002070B51546D7
:108E90000446A0B16368D3B11B6823B129462046BC
:108EA000BDE8704018470D4940F2111003F0A2FED2
:108EB0006368294620461B68BDE87040184707498B
:108EC00040F20F1003F096FE6368002BE4D10349D3
:108ED0004FF4887003F08EFE6368DDE79061030055
:108EE00000F00F03082B14D8020670B54CBF114ACE
:108EF000114ADB0013441D684DB16B680C4693B1F9
:108F00001B6843B121462846BDE870401847102031
:108F100070BD10207047094940F2111003F06AFE3D
:108F20006B681B68EEE705494FF4887003F062FE3A
:108F30006B68E5E7842C0020CC2C002090610300B6
:108F400070B5144B1C681CB30546134E07E0294648
:108F500020469847062813D123681C68C4B163686B
:108F60007BB11B68002BF2D1314640F2111003F0A7
:108F700041FE636829461B68204698470628EBD0C7
:108F800070BD31464FF4887003F034FE6368E8E743
:108F9000062070BD202E00209061030038B50D46DC
:108FA000044608F059FF18B1054B1B78022B01D07D
:108FB000082038BD29462046BDE8384008F06EBF7D
:108FC000342E002038B50D46044608F045FF18B190
:108FD000054B1B78022B01D0082038BD29462046BE
:108FE000BDE8384009F024B8342E0020F8B54368B5
:108FF0009B6805460C4616461BB19847062800D0CC
:10900000F8BD2B7AA34232D3002E37D12B7AA3425C
:109010001DD9093504EB44042C4467782FB3354639
:1090200033463A460EE0A3786219D65C06F00F0389
:10903000072B30460DD9013509F0F4FBEBB29F4206
:1090400013D962789342EED300231B78FFDE737846
:10905000FFDE09F0BFF8304609F078FC01353046F4
:1090600009F0E0FBEBB2BB42EBD30020F8BD0449B2
:1090700040F2F92003F0BEFD002EC7D00720F8BD56
:109080009061030043681B6903B118471846704795
:109090002DE9F84F364B1F68002F5DD0DFF8D4B0B4
:1090A00097F808A0BAF1000F52D04FF000094C46D3
:1090B00007F109050DE020B1594640F26A7003F04E
:1090C00099FD09F101095FFA89F4A24505F103054B
:1090D0003ED97B689B682BB10022214638469847D1
:1090E0000628E8D13B7AA3423BD3A34236D995F870
:1090F0000180B8F1000FE4D00024234642460EE080
:10910000AB782A19D65C06F00F03072B30460BD933
:10911000013409F087FBE3B24345D2D26A78934227
:10912000EED300231B78FFDE09F054F8304609F037
:109130000DFC0134304609F075FBE3B29845EDD8DB
:1091400009F101095FFA89F4A24505F10305C0D8C8
:109150003B681F68002FA3D1BDE8F88F00235B7820
:10916000FFDE594640F2F92003F044FD3B7ABCE7AC
:10917000202E0020906103002DE9F047234B1F684B
:10918000002F37D0DFF888A097F80890B9F1000FCA
:109190002CD04FF00008444607F109057B68DB68D6
:1091A00013B12146384698473B7AA34227D39C42C5
:1091B00022D26E7896B100242346324609E0AB787D
:1091C0002A190134D05C09F0DDFCE3B29E4205D9D6
:1091D0006A789342F3D300231B78FFDE08F101087D
:1091E0005FFA88F4A14505F10305D7D83B681F68ED
:1091F000002FC9D1BDE8F08700235B78FFDE514620
:109200004FF4467003F0F6FC3B7AD0E7202E0020A6
:10921000906103002DE9F041844D2B680446002B3A
:1092200000F0048303F0ECFB052840F28C802378E7
:10923000852B00F2F482DFE813F04702E0018C0096
:109240006A02BD02B700BE00F202E00005011E0185
:10925000F202F202F202F2023701F202F202F2022A
:10926000F202F202F202F202F202F202F202F2025E
:10927000F202F202F202F202F202F202F202F2024E
:10928000F202F202F202F202F202F202F202F2023E
:10929000F202F202F202F202F202F202F202F2022E
:1092A000F202F202F202F202F202F202F202F2021E
:1092B000F202F202F202F202F202F202F202F2020E
:1092C000F202F202F202F202F202F202F202F202FE
:1092D000F202F202F202F202F202F202F202F202EE
:1092E000F202F202F202F202F202F202F202F202DE
:1092F000F202F202F202F202F202F202F202F202CE
:10930000F202F202F202F202F202F202F202F202BD
:10931000F202F202F202F202F202F202F202F202AD
:10932000F202F202F202F202F202F202F202F2029D
:10933000F202F202F202F202F20250015E019C011C
:109340009F021702B7003A4940F22C4003F052FC4A
:109350006DE7384E3278931EDBB2062B0BD83649B8
:10936000CB5C13B105F0AEFE3278022A01D0082A98
:1093700001D108F03BFD314B5B68032232700BB129
:10938000022098472D687DB1294E6B68002B00F0B4
:109390006F831B6828462146002B00F0B98298474E
:1093A0002B681D68002DF0D1254B2146D3E9000222
:1093B000BDE8F0411047A37803F00F051B0600F14C
:1093C0004082082D00F294831D4B03EBC5052B68EA
:1093D000002B00F09A836B68002B00F08F832868C5
:1093E0002146984700B3A07800F00F03013B062BFD
:1093F0001AD8BDE8F04108F0A3BE104B5B680BB172
:10940000082098472D687DB1094E6B68002B00F04D
:109410003D831B6828462146002B00F0498298476F
:109420002B681D68002DF0D1BDE8F081202E0020B2
:1094300090610300342E002088610300782C002006
:10944000CC2C0020974B5B680BB1092098472D6806
:10945000002DE9D0944E6B68002B00F010831B6840
:1094600028462146002B00F0638298472B681D6830
:10947000002DF0D1D8E78B4B5B680BB10A209847E1
:109480002D68002DD0D0884E6B68002B00F0D48260
:109490001B6828462146002B00F0AE8298472B68B7
:1094A0001D68002DF0D1BFE77E4B5B680BB10F202C
:1094B00098472D68002DB7D07B4E6B68002B00F0CD
:1094C000EC821B6828462146002B00F00182984759
:1094D0002B681D68002DF0D1A6E7744E3378062B5B
:1094E00000F0C481072B01D0052B9DD108F088FC2A
:1094F0000223337098E76E4B6E49D3E90002904720
:109500002C6884B1684E6B4D6368002B00F0A98213
:109510001B6820462946002B00F05E82984723688E
:109520001C68002CF0D15F4C63680BB10D2098478C
:10953000FFF722FE00F020FC5F4B1B68002B00F0C1
:1095400090810120594E08F0BBFB3278931EDBB2AC
:10955000062B0BD85949CB5C13B105F0B3FD32781B
:10956000022A00F0B682082A00F0B3820123337089
:109570005AE74E4EFFF700FE09F054FC3278931E76
:10958000DBB2062B0BD84D49CB5C13B105F09AFD2D
:109590003278022A01D0082A01D108F027FC2C6871
:1095A0000023337084B1404F454D6368002B00F0B9
:1095B0007B821B6820462946002B00F09981984742
:1095C00023681C68002CF0D1394B3D49D3E90002D7
:1095D0009047344B5B680BB10E2098473378023BC1
:1095E000DBB2062B3FF620AF344AD35C002B3FF4AE
:1095F0001BAFBDE8F04105F065BD2C4EFFF7BCFD8B
:1096000000F0B0FB3278931EDBB2062B00F214811F
:109610002A49CB5C002B00F00F81022A03D0082AD4
:1096200001D008F0EDFB1F4B5B68022232700BB1DA
:10963000012098471E4B2146D3E9000290472D6830
:10964000002D3FF4F1AE184E6B68002B00F0338212
:109650001B6828462146002B00F07A8198472B682A
:109660001D68002DF0D1DFE6104E3378032B00F09B
:10967000028108F085FB00283FF4D6AE3278931EB5
:10968000DBB2062B40F24D820E4805F0D9FC327851
:10969000022A00F02A82082A00F02782062333706B
:1096A000C2E600BF782C002090610300342E002019
:1096B000CC2C0020F8610300242E002088610300D8
:1096C000FC610300FC220020A94B1B78032B00F057
:1096D000EB80082B00F0E880A64B5B680BB1002004
:1096E0009847A54B1D68002D3FF49EAEA34E6B68B6
:1096F000002B00F0E7811B6828462146002B00F074
:109700004B8198472B685D68002DF0D18CE6984E10
:109710003378082B00F0A0809A1ED2B2062A40F2BD
:10972000DE81974805F08CFC3378022B00F0D48161
:10973000082B00F0D181052333708E4B5B680BB191
:10974000032098478F4B2146D3E9000290472D68AC
:10975000002D3FF469AE894E6B68002B00F07381D9
:109760001B6828462146002B00F0568198472B683D
:109770001D68002DF0D157E67D4E3378032B7FF422
:1097800053AE09F029FD00283FF44EAE3278931E07
:10979000DBB2062B0BD87C49CB5C13B105F092FCF5
:1097A0003278022A00F0C381082A00F0C081042325
:1097B000337039E66F4B5B680BB103209847714BF0
:1097C0007249D3E9000290472C6884B16B4E6F4D0B
:1097D0006368002B00F03E811B6820462946002B61
:1097E00000F0EA80984723681C68002CF0D1604E96
:1097F0003378062B37D0082B0ED09A1ED2B2062A09
:1098000040F289815E4805F01BFC3378022B03D0BF
:10981000082B01D008F0F4FA0223337004E657490C
:1098200040F22650BDE8F04103F0E4B9534940F25C
:10983000254003F0DFF9F5E4514805F001FC3278EA
:10984000EBE6082D04D94D494FF4CC7003F0D2F962
:109850004F4B03EBC505BAE50223337008F0DAFA83
:109860006BE7207A6EE607233370DDE508F0C8FA6F
:1098700008233370D8E509F0AFFC00283FF4F9AEB7
:109880003278931EDBB2062B0BD83F49CB5C13B169
:1098900005F018FC3278022A00F04C81082A00F00A
:1098A000498104233370E4E63A48FFF7B3FC13E739
:1098B000314640F2111003F09DF96B6828461B6891
:1098C000214698472B681D68002D7FF49EADABE5BF
:1098D000314640F2111003F08DF96B6828461B6881
:1098E000214698472B681D68002D7FF4E6AD9BE567
:1098F000394640F2111003F07DF9636820461B6879
:109900002946984723681C68002C7FF44EAE5BE61E
:10991000314640F2111003F06DF96B6828461B6860
:10992000214698472B681D68002D7FF42EAD3BE53E
:10993000314640F2111003F05DF96B6828461B6850
:10994000214698472B681D68002D7FF484AD6BE598
:10995000314640F2111003F04DF96B6828461B6840
:10996000214698472B681D68002D7FF46DAE5BE59E
:10997000342E0020782C0020242E0020906103003B
:10998000FC220020CC2C002088610300046203002C
:10999000842C002000620300314640F2111003F0D5
:1099A00029F96B6828461B68214698472B685D6833
:1099B000002D7FF49CAE37E5314640F2111003F0E4
:1099C00019F9636820461B682946984723681C6874
:1099D000002C7FF4FDAE0AE7314640F2111003F08F
:1099E00009F9636820461B682946984723681C6864
:1099F000002C7FF489AD96E5314640F2111003F05A
:109A0000F9F86B6828461B68214698472B681D6843
:109A1000002D7FF439AD07E5314640F2111003F017
:109A2000E9F86B6828461B68214698472B681D6833
:109A3000002D7FF491AEF7E431464FF4887003F0C7
:109A4000D9F86B6824E531464FF4887003F0D2F8FA
:109A50006B6885E631464FF4887003F0CBF8636895
:109A6000BAE631464FF4887003F0C4F863684FE5F6
:109A700031464FF4887003F0BDF86B6889E43146D5
:109A80004FF4887003F0B6F86B68E8E431464FF4A1
:109A9000887003F0AFF86B68BBE431464FF4887010
:109AA00003F0A8F86B680CE539464FF4887003F0B2
:109AB000A1F863687DE531464FF4887003F09AF8A9
:109AC0006B68C5E531464FF4887003F093F86B6816
:109AD00011E608F08BF949E508F088F92BE61749FB
:109AE0008A5C002A7FF421AE1BE608F07FF9D5E5F9
:109AF00013494FF4CF7003F07DF865E4104940F24C
:109B0000035003F077F86B6869E40D4940F20250A6
:109B100003F070F85FE409498A5C002A7FF476AEAE
:109B200070E60649CB5C002B7FF4B2ADACE508F0E3
:109B30005DF93CE608F05AF9B3E600BF886103001E
:109B40009061030070B5284E82B034680023019301
:109B50000CB3A588A5B1E388B3F5006F3ABF5A1CD2
:109B600092B2012205F1FF3528BF002301A8A5808C
:109B7000E280ADF80630FFF74DFB012002B070BD6A
:109B80002046FFF747FB1949194803F0C3F80120A5
:109B9000356002B070BD1549154803F08DF80446D4
:109BA00030600028D5D1134B1B6813B9184602B09A
:109BB00070BD114D02F0F0FE2B880E48B3F5006F1A
:109BC00039BF5A1C92B22346012201212A80ADF8E6
:109BD000063003F0E9F8002002F0F8FE01A8FFF7D4
:109BE00019FB012002B070BD382E0020742C00201B
:109BF00004230020302E0020142D00200020704768
:109C00002DE9F04F87B04B6802900D460192002B72
:109C100000F08180019B402B77D808F08DFAEE6828
:109C2000019B9E4228BF1E468146002E00F08C807C
:109C30004FF000084246C2464FF0010BD5E9011330
:109C4000B3421C4628BF3446361BA71819B309EB8C
:109C5000020022460BF033F8D5E902321B1B141B1D
:109C6000C5F804A0C5E902347BB1002C2ED0AB6846
:109C700073B33A46002EE1D1029BC3F800905F60B7
:109C8000584607B0BDE8F08FEC68B8F1000F14D16A
:109C9000F4B9C346EDE7002BF6D028464A4450F805
:109CA000101B4B68D3F804802346C047D5E9023225
:109CB0001B1B141BC5E9023423B92B68E3B11B68D5
:109CC0001B682B604FF00108002CD0D1A346D0E7D1
:109CD000296800292FD0CDF810A003E0AB682968CF
:109CE0000133AB604B6800225C6804A80123A047E5
:109CF0000028F3D12861BCE71849039340F24320C0
:109D000002F078FFEC68039BD9E715494FF4CB705C
:109D100002F070FF81E70C68D4B123681B68002B48
:109D20007FF478AFAB68002B7FF474AF029A9B4648
:109D300013605360A4E76960002F9DD0019BBB4274
:109D400088BF4FF0000B97E737464FF0010B93E7C2
:109D5000024940F2432002F04DFFDEE78C6203002F
:109D6000D862030008B50020FFF752F88020BDE854
:109D70000840FFF74DB800BF08B50020FFF758F8BE
:109D80008020BDE80840FFF753B800BF70B5C38816
:109D900093421D4628BF1546934284B00E461DD8F7
:109DA000002200200392CDE9016502F0F5FD01A932
:109DB0008020FFF7F3F8044628B1002002F006FEE9
:109DC000204604B070BD08F08BFA802812D0002025
:109DD00002F0FCFD1024204604B070BD8020144623
:109DE00008F01EF8B4FBF0F303FB1042B2FA82F263
:109DF0005209D6E7054A064B92E8030083E80300C0
:109E0000002002F0E3FD204604B070BD7462030040
:109E1000682E00202DE9F04F0B78062B89B000F05A
:109E2000A58017D90D2B00F091803ED80B2B70D058
:109E30000C2B43D1A54C2378012B29D1A449A5484B
:109E40000A78002322F002020A7023701D46FFF7F1
:109E5000E1F926E0022B23D066D9032B44D0052B51
:109E60002CD105460DF115008DF8143008F0D6F907
:109E70009DF81520984C002102F01F032160032B50
:109E800000F28481DFE813F0FD003001CC00BB005C
:109E9000924940F2514002F0ADFE2378002BCDD123
:109EA0000025284609B0BDE8F08F0E2B0BD0852B7E
:109EB00004D1864B1A78032A00F0748106252846BF
:109EC00009B0BDE8F08F814C2378012B40F260810E
:109ED0007F4A80481378012123F002031370217018
:109EE0000025FFF797F9DCE77D4802F077FF30B1F6
:109EF0007C4B01221A60BFF36F8FBFF34F8F734B00
:109F00001D78002DCCD1754940F2374002F072FE29
:109F1000C7E76E4B1B78002BC2D0704940F24B4014
:109F200002F068FE0025BCE7012BC7D1674B1A7809
:109F3000032AC3D0664967480A78032422F0020244
:109F40000A701C700625FFF765F9AAE74FF08043F9
:109F50005E4CD3F83834227813F0010334D0022A4F
:109F60009ED05B4A5B4813780221B5E7C878032886
:109F70000C46A3D08B785B0635D1574E3368002B47
:109F800000F04F8100223260716898470546C0B9E1
:109F90003368002B00F00B81A378002B80D108F0F0
:109FA00063F97EE7494D2B78043B012B00F23B819E
:109FB0009DF81730002B00F09C81012B00F0FE81F2
:109FC000072508F083F96CE7012A3FF469AF40499F
:109FD00040480A78012622F002021D460A702670C7
:109FE000FFF718F95DE740F274403C4902F002FEC9
:109FF000E078C2E7394940F2813002F0FBFD05A864
:10A00000FEF79EFF0546002DDBD12568002D00F0F0
:10A01000D88008F065F9054600287FF441AFBEE717
:10A020009DF81900010707D005A9FEF759FF06287A
:10A030000546E8D19DF8152012F0600F40F0A6808B
:10A040009DF81630214A9DF819501278012B00F026
:10A05000FC80C0F0EA80032B40F0988005F00F03ED
:10A06000072B00F29380BDF81710002940F08E8076
:10A07000052A02D0002B40F0D680284608F060F870
:10A08000C3E7002D00F0C580C2F34115002DB6D105
:10A09000D2099DF8161040F0998001390829AED8F0
:10A0A00001A353F821F000BF4DA10200FF9F020061
:10A0B0006DA10200FF9F0200F59F0200FF9F0200BA
:10A0C000FF9F0200FF9F0200A59F0200482E002074
:10A0D000642E00203C620300682E0020D86203003A
:10A0E000702E00205C70024003A99DF81900FEF755
:10A0F000A7FE0646002867D005AA9DF80C10FEF7BB
:10A10000C5FE062805467FF47EAF9DF8153013F096
:10A11000600F7FF456AFB64A9DF80C1012789DF888
:10A1200016C0DF0940F0CB80BCF10B0F7FF449AFC4
:10A13000052A78D1BDF81730FF2B3FF641AF3046E6
:10A140009DF81720FEF752FF05465CE7BDF8173073
:10A15000012B7FF454AFFEF753FE002800F0C780B8
:10A16000A44A137823F0020313704EE7BDF81730AA
:10A17000012B7FF444AFFEF743FE002800F0B780C8
:10A180009C4A137843F0020313703EE7062518E754
:10A19000994940F2654002F02DFD2378012B3FF4F0
:10A1A0007FAE95E6934995480A780424C6E6944B19
:10A1B0001B68082B7FF474AE924B1B68002B3FF496
:10A1C0006FAE08F079F86CE61025FAE6062960D043
:10A1D00008294DD000297FF412AF8B4D022228466A
:10A1E0000AF078FD834A2B781278900743F001013A
:10A1F00048BF43F0030329700DF1150048BF2B70D1
:10A2000002228149FFF7C2FD0546062D7FF4FBAE11
:10A21000F5E6794940F25D3002F0ECFC9DF815203E
:10A2200032E70E25CDE60825CBE6052A01D02A0720
:10A23000F9D1284607F0A6FF7349022208800DF1E4
:10A240001500FFF7A3FD0546DDE605F00F03072B1C
:10A250009CD8BDF81710002998D1052A01D0002BF1
:10A26000E1D1284607F0B6FF284608F06FFBCCE6A0
:10A270005F4B1B78052B37D0042B7FF4C0AE624BAD
:10A280001D700DF1150001225F49FFF77FFD0546A6
:10A29000BBE79DF81830022B52D0032B3AD0012B8C
:10A2A0007FF4ADAEBDF81B30002B3FF4AEAE0DF128
:10A2B000150012225549FFF769FD0546A5E7BCF1D7
:10A2C000000F6DD0BCF10A0F7FF47BAE052AAAD136
:10A2D0003046FEF7D7FE4C493A4608700DF115009E
:10A2E000FFF754FD05468EE6474B1A70C9E70F2568
:10A2F00067E6FEF741FF2B78042B3FF486AE3D4A1C
:10A300003E481378042123F0020313702970FEF7EE
:10A3100081FF7AE6BDF81B30002B3FF476AEBDF826
:10A3200019109DF8170002F0F5FA014600283FF4D5
:10A3300066AE0DF115000A78FFF728FD054664E7C3
:10A34000BDF81B30002B3FF460AE092B28BF09235A
:10A350000193FEF76FFDDFF8A0B006464FF0090A43
:10A36000A946002E54D07368002B39D05B688BB39C
:10A370000DF12008002748F8147D00E001377268CD
:10A3800001235568314600224046A8470028F5D1F0
:10A39000337A326899441668BA445FFA89F9E0E77B
:10A3A000052A7FF440AF184B0DF115001946022223
:10A3B000A3F800C0FFF7EAFC054624E6FEF768FEB6
:10A3C0002B78052B3FF421AE05230C482B70FEF7AC
:10A3D00021FF1AE6594640F2C72002F00BFCC7E7FE
:10A3E000594640F2C62002F005FC7368BEE700BF84
:10A3F000482E0020642E0020D86203003C62030037
:10A400003001001034010010742E0020606203003F
:10A410001E4E1F49019A30460AF051FC86F80490FE
:10A42000A6F802A0FEF7ECFC18B1F37943F0200384
:10A43000F371FEF7FFFC174BBDF81B200199186064
:10A440000020C3E902125E6002F0A6FA12498020E1
:10A45000FEF7B8FD054630B1002002F0B7FA062D30
:10A460007FF4AFADCBE507F03BFF802804D0284652
:10A4700002F0ACFA1025A4E5084B93E8030084E849
:10A480000300284602F0A2FABFE500BF742E0020A8
:10A49000406203004C2E0020286303007462030016
:10A4A00038B505460C4607F01BFFA84207D194E8D3
:10A4B0000300044A82E803000023184638BD102335
:10A4C000184638BD682E002008B1402303600148BB
:10A4D000704700BF742E0020034B1B7843FA00F036
:10A4E00000F00100704700BF642E00202DE9F0430A
:10A4F0001D461B7885B006460F4614460E2B00F20B
:10A500004581DFE813F01900A6001B010D0143018E
:10A510002101BA004301430143014301D400F1008A
:10A5200004010F0020466FF0020102F019FC002523
:10A53000284605B0BDE8F08394F82830002B00F0E1
:10A54000EA806B8840F2FF72934200F0278194F812
:10A5500008C0D4F804E04FEA8C0CBEF1000F40F0C4
:10A560001A828D4A606994F82980A2FB0C911844E4
:10A57000C9080231B0FBFCF90CFB19008842C0F09D
:10A580009582B8F1000F00F0C680617A606889009A
:10A59000002840F00082A2FB010EA06903EB000C32
:10A5A0004FEADE000230BCFBF1FE01FB1EC181421E
:10A5B000C0F07E82A07A61688000002940F0EB81C3
:10A5C000E169A2FB00C21944D2080232B1FBF0FCDF
:10A5D00000FB1C119142C0F06D82E07A626880003D
:10A5E000002A40F0D881216AA2F13332A2FB00C2D6
:10A5F0000B44D2080232B3FBF0F100FB11339A4254
:10A6000040F28980032194F8243023B16B88636180
:10A61000002384F8243094F8253023B16B88A3619B
:10A62000002384F8253094F8263023B16B88E36149
:10A63000002384F8263094F8273023B16B882362F6
:10A64000002384F827307B6930469B69984705468C
:10A650006EE76FF00801204602F082FB00254FF400
:10A66000006301222273C4E90533C4E90733A560FE
:10A6700084F8295084F828505AE795F90230002BC5
:10A68000C0F23B814B69DB68002B7FD0EB781BB9B4
:10A690008B690BB1022198473B695B68402B00F244
:10A6A00081817B693046DB689847054640E7FEF7C5
:10A6B000D5FA054600287FF43BAF3046FEF76CFB29
:10A6C000054600287FF434AF4FF40063A06084F89F
:10A6D000290084F82800C4E90533C4E9073320467B
:10A6E000012102F031FB23E7FEF726FB0546002897
:10A6F0007FF41EAF3046FEF769FB054600287FF465
:10A7000017AF20466FF0010102F02AFB10E7204648
:10A71000022102F019FB0025284605B0BDE8F083B0
:10A7200020466FF0040102F01BFB7B6930469B68FA
:10A7300098470546284605B0BDE8F0832046042129
:10A7400002F002FB0025F3E6002900F0D080002C87
:10A7500000F02E816B78D9094FEA531240F0FE8049
:10A76000012A13D1AB780A2B00F064810B2B00F087
:10A770005381092B0AD12B79022B07D17B695B68A6
:10A7800023B12946304698470546D1E60625284696
:10A7900005B0BDE8F08300BFCDCCCCCC6369207A96
:10A7A000B3F5006F4FEA800007D003F2FF73B3FBED
:10A7B000F0F200FB123301336361D4F804C0BCF142
:10A7C000000F40F0E880BC4B626994F82910A3FBAD
:10A7D00000E302F2FF72DB080233B2FBF0FE00FB83
:10A7E0001E229A428846C0F07481002993D0A36942
:10A7F000607AB3F5006F4FEA800007D003F2FF7371
:10A80000B3FBF0F200FB12330133A3616368002B4A
:10A8100040F0C180A3F13333A269A3FB00C302F26D
:10A82000FF72DB080233B2FBF0FC00FB1C229A42F1
:10A830008846C0F0508100293FF46DAFE369A07AEB
:10A84000B3F5006F4FEA800007D003F2FF73B3FB4C
:10A85000F0F200FB12330133E3616368002B40F038
:10A860009A80A3F13333E269A3FB00C302F2FF72C3
:10A87000DB080233B2FBF0FC00FB1C229A42884644
:10A88000C0F02B8100293FF446AF236AE07AB3F58C
:10A89000006F4FEA800007D003F2FF73B3FBF0F2C2
:10A8A00000FB1233013323626368002B73D1824BA8
:10A8B000226AA3FB00C302F2FF72DB080233B2FB81
:10A8C000F0FC00FB1C229A42884638BF0321BFF4EB
:10A8D00022AFB8F1000F7FF496AE94F82430002B2D
:10A8E0003FF4B1AE6B88636184F82480ABE67349B2
:10A8F00040F27B1002F07EF929E7EB781BB98B69F7
:10A900000BB1032198476368002B44D194F8283099
:10A91000002B3FF40AAF94F82930002B00F0D080D0
:10A920006369B3F5006F04BF012384F82430A36981
:10A93000B3F5006F04BF012384F82530E369B3F554
:10A94000006F04BF012384F82630236AB3F5006F3B
:10A950007FF4E1AE012384F82730DCE612F003082F
:10A960002CD0B8F1010F7FF411AFAB78022B00F0BF
:10A970009480032B00F08980012B7FF407AF2B79A3
:10A98000013B012B3FF602AF7B6929461B6830462D
:10A9900098470546CCE520466FF0080102F0E0F943
:10A9A0000025C5E545494FF4F67002F023F978E635
:10A9B00042494FF4BE7002F01DF9CBE603F01F03CD
:10A9C000012B7FF4E3AEAB78062B7FF4DFAE03A858
:10A9D000CDF80880FFF778FD044602A8EA782979C7
:10A9E000009023463046FDF7D1FD052805F1010909
:10A9F00075D17B69E9781B69304698477B69E978AE
:10AA00005B6904464246304698472246014648461E
:10AA1000FFF7BCF905468BE5B5F80310003118BF08
:10AA200001212173BB69002B3FF475AE3046984776
:10AA300000257DE5EB78287923444FF400611872F6
:10AA4000EB7804EB830359612B79A3B9637A002B6C
:10AA50007FF461AEA37A002B7FF45DAEE37A002B26
:10AA60007FF459AE257A84F82930002D7FF453AE57
:10AA700084F828505CE584F82820EB78002B3FF41C
:10AA80004AAE84F82920002552E5681C424604F1AC
:10AA90000C01FFF77BF905464AE5E9780831681CA7
:10AAA00042462144FFF772F9054641E5714610E739
:10AAB0000121A8E50221A6E5CDCCCCCC3063030072
:10AAC0006369B3F5006F7FF426AE012384F8243068
:10AAD00021E66146FDE60121FBE60221F9E6029B43
:10AAE0003F2B03D90549AC2002F084F821464846A3
:10AAF000029AFFF74BF905461AE500BF30630300E1
:10AB000010B5044608B1E06810BD034940F2692061
:10AB100002F070F8E06810BD3063030038B910B57A
:10AB200004468B6A084602219847204610BD032040
:10AB3000704700BF2DE9F043DD4E0D46097A3170B4
:10AB400083B00446002800F0C780216840F2F1106D
:10AB5000814200F0A282B1F5F97F1CD340F20A20B5
:10AB6000814200F0818139D8B1F5FA7F00F0F5819A
:10AB700040F2BC80B1F5007F00F06A8240F2012013
:10AB8000814200F0A98140F2FD10814200F065820F
:10AB90000020206065E1B1F5F47F00F08B8240F287
:10ABA000898040F2EB10814200F0CF81B1F5F67F51
:10ABB000C0F0D48040F2EF10814200F05F82B1F526
:10ABC000F87F80F06481B1F5F67FE1D1002A00F0D2
:10ABD0008183207901274FF0000C0BE1B1F5047F50
:10ABE00000F05D8140F2938040F21220814200F03B
:10ABF0003A82C0F0898140F213208142C8D1AD4F22
:10AC00003878002A00F0918394F804C09646012118
:10AC10008EF800C0DFF8ACC20130C0B29CF800C0B2
:10AC20003870844500F21583A34F38780130C0B2E4
:10AC300038703778874240F2298309208B4220718F
:10AC400040F26783481C002A00F03083277957546C
:10AC500083424FF00401217140F28A8202EB000C22
:10AC6000471C8CF800109449287A0978884240F2F1
:10AC7000B88101EB410005F10901DFF840C211F88C
:10AC800000E084F804E00144BB42CCF8001040F23C
:10AC90005582791C002A00F07D822079D0558B42A4
:10ACA0004FF00000207140F24482844FD7F800C07A
:10ACB0004F1C76E040F2E110814200F0E781B1F5EF
:10ACC000F17F5BD2002900F01881B1F5F07F7FF4AD
:10ACD0005FAF01200021B6E7794940F2D910CDE9F4
:10ACE000002301F087FFDDE900232EE7B1F5F97FAE
:10ACF00000F0EA8040F2F31081427FF449AF002A6D
:10AD000000F0E48221794FF0010C00279FE040F22F
:10AD10000B20814200F0458140F20F2081427FF4F8
:10AD200037AF01214FF00008002A00F07882207927
:10AD300002F808008B424FF00300207140F2F481CA
:10AD4000074601F1010C402063455754207100F281
:10AD5000988240F211232360012082E040F2E91042
:10AD6000814200F01781B1F5F57F7FF411AF002A21
:10AD700000F0A8822179012000272AE040F2E510A6
:10AD8000814200F0BE8040F2E71081427FF400AFC4
:10AD90004A49D1F800C0002A00F09A8220790127A0
:10ADA00000215054BB429CF801C084F804C040F21A
:10ADB000B681781C0321834202F807C0217140F25A
:10ADC000A981471C1154BB42297E217140F2988110
:10ADD000781CD15583426F7E277140F28C8100F13F
:10ADE000010C002163451754217140F27F81084610
:10ADF0000CF101070921BB4202F80C00217140F25D
:10AE00007081084607F1010C21216345D05521715D
:10AE100040F262810CF101071120BB4202F80C10D4
:10AE2000207140F24F8107F1010C01216345D0559B
:10AE3000217140F24C8108460CEB01070021BB4216
:10AE400002F80C00217140F2308107F1010CD1555C
:10AE50006345287D207100F203824FF4FA7323606A
:10AE6000012003B0BDE8F0834FF001080021002A63
:10AE700000F014822079505443454FF005012171B0
:10AE800000F21B8240F20B2323600120E9E7002A35
:10AE900000F02882217901274FF0000CBCE7002A3E
:10AEA00000F0128227794FF0010C00214BE700BF20
:10AEB000BA2E0020BB2E0020B92E0020BC2E002070
:10AEC000C0630300B82E0020002A00F0058220791C
:10AED00001274FF0000CB1E7002A00F02282207910
:10AEE000174601213870A54FDFF898C238789CF8D2
:10AEF00000C00130C0B238703EE0A14F0846397042
:10AF000097E601210027C5E6002A00F00C8220798F
:10AF100017464FF0010C002163453870217140F253
:10AF2000F480964F38788E460CF1010802F80CE058
:10AF3000E96A434511F800C084F804C000F2958125
:10AF400040F21323236001208BE7002A00F0CC811C
:10AF500027794FF0010C002043E7002A00F0E78139
:10AF600020791746012138708648844F95F814C01F
:10AF700080F800C00020387084453AD8DFF80CC251
:10AF80008148DCF800C09CF801C080F800C00020B7
:10AF9000387046E6002A00F0A381217901270020BD
:10AFA00010E7002A00F0BA81217910464FF001081D
:10AFB000017076487149D0F800900F78B9F1000F10
:10AFC00000F0988199F80110B9420FD999F8021050
:10AFD0004F444345795C217140F2B58008F101018D
:10AFE000A2E66A4A002313601B78FFDE00231B7869
:10AFF000FFDE00B22F6957F820708B423F7927712E
:10B000004FEA800040F238814F1C1AB194F804C016
:10B0100002F801C02969DFF878C109580868207171
:10B02000BB4280B2ACF8000040F29280791C000A6A
:10B03000002A00F0088194F804C002F807C0994281
:10B040002071C0F0288140F201232360012008E72D
:10B050004F49002708880121E9E748490878012776
:10B0600080000021D1E74FF001084FF0000C434F62
:10B070003878002A71D094F804E057E7002A00F0ED
:10B08000358120794FF0010C0027BDE6002A00F041
:10B09000F180217994460127E3E5002A00F01E8122
:10B0A00020794FF0010C0027BFE640F2F313236034
:10B0B0000120D6E6002A00F01B8194F804C001208C
:10B0C000002777E640F2F11323600120C9E64FF430
:10B0D000F97323600120C4E64FF4F8732360012064
:10B0E000BFE640F2EF1323600120BAE64FF4F67397
:10B0F00023600120B5E640F2EB1323600120B0E6A7
:10B100004FF4F57323600120ABE640F21223236075
:10B110000120A6E640F2E91323600120A1E64FF4E6
:10B12000F473236001209CE64FF404732360012034
:10B1300097E640F2E7132360012092E640F2E51320
:10B14000236001208DE640F20F232360012088E672
:10B150004FF400732360012083E6E96A434511F848
:10B1600000C084F804C07FF6EBAE08F1010151E5A0
:10B1700040F2E1132360012073E600BFBB2E0020E4
:10B18000B92E0020B42E0020B82E0020BC2E0020A6
:10B19000B62E00208B422271CBD96648D0F800C071
:10B1A00001319CF8010020718B42B8D90131032094
:10B1B0008B422071AED90131287E20718B429FD9FC
:10B1C0000131687E20718B4295D9013100208B427C
:10B1D00020718BD9013109208B42207181D9013135
:10B1E00021208B4220717FF677AF013111208B42F5
:10B1F00020717FF667AF013101208B4220717FF60D
:10B2000066AF014400208B4220717FF64EAF0131C2
:10B21000686920718B427FF620AE0131A4E60320DD
:10B220008B42207180D9013140208B4220717FF602
:10B2300090AD01F1010C00209C452071BFF465AF79
:10B2400001F1020813E799422071BFF4FCAE01310D
:10B2500049E607208B42207156D901F1010806E624
:10B2600002EB0C070CF101017DE602EB080E08F180
:10B270000101CDE40127F6E440F2FD132360012033
:10B28000EFE502EB0C070CF1010C44E640F217234A
:10B2900023600120E5E55718013123E605214345E8
:10B2A00021717FF6EFAD08F1010882E604218342A7
:10B2B00021717FF65DAF471CD5E402EB080008F171
:10B2C000010875E601217CE70121ADE701219FE737
:10B2D000012166E701217EE7012193E701218BE748
:10B2E000012169E7012181E701216FE7012177E76A
:10B2F00001215CE7104940F24310CDE9002301F041
:10B3000079FCDDE900235DE640F20A232360012099
:10B31000A7E54FF4F07323600120A2E54FF0010888
:10B3200047E60121DFE5114683E7012172E40121AF
:10B330001AE600BFBC2E00202C64030038B50D4671
:10B34000044620B1236953F82530186838BD0449F4
:10B35000512001F04FFC236953F82530186838BD9F
:10B36000C063030030B50D4683B0044630B1236995
:10B3700053F825309868104403B030BD034901925A
:10B38000512001F037FC019AF1E700BFC0630300D0
:10B3900038B50C460546B0B12379012B0BD0022BF2
:10B3A00007D12B6A601CD3E90012BDE83840FEF7D4
:10B3B000EDBC062038BDEB69601CD3E90012BDE886
:10B3C0003840FEF7E3BC0249512001F013FCE3E7EB
:10B3D000C063030030B5044685B0F8B1257A9DB14D
:10B3E000A27A012A04F1090315D9E17A226A0B44F1
:10B3F000116852680191587801A90023CDE9022310
:10B40000FDF7CCFD05B030BD094940F2431001F015
:10B41000F1FB6B78FFDE00231B78FFDE054951202E
:10B4200001F0E8FB02494FF4887001F0E3FBD5E737
:10B430002C640300C063030030B50D4687B004469A
:10B4400050B314F1100F21D0236AE9781A681170F3
:10B45000D3E9002300250132013B2846CDE903232F
:10B46000059501F099FA284603A9FDF797FD0546D1
:10B4700030B90C4B029401A90193FFF711F805466E
:10B48000002001F0A3FA284607B030BD06494FF46A
:10B49000FE7001F0AFFBD7E70449512001F0AAFB91
:10B4A000CFE700BF1DAB020084640300C06303004C
:10B4B00038B504460D4629B15CB12368A3B1DD61FE
:10B4C000002038BD0C4940F22F2001F093FB002CE6
:10B4D000F3D10949512001F08DFB0749412001F0CA
:10B4E00089FB2368002BEAD10349422001F082FB4B
:10B4F0002368DD61002038BDC063030070B50D46D0
:10B50000044670B1236833B1DB699BB129462046FC
:10B51000BDE8704018470849422001F06BFB2368E2
:10B52000F2E70549512001F065FB0349412001F094
:10B5300061FBE7E7062070BDC063030070B50D46F0
:10B54000044690B131B304F1100622683AB12B469B
:10B55000314620460C32BDE87040FEF7C7BF1049A7
:10B56000422001F047FB2268F1E70D4940F29710B5
:10B5700001F040FB25B90A494FF4CC7001F03AFBC9
:10B580000749512001F036FB05494120102601F002
:10B5900031FBDAE702494FF4CC7001F02BFBD2E724
:10B5A000C06303002DE9F041044684B0002867D051
:10B5B0002568002D5ED0206B03F040FC50B105F1F2
:10B5C0000C006FF0080101F0CBFB0024204604B012
:10B5D000BDE8F0812068002843D0257ACDB1A37A58
:10B5E00004F109029BB1E37A00F10C056FF0080148
:10B5F000284612F8038001F0B3FB206B03F01EFC19
:10B60000064668B10024204604B0BDE8F0811B78EE
:10B61000FFDE254940F2431001F0ECFA6B78FFDEC3
:10B6200004F11000FFF76CFA324607460146206B22
:10B6300003F08AFB90BBD7E9001200231846019162
:10B64000CDE9022301F0A8F9404601A9FDF7A6FCC7
:10B650000446F0B1002001F0B9F9204604B0BDE87D
:10B66000F0814220114901F0C5FA257A2068002DA9
:10B67000B5D1CEE70D49422001F0BCFA25689AE722
:10B680000A49512001F0B6FA0849412001F0B2FA06
:10B690008EE72846082101F057FBDBE7034991209C
:10B6A00001F0A8FAC7E700BF2C640300C0630300E1
:10B6B0002DE9F04F804683B000286ED0D8F80030D6
:10B6C0000193002B61D008F11000FFF719FAD8F8A8
:10B6D0003040054600222946204603F035FB052868
:10B6E000F8D1002001F058F998F808A0BAF1000F3D
:10B6F0003ED000273B4652469342DFF8B89008F10F
:10B70000090632D296F801B0BBF1000F23D0002514
:10B710002A4659460DE0B4782C44305D00F00F0203
:10B72000072A0BD8030610D40135EAB2934512D983
:10B7300071789142EFD800231B78FFDEBF20494685
:10B7400001F058FA305D0306EED5013507F034F903
:10B75000EAB29345ECD80137FBB2534506F1030634
:10B7600006D298F808209342CCD300235B78FFDE02
:10B7700001986FF008010C3001F0F2FA002001F09E
:10B7800025F9052003B0BDE8F08F0A49422001F0F9
:10B7900031FAD8F80030019395E70649A22001F06C
:10B7A00029FA0449512001F025FA0249412001F00B
:10B7B00021FA83E7C06303002DE9F0410F4686B00C
:10B7C0001646044600285FD02568002D56D0206B11
:10B7D000029601A9019703F02BFA0646002848D1EA
:10B7E000EB685A073FD4EB681B073ED495F834301A
:10B7F000002B3AD12068002854D0257A002D4AD059
:10B80000A37A04F10902002B43D0E37A00F10C057E
:10B810006FF00801284612F8038001F0A1FA206BAE
:10B8200003F00CFB074600BB04F11000FFF768F9BA
:10B830003A4606460146206B03F086FA00283CD1C2
:10B84000D6E90012002318460391CDE9042301F044
:10B85000A3F8404603A9FDF7A1FB064640B300202C
:10B8600001F0B4F801E0FDF797F8304606B0BDE806
:10B87000F0811126304606B0BDE8F0811149422022
:10B8800001F0B8F92568A2E70E49412001F0B2F9AC
:10B890009AE71B78FFDE0C4940F2431001F0AAF949
:10B8A0006B78FFDE4220074901F0A4F92068A4E785
:10B8B0002846082101F048FAD1E70249912001F019
:10B8C00099F9BDE7C06303002C640300F0B50E4690
:10B8D00085B017460446002836D0206870B3257A14
:10B8E0001DB3A37A04F1090233B3E37A00F10C0427
:10B8F0006FF008012046D55C01F032FA00231846AB
:10B900000393CDE9016701F047F8284601A9FDF747
:10B9100045FB054618B92046082101F015FA00201C
:10B9200001F054F8284605B0F0BD0A4940F2431032
:10B9300001F060F96B78FFDE1B78FFDE42200649DC
:10B9400001F058F92068CAE70349412001F052F993
:10B95000C3E700BF2C640300C06303002DE9F0437C
:10B96000D94E0D46097A317083B00446002800F0A4
:10B97000C4802168B1F5FF7F00F09B8220D940F29E
:10B980001720814200F07D81B1F5067F39D240F267
:10B990000120814200F0ED8140F2B98040F20D209B
:10B9A000814200F0618240F20E20814200F0A081CD
:10B9B00040F20A20814200F05C82002020605DE1BC
:10B9C00040F2F510814200F08182B1F5FB7FC0F0BA
:10B9D0008480B1F5FC7F00F0C48140F2CE80B1F5E7
:10B9E000FE7F00F0578200F25F8140F2F910814241
:10B9F000E3D1002A00F07A83207901274FF0000C70
:10BA000005E140F21D20814200F0568140F2908015
:10BA100040F21F20814200F03282C0F08181B1F5F6
:10BA2000087FCAD1A94F3878002A00F08A8394F899
:10BA300004C0964601218EF800C0DFF8A0C2013094
:10BA4000C0B29CF800C03870844500F20E83A04F4D
:10BA500038780130C0B238703778874240F222839C
:10BA600009208B42207140F26083481C002A00F0BC
:10BA700029832779575483424FF00401217140F202
:10BA8000838202EB000C471C8CF800109049287A46
:10BA90000978884240F2B18101EB410005F10901CA
:10BAA000DFF830C211F800E084F804E00144BB4242
:10BAB000CCF8001040F24E82791C002A00F0768209
:10BAC0002079D0558B424FF00000207140F23D822A
:10BAD000804FD7F800C04F1C70E0B1F5F77F00F041
